S0180000436F6E74726F6C426F784472697665722E7372656396
S1130000A3C00000CBC00000C9C00000C7C00000EE
S1130010C5C00000C3C00000C1C00000BFC00000D4
S1130020BDC00000BBC00000B9C00000B7C00000E4
S1130030B5C00000B3C00000B1C00000AFC00000F4
S1130040ADC00000ABC00000A9C00000A7C0000004
S11300500C94420FA3C00000A1C000000C94F30E46
S11300609DC000000C94FD0F0C942F1097C000004D
S113007095C0000093C0000091C000008FC0000034
S11300808DC000008BC0000089C0000087C0000044
S11300900C9471100C94A21081C000007FC0000069
S11300A07DC000007BC0000079C0000077C0000064
S11300B075C0000073C0000071C000006FC0000074
S11300C06DC000006BC0000069C000000C940011FA
S11300D00C94321163C000000C949B110C94CD114C
S11300E05DC00000CC02AB02AE02B102B402B702A2
S11300F0BA02BD02C002C302C602F902D802DB0280
S1130100DE02E102E402E702EA02ED02F002F30297
S1130110E307E807EB07EF07F2070608FD07000807
S11301207108760879087D088C0880088308860899
S1130130D80FDB0FDF0FE30FE70FEB0FEF0FF30F1A
S11301408701A506570EE30E11241FBECFEFD1E29F
S1130150DEBFCDBF12E0A0E0B2E0E0EEF1E300E0EC
S11301600BBF02C007900D92AC3CB107D9F729E050
S1130170ACECB2E001C01D92AF3BB207E1F710E076
S1130180C4EAD0E004C02197FE010E945214C03A90
S1130190D107C9F70E946C0D0C94EE1831CFFC0105
S11301A05183408388E090E00E94CF1044E650E001
S11301B060E070E08CEF92E00E94AA0E4CE251E005
S11301C060E070E080EF92E00E94AA0E40ED57E0FC
S11301D060E070E084EE92E00E94AA0E42EF53E0E9
S11301E060E070E088ED92E00C94AA0E0895CF923E
S11301F0DF92EF92FF920F931F93CF93DF9300D080
S11302001F92CDB7DEB76C017C018BE9E80EF11CBF
S1130210C701ECD0C7014AD18823D1F0C7015DD111
S1130220082F882391F010E082E0C80ED11C612FC2
S1130230C701F5D069837A838B83BE016F5F7F4FDB
S1130240C60183D01F5F0113F2CFC701E5D006C0FA
S1130250C701DAD0882311F0C701DED00F900F90C8
S11302600F90DF91CF911F910F91FF90EF90DF904E
S1130270CF900895CF93DF93EC010E94E3109C018B
S11302802227232B49F4682FCE01B1DF0E94E3100B
S11302909C012227232BB9F3DF91CF910895DF929C
S11302A0EF92FF920F931F93CF93DF937C01E2DFD2
S11302B082E0E80EF11CC70193D0882301F1C70145
S11302C06FD0162FD72EC82F862F0E94D70D8823C4
S11302D091F3D0E0DC2FCC27CD0DD11D113051F49A
S11302E0209741F481E00E94CA0D60E070E0815CD7
S11302F00E94B00DBE01812F0E94B00DDCCFDF91B2
S1130300CF911F910F91FF90EF90DF9008958CEFA4
S113031092E00E94700E80EF92E00E94700E84EED4
S113032092E00E94700E88ED92E00E94700E44E606
S113033050E060E070E08CEC92E00C948A0E08953A
S1130340FC011082118212820895CF93DF93DC01A5
S113035011962C91119781E0820F11968C9311972D
S113036030E02F5F3F4FF901EE0FFF1F2E0F3F1FAD
S1130370FD01E20FF31FEB01288139814A812083BB
S113038031834283823318F011961C92119712968E
S11303908C9112978F5F12968C93DF91CF91089571
S11303A0DC019C9181E0890F292F30E0823310F425
S11303B08C9301C01C9212968C91129781501296C4
S11303C08C9312972F5F3F4FF901EE0FFF1F2E0FF3
S11303D03F1FFD01E20FF31F608171818281089547
S11303E0FC0182810895FC0112AA0895FC0122A94E
S11303F0211102C0663039F431E0320FFC0132AB16
S1130400E20FF11D6083089521E0FC0182A982338B
S113041008F420E0822F0895FC0112AA0895262FE3
S1130420220F620F6B5FFC01E60FF11D7181608189
S113043082810895EF92FF920F931F93CF93DF93DE
S11304407C01FC01C2A90C2F10E0015011090630F7
S11304501105ECF0DC011596E801C80FD91F90E0F6
S1130460ECE86D9148E050E0792F7627292F30E0B1
S113047035952795922F70FF02C09E2F922766957F
S11304804150510989F7CA17DB0759F701C090E0B9
S1130490F701E00FF11F81E02081291380E0DF9153
S11304A0CF911F910F91FF90EF900895FC0122A925
S11304B0263068F03281313061F4448150E04A5F83
S11304C05F4F30E04217530731F4B4CF089580E012
S11304D0089580E0089580E00895CF93DF93EC01C0
S11304E0E5DF882339F08C819BEA899F812D1124D3
S11304F0869501C080E0DF91CF910895CF93DF937B
S1130500EC01789488E090E00E9460110E94A10DB3
S1130510BE01CE0185529F4F48D4AE0161E070E028
S1130520CE0101963CDEDF91CF910895EC018C0160
S113053005521F4FC8019DD32196C801BBD2CE01DD
S1130540AEDEFBCF90E08B30910518F5FC01EE5840
S1130550FF4F0C94521484E290E0089587E290E0F7
S113056008958AE290E008958DE290E0089580E392
S113057090E0089583E390E0089581E091E0089588
S113058084E091E0089587E091E008958AE091E0A5
S1130590089588E093E0089581E290E0089590E062
S11305A08B30910518F5FC01E358FF4F0C9452145D
S11305B085E290E0089588E290E008958BE290E06F
S11305C008958EE290E0089581E390E0089584E335
S11305D090E0089582E091E0089585E091E0089527
S11305E088E091E008958BE091E0089588E093E03D
S11305F0089582E290E008950F931F93CF93DF93C1
S1130600FC01C62FD42F608341832283211116C09D
S1130610862F98DFFC01908121E030E002C0220F98
S1130620331FDA95E2F7D22FD0959D2390838C2F38
S1130630B6DFFC0120812D23208325C02230B1F4B4
S1130640862F80DFFC01908101E010E002C0000FE2
S1130650111FDA95E2F7802F8095982390838C2FD1
S11306609EDFFC012081022B00830DC0862F6ADFF0
S1130670FC01408121E030E002C0220F331FDA95F3
S1130680E2F7242B2083DF91CF911F910F910895DE
S1130690CF93FC01C1818081662369F080DFFC0176
S11306A0408121E030E002C0220F331FCA95E2F7F7
S11306B0242B20830DC073DFFC01908121E030E006
S11306C002C0220F331FCA95E2F720952923208305
S11306D0CF910895FC016193CF01B2C30895EF92C5
S11306E0FF920F931F93CF93DF9300D0CDB7DEB764
S11306F0E62EF42E8C010F5F1F4FFC016081C801B0
S11307009FD3E982FA8242E0BE016F5F7F4FC80146
S11307101BD40F900F90DF91CF911F910F91FF90F9
S1130720EF9008950F931F93CF93DF9300D0CDB72D
S1130730DEB76A838C010F5F1F4FFC016081C80123
S11307407FD341E0BE016E5F7F4FC801FDD341E01E
S1130750BE016F5F7F4FC80197D489810F900F90BE
S1130760DF91CF911F910F9108951F93CF93DF9342
S1130770EC018881882311F013E101C012E16623A2
S113078091F0612F8B819C81CDDF41E050E00980A5
S113079002C0440F551F0A94E2F7482B612F8B8146
S11307A09C819DDF12C0612F8B819C81BBDF41E066
S11307B050E0098002C0440F551F0A94E2F74095A7
S11307C04823612F8B819C818ADFDF91CF911F9118
S11307D008951F93CF93DF93EC016A8311E088811E
S11307E0811101C010E0611112C0612F8B819C81C5
S11307F099DF41E050E0098002C0440F551F0A947C
S1130800E2F7482B612F8B819C8169DF12C0612F35
S11308108B819C8187DF41E050E0098002C0440F56
S1130820551F0A94E2F740954823612F8B819C81E0
S113083056DFDF91CF911F9108950F93FC017483CC
S1130840638340832183602FC4DF0F910895CF9386
S1130850DF93EC0160E2885F9E4F3CDF67E2CE01EC
S1130860885E9E4F37DFDF91CF910895EF92FF921C
S11308700F93CF93DF93EC017C0188EFE81A8EEF9E
S1130880F80A01E021E040E0B701CE01885D9E4F07
S1130890D4DF23E040E0B701CE01835D9E4FCDDF7E
S11308A025E040E0B701CE018E5C9E4FC6DF27E015
S11308B040E0B701CE01895C9E4FBFDF21E041E0FB
S11308C0B701CE01845C9E4FB8DF23E041E0B7015D
S11308D0CE018F5B9E4FB1DF25E041E0B701CE0131
S11308E08A5B9E4FAADF27E041E0B701CE01855B1A
S11308F09E4FA3DF7E0188EEE81A8EEFF80A21E00E
S113090040E0B701CE01805B9E4F97DF23E040E0DB
S1130910B701CE018B5A9E4F90DF25E040E0B7012E
S1130920CE01865A9E4F89DF27E040E0B701CE0111
S1130930815A9E4F82DF21E041E0B701CE018C59FC
S11309409E4F7BDF23E041E0B701CE0187599E4FE4
S113095074DF25E041E0B701CE0182599E4F6DDF7F
S113096027E041E0B701CE018D589E4F66DFDF914D
S1130970CF910F91FF90EF9008950F931F93CF9312
S1130980DF938C01EC01C858DE4F21E040E062E0C7
S1130990CE0132DE21E041E062E0C80185589E4F7D
S11309A02BDE21E042E062E0C80182589E4F24DE43
S11309B021E043E062E0C8018F579E4F1DDE0057DF
S11309C01E4F60E0CE0164DE2396C017D107C9F73D
S11309D0DF91CF911F910F9108950F931F93CF93A0
S11309E08C01085D1E4FC0E48C2F0E94CA0D892B18
S11309F0D1F081E00E94CA0D892B21F061E0C80189
S1130A00B4DE19C08AE093E00E94BD0E882399F0F9
S1130A1060910903C801A9DE9091090381E0892747
S1130A208093090308C060E070E08C2F0E94B00D31
S1130A3060E0C8019ADECF5F0B5F1F4FC035A1F69F
S1130A40CF911F910F910895CF93DF93EC0184E030
S1130A500E94CA0D892B31F061E0CE0188589E4F67
S1130A6017DE05C060E0CE0188589E4F11DE87E096
S1130A700E94CA0D892B31F060E0CE018F579E4F42
S1130A8007DE05C061E0CE018F579E4F01DE81E095
S1130A900E94CA0D892B31F060E0CE0182589E4F2E
S1130AA0F7DD05C061E0CE0182589E4FF1DDDF9194
S1130AB0CF910895EF92FF920F931F93CF93DF93FB
S1130AC0CDB7DEB7C456D1090FB6F894DEBF0FBE5A
S1130AD0CDBF8C0182DFC801B7DFC80102960E9436
S1130AE02B0E8AE00E94CA0D4AE050E0BC018DE65C
S1130AF093E0ECD78DE693E0CCD580E50E94CA0D57
S1130B004AE050E0BC018CE293E0E0D78CE293E051
S1130B10C0D542E060E086E193E071D385E20E94B3
S1130B20CA0D9F938F9306E412E01F930F93CE0197
S1130B3001967C019F938F930E94D114B70186E1A3
S1130B4093E034D443E060E086E193E058D384E258
S1130B500E94CA0D9F938F931F930F938E010D5C78
S1130B601F4F1F930F930E94D114B80186E193E0A5
S1130B701DD40FB6F894DEBF0FBECDBFCC59DF4FE6
S1130B800FB6F894DEBF0FBECDBFDF91CF911F919A
S1130B900F91FF90EF900895AF92BF92CF92DF92A2
S1130BA0EF92FF920F931F93CF93DF93CDB7DEB7EE
S1130BB0A0970FB6F894DEBF0FBECDBF6C0120E244
S1130BC0E6E0F2E0CE010196DC0101900D922A9557
S1130BD0E1F78E010F5D1F4F7C015801F5019291E1
S1130BE082915F019C01220F331F220F331F820F5A
S1130BF0931F885D9E4F61E08C0D9D1DB6DDFFEF58
S1130C0020E782E0F15020408040E1F700C000007E
S1130C10EA14FB0419F7F801929182918F019C0167
S1130C20220F331F220F331F820F931F885D9E4FA5
S1130C3060E08C0D9D1D99DDFFEF20E782E0F1500F
S1130C4020408040E1F700C000000E151F0519F791
S1130C50A0960FB6F894DEBF0FBECDBFDF91CF9143
S1130C601F910F91FF90EF90DF90CF90BF90AF90C6
S1130C7008956F927F928F929F92AF92BF92CF927C
S1130C80DF92EF92FF920F931F93CF93DF937C0138
S1130C90612C712C0F2EF3E0AF2EB12CF02D812C92
S1130CA0912C630121E0C222DD24C114D10421F07E
S1130CB0E501C819D90901C0E4018E01000F111F13
S1130CC00C0F1D1F08581E4F0E0D1F1D61E0C8019B
S1130CD0DFDC2496CE01880F991FC80FD91FC8588E
S1130CE0DE4FCE0DDF1D61E0CE01D2DC8FEF90E749
S1130CF022E0815090402040E1F700C0000060E015
S1130D00C801C6DC60E0CE01C3DC8FEF881A980A04
S1130D1094E08916910449F62FEF621A720A84E06E
S1130D206816710409F0BBCFC70136DFDF91CF919C
S1130D301F910F91FF90EF90DF90CF90BF90AF90F5
S1130D409F908F907F906F9008958F92AF92CF92E3
S1130D50EF920F9360E78DE693E0B3D461E78CE202
S1130D6093E0AFD40F2EF7E08F2EF02D0F2EF6E088
S1130D70AF2EF02D0F2EF5E0CF2EF02D6894EE243B
S1130D80E2F800E021E042E06FE386E193E06ED315
S1130D9044EF51E060E070E08AE093E0BBD70F914C
S1130DA0EF90CF90AF908F9008950F931F93CF93B0
S1130DB0DF93EC018B017983688349DDCE0156DD35
S1130DC0CE01DBDD43E050E0B801CE01029604D74A
S1130DD020E044E064E186E193E015D440E063E080
S1130DE086E193E019D361E086E193E029D361E5DC
S1130DF072E086E193E0DAD241E060E086E193E0DC
S1130E00FED16FE572E086E193E0D0D260E78DE633
S1130E1093E029D461E78CE293E025D4DF91CF916C
S1130E201F910F910895442351F0A82FB92FFB016E
S1130E30640F711D8D918193E617F707D9F7089513
S1130E40660FFC0161830895FC01611104C0818176
S1130E508160818303C081818E7F818381818093BE
S1130E60BB0084E88093BC0083E080830895FC0188
S1130E70848590E0258530E021503109821793075D
S1130E8031F4ACEBB0E09C9180E489278C9384E846
S1130E908093BC0086E080830895FC0184E98093FC
S1130EA0BC001486108286858F5F868785E38A95C9
S1130EB0F1F700000895FC019091BC00992354F4CB
S1130EC08091B900887F883019F482E08083089586
S1130ED0CF01E3CF0895FC019091BC00992354F411
S1130EE08091B900887F883119F484E08083089563
S1130EF0CF01D3CF0895FC019091BC00992354F401
S1130F008091B900887F803419F485E08083089546
S1130F10CF01C3CF08952091BC002223A4F42091D3
S1130F20B900287F283271F4FC0124852F5F2487BF
S1130F303585231718F424E02083089527E0FC0165
S1130F4020830895AACF08959F92AF92BF92CF9223
S1130F50DF92EF92FF920F931F93CF93DF93EC01F5
S1130F607B01142FBC016E5F7F4FC7015CDF88E4F7
S1130F708093B8001D871C861E861882E0E00F2E21
S1130F80FBEBCF2ED12CF02D0CEB10E00F2EF4E860
S1130F909F2EF02D0F2EF6E0AF2EF02D0F2EF4EE37
S1130FA0BF2EF02D03C0E881E83099F18E8585309D
S1130FB098F58E2F90E08830910540F5FC01E857B4
S1130FC0FF4F0C945214F801B08281E088832AC048
S1130FD0CE0171DFE8CF61E0CE0136DFE4CFCE0190
S1130FE07ADFE1CF8C85F701E80FF11D8081F601EE
S1130FF08083F8019082A88215C0CE018CDFD3CF04
S113100084E98093BC0088E0888309C088E08883F1
S113101006C081E090E008C080E090E005C081E077
S113102090E002C0E881C2CFDF91CF911F910F9170
S1131030FF90EF90DF90CF90BF90AF909F90089576
S11310402091BC002223FCF42091BC0026FF03C0A5
S113105040E565E002C048E567E02091B900287FDB
S113106030E050E02417350769F4FC01248531E0B1
S1131070320F34873091BB00E20FF11D3283FC0143
S1131080608308950ACF0895BF92CF92DF92EF92C2
S1131090FF920F931F93CF93DF93EC017B01C42E38
S11310A088E48093B8004D871C861E861882E0E091
S11310B00CEB10E00F2EF4EEBF2EF02DDD24D394B4
S11310C003C0E881E83051F18E85853078F58E2FA4
S11310D090E08830910500F5FC01E057FF4F0C9437
S11310E05214F801B082D882ED2DEECFCE01E3DEAA
S11310F0E8CF60E0CE01A8DEE4CFCE01FCDEE1CF94
S1131100CE01B5DEDECFCE019BDFDBCF84E9809359
S1131110BC0088E0888302C088E088834C2DB70136
S1131120CE01029680DE81E090E002C080E090E093
S1131130DF91CF911F910F91FF90EF90DF90CF90AF
S1131140BF900895FC0112828FEF81831082138275
S11311500895CF93DF93EC016A838EEA93E070DE07
S113116041E0BE018EEA93E08FDF888381E090E066
S1131170DF91CF910895611104C02FEFFC01218309
S11311800895FC0111820895FC012181622B608382
S113119041E0BC018EEA93E0D7DE81E090E008955F
S11311A0089508950895DC01ED91FC910084F18582
S11311B0E02D41E0099581E090E0089523E832E0D4
S11311C0FC01318320830895DC01ED91FC910480BE
S11311D0F581E02D6FEF09950895DC01ED91FC9107
S11311E00084F185E02D40E00995089561E0F5DF84
S11311F08FE39FE10197F1F700C000000895CF93BA
S1131200DF93CDB7DEB728970FB6F894DEBF0FBED5
S1131210CDBFFC01198280E48A8394E19B8394E529
S11312209C831D828E8380E18F8380E588878581FE
S1131230481710F04FEF480F9681903161F48430D5
S113124051F4DE01A40FB11D15968C91680F6068EE
S1131250CF01C3DF09C0DE01A40FB11D11969C911B
S1131260690F6068CF01B9DF28960FB6F894DEBF26
S11312700FBECDBFDF91CF910895FC016381262F6E
S1131280246023836C60A9CF0895CF93DF93EC018E
S1131290423018F08A8188608A834D836E832223CA
S11312A029F0413019F48A8184608A832FEF81EE1A
S11312B094E0215080409040E1F700C000006A8132
S11312C064FD3DC0E881F9810084F185E02D42E0B0
S11312D063E0CE0109958FE496E40197F1F700C02D
S11312E00000E881F9810084F185E02D42E063E0AB
S11312F0CE01099587E592E00197F1F700C000005F
S1131300E881F9810084F185E02D42E063E0CE01BB
S1131310099587E592E00197F1F700C00000E881A4
S1131320F9810084F185E02D42E062E0CE01099567
S113133087E592E00197F1F700C000001DC06062EC
S1131340CE014BDF8FE496E40197F1F700C0000073
S11313506A816062CE0141DF87E592E00197F1F78F
S113136000C000006A816062CE0137DF87E592E049
S11313700197F1F700C000006A816062CE012DDFA1
S11313808FEE90E00197F1F700C0000084E08B83BA
S1131390CE0173DFCE012ADF82E08C8366E0CE01CA
S11313A01CDFCE0111DFDF91CF910895CF92DF9240
S11313B0EF92FF920F931F93CF93DF938C01DB0186
S11313C09C91992301F1EB010F2EF1E7EF2EF2E04E
S11313D0FF2EF02D6E01DF93CF93FF92EF920E94C8
S11313E0BE142196D801ED91FC910680F781E02D81
S11313F0D6016C91C80109950F900F900F900F9032
S113140088818111E7CFDF91CF911F910F91FF90D8
S1131410EF90DF90CF90089521E001C0220F6A95EC
S1131420EAF7DC0119962C93199717964C931797A2
S1131430ED91FC910480F581E02D60E0099508951B
S1131440FC018185882389F09781911103C0611182
S113145005C006C0913021F4611102C0828701C029
S113146012866285CF010B968FCE08956F927F927C
S11314708F92AF92CF92DF92EF92FF920F931F93CE
S1131480CF93DF93CDB7DEB73C01D62EF42E122FC7
S113149095DE81E992E0F30191838083C3010B9689
S11314A051DEF301D08611861286178281E0982FCF
S11314B001C0990FFA94EAF79787982F01C0990F02
S11314C01A95EAF7908B982F01C0990F0A95EAF7BD
S11314D0918B982F01C0990FEA94EAF7928B982F79
S11314E001C0990FCA94EAF7938B982F01C0990F02
S11314F0AA94EAF7948B01C0880F8A94EAF7858B43
S1131500DF91CF911F910F91FF90EF90DF90CF90DB
S1131510AF908F907F906F9008950F931F93CF9308
S1131520DF93EC018C01055F1F4F6885C80111DE54
S1131530019751F461E0C8011EDE1A8260E0C8011F
S113154023DE81E090E002C080E090E0DF91CF9163
S11315501F910F910895EF92FF920F931F93CF93D2
S11315608C01C62F7C018BE0E80EF11CF801678525
S11315706C2BC70109DEF801678560956C23C701F0
S113158003DECF911F910F91FF90EF900895DC013E
S1131590FC01049620E060FF02C03289232B66958B
S11315A03196E817F907B9F7413019F451964C917F
S11315B051971A969C911A97622F692B642BCD012F
S11315C0CACF08950F931F93CF93DF938C01C62F37
S11315D0D42F423021F46F7040E0D9DF0FC070E0A7
S11315E075956795759567957595679575956795DF
S11315F0CEDF6C2F6F704D2FC801C9DFDF91CF9103
S11316001F910F910895FF920F931F93CF93DF9330
S1131610EC01162F042FF22E80DF2F2D402F612F87
S1131620CE0133DEDF91CF911F910F91FF9008958A
S1131630603108F06FE0606EFC0160A3BC01605E85
S11316407F4F41E0419680CC0895643008F060E01B
S1131650660F6168FC0160A3BC01605E7F4F41E0DE
S1131660419672CC0895CF93DF93EC01688B81E2AD
S113167088A3BE01605E7F4F41E0CE01419664DCE9
S113168060E0CE01E2DF62E0CE01D2DFDF91CF91F4
S11316900895DC0190961C929097FC01AC01405F88
S11316A05F4F208191813296278F90A3E417F5072D
S11316B0C1F7BD01605E7F4F41E1CD01419644CC4D
S11316C00895FC01E05CFF4F10824196B9CB089568
S11316D0653098F470E0660F771FFC01E60FF71F82
S11316E0A42FB0E0A556BD4F80E8289F9001112497
S11316F08C91282B30E0318320830895CF93DF939E
S1131700EC016A3031F4FC01E05CFF4F108280E0B0
S113171016C06D3039F4FC01E05CFF4F108221E00B
S113172080E015C040ED460F4A3040F420E0FC0153
S1131730E05CFF4F6081CCDF81E001C080E0FE010E
S1131740E05CFF4F908121E0290F223021F0C05C42
S1131750DF4F288304C0C05CDF4F9E5F988390E016
S1131760DF91CF910895FC0180E490E09183808320
S113177093838283158214829783868391878087DB
S113178008952F923F924F925F926F927F928F9221
S11317909F92AF92BF92CF92DF92EF92FF920F93FC
S11317A01F93CF93DF93CDB7DEB72B970FB6F89483
S11317B0DEBF0FBECDBF1C014D835E836F83788770
S11317C02B87098720E030E0A9016D817E818F811C
S11317D098858AD688230CF02EC18D819E81AF8195
S11317E0B885B0588D839E83AF83B88791E09A877C
S11317F0A3E0A98323C1C301B20110D79B01AC01AB
S1131800C701B601BBD76B017C010F5F1F4F0A15DF
S11318101B0589F72D813E814F815885C701B6018B
S1131820ADD720E030E040E05FE3FAD5C9D62B0124
S11318303C019981E92FF0E01E161F06A4F0812CCB
S1131840912C54018394481459046A047B0408F4C9
S113185049C09985892F90E0A0E0B0E089839A83FC
S1131860AB83BC831EC000E010E0812C912C54019A
S113187083949985892F90E0A0E0B0E089839A83CE
S1131880AB83BC83A501940169817A818B819C819E
S1131890D8D74B015C010F5F1F4F0E171F0794F33E
S11318A0D2CF8B8581508B8769817A818B819C8192
S11318B0B5D69B01AC01C701B6011AD66B017C01F8
S11318C02D813E814F81588559D720E030E040E09A
S11318D05FE3A6D575D62B013C01681579058A0509
S11318E09B05F8F620E030E040E85FE3C701B6016D
S11318F0FBD588231CF4C10136DFB6C04114510462
S11319006104710429F446C0AB85A11760F44DC08D
S113191010E084E099249394A12C9985C92ED12CAC
S1131920E12CF12C8983BB85BB2329F0092DB11748
S113193019F00A2D01C00A2DB9808B2D815089839D
S1131940882EC301B201A70196018AD7462F202F02
S11319506B2DC101BDDE9981923071F4BA94BA94B1
S1131960B982A4E0A81540F0E82DF0E0EE0FFF1FC7
S1131970E20DF31D11821082C301B201A701960189
S11319806FD729013A011F5F232B242B252B09F440
S1131990BBCFC9CF20E040E064E0C10199DEBA8545
S11319A0B1110EC083E089831BC0B9819A85992344
S11319B099F0EB2FAB2FA150A983B53068F403C085
S11319C0B2E0B983E3E0F0E0EE0FFF1FE20DF31D98
S11319D080E490E091838083898188230CF444C05F
S11319E006C0A981A150A983AA230CF43DC0B981E2
S11319F0B530B8F7EB2FF0E0EE0FFF1FE20DF31D4B
S1131A0011821082EECF20E030E040E05FE36D8190
S1131A107E818F81988504D5D3D52B013C018981A2
S1131A20E82FF0E00F2EC12CD12CF0E8EF2EFFE3CD
S1131A30FF2EF02D18CF1A8694E09983AB85AA2E39
S1131A40B12C1A141B04FCF600E010E00F2EC12C7C
S1131A50D12CF0E8EF2EFFE3FF2EF02DB9854B2EAD
S1131A60512C612C712CC7CE2B960FB6F894DEBF87
S1131A700FBECDBFDF91CF911F910F91FF90EF90DB
S1131A80DF90CF90BF90AF909F908F907F906F909A
S1131A905F904F903F902F9008950F93CF93DF93D3
S1131AA0EC01022FCB01BA01B9D5AB01BC0120E096
S1131AB0CE0167DEDF91CF910F9108952115310595
S1131AC019F4642F1BCE0895E8CF08959A01AB0151
S1131AD060E070E0F3CF0895CF93DF93CDB7DEB726
S1131AE0CF55D2400FB6F894DEBF0FBECDBF2FEF57
S1131AF083ED90E3215080409040E1F700C0000066
S1131B00CE0104960E94A001CE0183569F4F0E94ED
S1131B10F301CE0180539F4FE3D0CE0101960E9482
S1131B207E02CE0101960E94960280E090E0C15AA6
S1131B30DD4F0FB6F894DEBF0FBECDBFDF91CF915E
S1131B400895EDEBF3E08DEB96E0118210821382A1
S1131B501282158214823696E817F907B1F70895B0
S1131B6090E0FC01EE0FFF1FE80FF91FEE0FFF1FBF
S1131B70E354FC4F01C0FC01848195810097D9F79F
S1131B80309739F0718360830280F381E02D3097C0
S1131B90C9F7089590E0FC01EE0FFF1FE80FF91F4D
S1131BA0EE0FFF1FE354FC4F8081918108958095CF
S1131BB0881F8827881F0895FC0136969C012A5F98
S1131BC03E4F11921192E217F307D9F720E03FE05C
S1131BD0FC01338F228F0895CF93DF93EA01FC0138
S1131BE0118210827383628355834483E5DFC1309D
S1131BF0D10549F020F0C230D10549F00CC087E688
S1131C0090E05BD20BC087E690E0C9D207C087E6BC
S1131C1090E056D303C087E690E0EDD3DF93CF93F3
S1131C208BEA92E09F938F93A9D60F900F900F9019
S1131C300F90DF91CF9108959B012D5F3F4F220FAD
S1131C40331F820F931FFC0180819181892B11F036
S1131C50CB01A0CF08950F931F93CF93DF938C01F3
S1131C608FEB96E08AD08823E9F08091BD069091AD
S1131C70BE068A3091052CF01092BE061092BD0665
S1131C8011C001969093BE068093BD06C0E0D0E0DB
S1131C90BE01C801D1DF2196C038D105C9F78FEB49
S1131CA096E00DD0DF91CF911F910F91089544EFED
S1131CB051E060E070E08FEB96E02CC00895CF9384
S1131CC0DF93EC018BEC96E03BD16C837D838E83B8
S1131CD09F83688379838A839B83DF91CF9108955F
S1131CE0CF93DF93EC0141E050E060E070E08BECD7
S1131CF096E03CD18BEC96E02CD182E390E0A0E01E
S1131D00B0E088879987AA87BB87CE01D8DFDF91A7
S1131D10CF910895CF92DF92EF92FF92CF93DF930A
S1131D20EC016A017B0141E050E060E070E08BEC83
S1131D3096E01CD18BEC96E00CD1C886D986EA8655
S1131D40FB86CE01BCDFDF91CF91FF90EF90DF9057
S1131D50CF900895FC014087518762877387089567
S1131D60CF93DF93EC018BEC96E0EAD06883798320
S1131D708A839B83DF91CF910895CF93DF93EC0106
S1131D80EFDF288139818C819D81281B390BC901A2
S1131D90992324F488279927821B930B092E000C7E
S1131DA0AA0BBB0B488559856A857B85481759075B
S1131DB06A077B0724F4CE0182DF81E001C080E062
S1131DC0DF91CF9108958BEC96E0CEC008951092E8
S1131DD0D0061092D1061092D2061092D30607D1E3
S1131DE080E0D7C008951F920F920FB60F9211246E
S1131DF00BB60F922F933F934F935F936F937F9301
S1131E008F939F93AF93BF93EF93FF938091D006EB
S1131E109091D106A091D206B091D3060196A11D4E
S1131E20B11D8093D0069093D106A093D206B093AF
S1131E30D3064091D0065091D1066091D20670919C
S1131E40D3068091CC069091CD06A091CE06B09198
S1131E50CF0684179507A607B70708F4B8DFFF91E4
S1131E60EF91BF91AF919F918F917F916F915F910E
S1131E704F913F912F910F900BBE0F900FBE0F907B
S1131E801F9018951F920F920FB60F9211244F9323
S1131E905F936F937F938F939F93AF93BF9380913F
S1131EA0DC069091DD06A091DE06B091DF06019676
S1131EB0A11DB11D8093DC069093DD06A093DE0680
S1131EC0B093DF064091DC065091DD066091DE069A
S1131ED07091DF068091D4069091D506A091D60624
S1131EE0B091D70684179507A607B707D8F4809151
S1131EF0D8069091D906A091DA06B091DB06049633
S1131F00A11DB11D8093D8069093D906A093DA063B
S1131F10B093DB061092DC061092DD061092DE060A
S1131F201092DF0616BABF91AF919F918F917F9166
S1131F306F915F914F910F900FBE0F901F90189566
S1131F406091D8067091D9068091DA069091DB06EB
S1131F500895EFE6F0E0808181608083E1E8F0E0BD
S1131F608081816080830895F4CF0895A0E8BEE362
S1131F709A01AB01A0D42FEF3FEF40E050E070D4C2
S1131F802093D4063093D5064093D6065093D706B3
S1131F900895E82F8093E00685B5887F85BD8E2F50
S1131FA090E08830910510F5FC01E856FF4F7AC4A3
S1131FB085B585BD089585B5816085BD089585B5D0
S1131FC0826085BD089585B5836085BD089585B516
S1131FD0846085BD089585B5856085BD089585B502
S1131FE0866085BD089585B5876085BD0895EEE654
S1131FF0F0E080818E7F808308951F920F920FB648
S11320000F9211240BB60F922F938F939F93EF93FC
S1132010FF938091C0002091C6008C71E091E3068B
S1132020EF5FEF719091E206E91739F0E093E30670
S1132030F0E0EC51F94F208301C082E09091E10679
S1132040892B8093E106FF91EF919F918F912F91BE
S11320500F900BBE0F900FBE0F901F9018951F92FC
S11320600F920FB60F9211240BB60F928F939F937A
S1132070EF93FF939091050780910407981769F0F7
S1132080E0910407EF5FEF71E0930407F0E0EA5F8B
S1132090F84F80818093C60005C0E1ECF0E08081B8
S11320A08F7D8083FF91EF919F918F910F900BBE55
S11320B00F900FBE0F901F90189510920507109265
S11320C004071092E3061092E20690789093C500FC
S11320D08093C40088E98093C10086E08093C200A5
S11320E008951F920F920FB60F9211240BB60F9200
S11320F02F938F939F93EF93FF938091C800209128
S1132100CE008C71E0912807EF5F90912707E917C3
S113211039F0E0932807F0E0E75DF84F208301C031
S113212082E090912607892B80932607FF91EF91F7
S11321309F918F912F910F900BBE0F900FBE0F9018
S11321401F9018951F920F920FB60F9211240BB681
S11321500F928F939F93EF93FF9390912A0880910E
S11321602908981761F0E0912908EF5FE0932908A6
S1132170F0E0E55DF74F80818093CE0005C0E9EC87
S1132180F0E080818F7D8083FF91EF919F918F910B
S11321900F900BBE0F900FBE0F901F9018951092CA
S11321A02A0810922908109228071092270790787D
S11321B09093CD008093CC0088E98093C90086E099
S11321C08093CA0008959091280780912707981753
S11321D0A1F0809127078F5FE82FF0E0E75DF84FCB
S11321E0208180932707809126071092260790E08C
S11321F0982F8827820F911D089580E091E008951B
S11322001F920F920FB60F9211240BB60F922F93B9
S11322108F939F93EF93FF938091D0002091D600EA
S11322208C71E0912D09EF5FEF7190912C09E91702
S113223039F0E0932D09F0E0E25DF64F208301C010
S113224082E090912B09892B80932B09FF91EF91C8
S11322509F918F912F910F900BBE0F900FBE0F90F7
S11322601F9018951F920F920FB60F9211240BB660
S11322700F928F939F93EF93FF9390914F098091C7
S11322804E09981769F0E0914E09EF5FEF71E09302
S11322904E09F0E0E05BF64F80818093D60005C0E4
S11322A0E1EDF0E080818F7D8083FF91EF919F913C
S11322B08F910F900BBE0F900FBE0F901F9018952B
S11322C010924F0910924E0910922D0910922C0968
S11322D090789093D5008093D40088E98093D100BE
S11322E086E08093D20060E070E082E991E1FCD264
S11322F09093B8098093B709089520914F092F5FEF
S11323002F7190914E092917E1F3E22FF0E0E05B81
S1132310F64F808320934F09E1EDF0E080818062E5
S1132320808308958A3011F0E8DF02C08DE0E5DF94
S113233080E090E008951F920F920FB60F9211243F
S11323400BB60F922F938F939F93EF93FF938091EC
S11323503001209136018C71E0917209EF5FEF71C9
S113236090917109E91739F0E0937209F0E0ED58A2
S1132370F64F208301C082E090917009892B8093ED
S11323807009FF91EF919F918F912F910F900BBE48
S11323900F900FBE0F901F9018951F920F920FB6BB
S11323A00F9211240BB60F928F939F93EF93FF9389
S11323B09091940980919309981769F0E091930999
S11323C0EF5FEF71E0939309F0E0EB56F64F8081F5
S11323D08093360105C0E1E3F1E080818F7D808345
S11323E0FF91EF919F918F910F900BBE0F900FBEB5
S11323F00F901F90189510929409109293091092BF
S11324007209109271099078909335018093340188
S113241088E98093310186E0809332010895505811
S1132420BB27AA270ED070C161D130F066D120F04D
S113243031F49F3F11F41EF456C10EF4E095E7FB0E
S11324404CC1E92F72D180F3BA176207730784076E
S1132450950718F071F49EF58AC10EF4E0950B2EE1
S1132460BA2FA02D0B01B90190010C01CA01A001E2
S11324701124FF27591B99F0593F50F4503E68F13D
S11324801A16F040A22F232F342F4427585FF3CF7E
S1132490469537952795A795F0405395C9F77EF44F
S11324A01F16BA0B620B730B840BBAF09150A1F098
S11324B0FF0FBB1F661F771F881FC2F70EC0BA0F1E
S11324C0621F731F841F48F4879577956795B795A6
S11324D0F7959E3F08F0B3CF9395880F08F099279E
S11324E0EE0F979587950895D4D008F481E0089568
S11324F00CD00AC102D140F0F9D030F021F45F3F92
S113250019F0EBC0511134C1EEC00FD198F39923E7
S1132510C9F35523B1F3951B550BBB27AA276217A3
S11325207307840738F09F5F5F4F220F331F441FE8
S1132530AA1FA9F333D00E2E3AF0E0E830D0915020
S11325405040E695001CCAF729D0FE2F27D0660F0D
S1132550771F881FBB1F261737074807AB07B0E84C
S113256009F0BB0B802DBF01FF2793585F4F2AF062
S11325709E3F510568F0B1C0FBC05F3FECF3983E4D
S1132580DCF3869577956795B795F7959F5FC9F7BF
S1132590880F911D9695879597F90895E1E0660F48
S11325A0771F881FBB1F621773078407BA0720F0C1
S11325B0621B730B840BBA0BEE1F88F7E09508952A
S11325C0BCD088F09F5790F0B92F9927B751A0F04D
S11325D0D1F0660F771F881F991F1AF0BA95C9F7B3
S11325E012C0B13081F0C3D0B1E00895C0C0672FEC
S11325F0782F8827B85F39F0B93FCCF38695779563
S11326006795B395D9F73EF490958095709561954B
S11326107F4F8F4F9F4F0895E89409C097FB3EF476
S113262090958095709561957F4F8F4F9F4F99231B
S1132630A9F0F92F96E9BB279395F6958795779599
S11326406795B795F111F8CFFAF4BB0F11F460FF59
S11326501BC06F5F7F4F8F4F9F4F16C0882311F0B1
S113266096E911C0772321F09EE8872F762F05C0C5
S1132670662371F096E8862F70E060E02AF09A9560
S1132680660F771F881FDAF7880F9695879597F955
S11326900895990F0008550FAA0BE0E8FEEF1616EF
S11326A01706E807F907C0F012161306E407F50742
S11326B098F0621B730B840B950B39F40A2661F0B6
S11326C0232B242B252B21F408950A2609F4A14059
S11326D0A6958FEF811D811D089597F99F6780E866
S11326E070E060E008959FEF80EC089500240A9460
S11326F01616170618060906089500240A941216D9
S11327001306140605060895092E0394000C11F40B
S1132710882352F0BB0F40F4BF2B11F460FF04C0B8
S11327206F5F7F4F8F4F9F4F089557FD9058440F11
S1132730551F59F05F3F71F04795880F97FB991F1C
S113274061F09F3F79F087950895121613061406D9
S1132750551FF2CF4695F1DF08C016161706180666
S1132760991FF1CF86957105610508940895E89441
S1132770BB2766277727CB0197F908950BD0C4CFE1
S1132780B5DF28F0BADF18F0952309F0A6CFABCF58
S11327901124EECFCADFA0F3959FD1F3950F50E03B
S11327A0551F629FF001729FBB27F00DB11D639FFF
S11327B0AA27F00DB11DAA1F649F6627B00DA11DA5
S11327C0661F829F2227B00DA11D621F739FB00D4B
S11327D0A11D621F839FA00D611D221F749F3327BB
S11327E0A00D611D231F849F600D211D822F762F54
S11327F06A2F11249F5750408AF0E1F088234AF051
S1132800EE0FFF1FBB1F661F771F881F915050409C
S1132810A9F79E3F510570F060CFAACF5F3FECF35C
S1132820983EDCF3869577956795B795F795E79588
S11328309F5FC1F7FE2B880F911D9695879597F999
S11328400895DB018F939F9336D0BF91AF91A29FE0
S1132850800D911DA39F900DB29F900D112408959A
S1132860A1E21A2EAA1BBB1BFD010DC0AA1FBB1F90
S1132870EE1FFF1FA217B307E407F50720F0A21B02
S1132880B30BE40BF50B661F771F881F991F1A946F
S113289069F760957095809590959B01AC01BD0199
S11328A0CF010895EE0FFF1F0024001C0BBE0790FC
S11328B0F691E02D099409D0A59F900DB49F900D39
S11328C0A49F800D911D11240895A29FB001B39F70
S11328D0C001A39F700D811D1124911DB29F700D25
S11328E0811D1124911D08950F931F93CF93DF939E
S11328F0009731F46115710519F480E090E039C056
S11329008B01EC016EE070E081E090E075D2FC0197
S1132910892B99F380E883830115110571F01387DE
S1132920028781E883838091B5099091B609892B48
S113293021F4F093B609E093B5092097C9F0D18743
S1132940C0878381826083838091B7099091B8099D
S1132950892B71F4F093B809E093B7098091B90910
S11329609091BA09892B21F4F093BA09E093B9093B
S1132970CF01DF91CF911F910F910895CF93DF93F2
S1132980CDB7DEB7AE014B5F5F4FFA016191719134
S1132990AF018091B7099091B80931D0DF91CF91FF
S11329A008950F931F93CF93DF93CDB7DEB72E9780
S11329B00FB6F894DEBF0FBECDBF0D891E8986E029
S11329C08C831A8309838FEF9FE79E838D83AE01E7
S11329D0475E5F4F6F89788DCE01019610D0EF81ED
S11329E0F885E00FF11F10822E960FB6F894DEBF23
S11329F00FBECDBFDF91CF911F910F9108952F92FC
S1132A003F924F925F926F927F928F929F92AF927A
S1132A10BF92CF92DF92EF92FF920F931F93CF93C7
S1132A20DF93CDB7DEB72B970FB6F894DEBF0FBE9A
S1132A30CDBF6C017B018A01FC0117821682838160
S1132A4081FFBFC1CE0101963C01F6019381F701DC
S1132A5093FD859193FF81917F01882309F4ADC192
S1132A60853239F493FD859193FF81917F018532FD
S1132A7021F4B60190E018D3E8CF912C212C312C0D
S1132A80FFE1F315D8F08B3279F038F4803279F025
S1132A908332A1F4232D20611DC08D3261F0803377
S1132AA069F4232D216016C0832D8260382EE32D16
S1132AB0E4603E2E2AC0F32DF8601DC037FC2DC003
S1132AC020ED280F2A3040F08E32B9F436FC75C15F
S1132AD0232D2064322E19C036FE06C08AE0989E4B
S1132AE0200D1124922E11C0EAE02E9E200D1124F7
S1132AF0222EF32DF0623F2E08C08C3621F4832D54
S1132B008068382E02C0883641F4F70193FD859120
S1132B1093FF81917F018111B3CF982F9F7D9554AD
S1132B20933028F40C5F1F4F9FE399830DC08336C5
S1132B3031F0833771F0833509F055C020C0F801B6
S1132B40808189830E5F1F4F88248394912C5301C5
S1132B5012C02801F2E04F0E511CF801A080B18090
S1132B6036FE03C0692D70E002C06FEF7FEFC50130
S1132B7090D24C018201F32DFF773F2E15C028011E
S1132B8022E0420E511CF801A080B18036FE03C041
S1132B90692D70E002C06FEF7FEFC50168D24C0170
S1132BA0F32DF0683F2E820133FC19C0822D90E092
S1132BB088169906A0F4B60180E290E075D22A94B2
S1132BC0F5CFF50137FC859137FE81915F01B601A0
S1132BD090E06AD221102A9421E0821A910881148B
S1132BE0910479F7E1C0843611F0893639F5F8019A
S1132BF037FE07C060817181828193810C5F1F4F12
S1132C0008C060817181072E000C880B990B0E5F40
S1132C101F4FF32DFF763F2E97FF09C090958095A7
S1132C20709561957F4F8F4F9F4FF0683F2E2AE03C
S1132C3030E0A30175D2882E861844C0853731F45C
S1132C40232D2F7EB22E2AE030E025C0932D997FCC
S1132C50B92E8F36C1F018F4883579F0AEC08037BC
S1132C6019F0883721F0A9C0E92FE061BE2EB4FE27
S1132C700DC0FB2DF460BF2E09C034FE0AC0292FFD
S1132C802660B22E06C028E030E005C020E130E026
S1132C9002C020E132E0F801B7FE07C06081718113
S1132CA0828193810C5F1F4F06C06081718180E037
S1132CB090E00E5F1F4FA30133D2882E8618FB2DA0
S1132CC0FF773F2E36FE0DC0232D2E7FA22E8914B2
S1132CD058F434FE0BC032FC09C0832D8E7EA82E1E
S1132CE005C0B82CA32C03C0B82C01C0B92CA4FE79
S1132CF00FC0FE01E80DF11D8081803321F49A2D6F
S1132D00997EA92E09C0A2FE06C0B394B39404C050
S1132D108A2D867809F0B394A3FC10C0A0FE06C0E7
S1132D20B21480F4280C922C9B180DC0B21458F4E1
S1132D30B60180E290E0B8D1B394F8CFB21418F49D
S1132D402B1802C0982C212CA4FE0FC0B60180E3DE
S1132D5090E0AAD1A2FE16C0A1FC03C088E790E0CF
S1132D6002C088E590E0B6010CC08A2D867851F047
S1132D70A1FE02C08BE201C080E2A7FC8DE2B60195
S1132D8090E092D1891430F4B60180E390E08CD1C4
S1132D909A94F8CF8A94F301E80DF11D8081B6016D
S1132DA090E082D18110F6CF222009F44ECEB601F4
S1132DB080E290E079D12A94F7CFF6018681978159
S1132DC002C08FEF9FEF2B960FB6F894DEBF0FBEB5
S1132DD0CDBFDF91CF911F910F91FF90EF90DF90C6
S1132DE0CF90BF90AF909F908F907F906F905F90A7
S1132DF04F903F902F9008950F931F93CF93DF939D
S1132E00869F8001879F100D969F100D1124C80185
S1132E100DD0EC01009721F0A80160E070E032D100
S1132E20CE01DF91CF911F910F9108950F931F93BE
S1132E30CF93DF938230910510F482E090E0E0912B
S1132E40BD09F091BE0920E030E0A0E0B0E0309789
S1132E5019F1408151810281138148175907C8F043
S1132E608417950769F4109731F012960C93129712
S1132E7013961C9327C00093BD091093BE0922C06A
S1132E802115310519F04217530718F49A01BD01B1
S1132E90EF01DF01F801DBCF21153105F9F0281B23
S1132EA0390B2430310580F48A819B8161157105C9
S1132EB021F0FB019383828304C09093BE09809325
S1132EC0BD09FE01329644C0FE01E20FF31F819357
S1132ED0919322503109398328833AC02091BB0948
S1132EE03091BC09232B41F420910202309103025A
S1132EF03093BC092093BB09209100023091010258
S1132F002115310541F42DB73EB74091040250918B
S1132F100502241B350BE091BB09F091BC09E217B3
S1132F20F307A0F42E1B3F0B2817390778F0AC01E8
S1132F304E5F5F4F2417350748F04E0F5F1F5093C5
S1132F40BC094093BB098193919302C0E0E0F0E097
S1132F50CF01DF91CF911F910F910895CF93DF930C
S1132F60009709F481C0FC01329713821282A09168
S1132F70BD09B091BE09109781F420813181820F7F
S1132F80931F2091BB093091BC092817390751F5CB
S1132F90F093BC09E093BB0967C0ED0120E030E089
S1132FA0CE17DF0740F44A815B819E01411551052C
S1132FB0F1F0EA01F5CFD383C28340815181840FBC
S1132FC0951FC817D90759F488819981840F951FD3
S1132FD00296918380838A819B81938382832115C6
S1132FE0310529F4F093BE09E093BD093DC0E90120
S1132FF0FB83EA8349915991C40FD51FEC17FD0750
S113300061F480819181840F951F0296E90199836F
S11330108883828193819B838A83E0E0F0E0129627
S11330208D919C911397009719F0FD01DC01F7CF66
S11330308D919C9111979D012E5F3F4F820F931F9D
S11330402091BB093091BC092817390769F43097DE
S113305029F41092BE091092BD0902C01382128293
S1133060B093BC09A093BB09DF91CF910895FC01F3
S11330700590615070400110D8F7809590958E0F9F
S11330809F1F0895DC0101C06D9341505040E0F74B
S11330900895FC016150704001900110D8F78095AB
S11330A090958E0F9F1F08950F931F93CF93DF93D7
S11330B0FB01238121FD03C08FEF9FEF2CC022FF72
S11330C016C046815781248135814217530744F441
S11330D0A081B1819D012F5F3F4F318320838C9369
S11330E0268137812F5F3F4F3783268314C08B019E
S11330F0EC01FB010084F185E02D0995892BE1F6B3
S1133100D80116968D919C911797019617969C93CA
S11331108E931697CE01DF91CF911F910F91089551
S1133120FA01AA27283051F1203181F1E8946F93F4
S11331306E7F6E5F7F4F8F4F9F4FAF4FB1E03ED09A
S1133140B4E03CD0670F781F891F9A1FA11D680F38
S1133150791F8A1F911DA11D6A0F711D811D911D6B
S1133160A11D20D009F468943F912AE0269F1124E0
S11331703019305D3193DEF6CF010895462F477044
S1133180405D4193B3E00FD0C9F7F6CF462F4F709F
S1133190405D4A3318F0495D31FD4052419302D0FD
S11331A0A9F7EACFB4E0A6959795879577956795A3
S11331B0BA95C9F700976105710508959B01AC01A3
S11331C00A2E06945795479537952795BA95C9F7CA
S11331D0620F731F841F951FA01D0895F894FFCFDD
S11331E00000BF09200000000100080009000B00D6
S11331F00D000F000E00070006000400020003008B
S11332000A000C000500030005000A000C00000081
S113321001000200040006000700080009000B007A
S11332200D000E000F00536C696465723A2025642A
S1133230004E41534120526F626F746963730043BF
S11332406F6E74726F6C20426F783A2056322E3350
S1133250005072696E7456616C3A2025640A00004D
S11332600000004509D008D108D308D208000000A6
S113327000030B0C0A200AD308E20A3F065B4F66E0
S11332806D7D077F6F777C395E79715363726565F5
S11332906E205541525420494E49543A2025642009
S10F32A00A004661696C3A21210D00000F
S9030000FC
