S0180000436F6E74726F6C426F784472697665722E7372656396
S1130000A3C00000CBC00000C9C00000C7C00000EE
S1130010C5C00000C3C00000C1C00000BFC00000D4
S1130020BDC00000BBC00000B9C00000B7C00000E4
S1130030B5C00000B3C00000B1C00000AFC00000F4
S1130040ADC00000ABC00000A9C00000A7C0000004
S11300500C940A13A3C00000A1C000000C94BB12AE
S11300609DC000000C94C5130C94F71397C00000B6
S113007095C0000093C0000091C000008FC0000034
S11300808DC000008BC0000089C0000087C0000044
S11300900C946C140C949D1481C000007FC000006B
S11300A07DC000007BC0000079C0000077C0000064
S11300B075C0000073C0000071C000006FC0000074
S11300C06DC000006BC0000069C000000C940F15E7
S11300D00C94411563C000000C94C8150C940316CD
S11300E05DC00000F402D302D602D902DC02DF02B2
S11300F0E202E502E802EB02EE022103000303033D
S1130100060309030C030F031203150318031B034F
S1130110B808BD08C008C408C708DB08D208D50859
S113012046094B094E0952096109550958095B09E9
S1130130A013A313A713AB13AF13B313B713BB13BA
S1130140AF013A071F12AB1211241FBECFEFD1E249
S1130150DEBFCDBF13E0A0E0B2E0ECE3FBE300E0E0
S11301600BBF02C007900D92A634B107D9F72AE05D
S1130170A6E4B3E001C01D92AD3EB207E1F710E082
S1130180C4EAD0E004C02197FE010E94D018C03A0E
S1130190D107C9F70E94650E0C949C1D31CFFC0158
S11301A05183408388E090E00E94CA1448EC50E0F8
S11301B060E070E086E793E00E9472124CE251E046
S11301C060E070E08AE693E00E94721240ED57E02E
S11301D060E070E08EE593E00E94721242EF53E01B
S11301E060E070E082E593E00C9472120895CF927F
S11301F0DF92EF92FF920F931F93CF93DF9300D080
S11302001F92CDB7DEB76C017C018BE9E80EF11CBF
S1130210C70114D1C70172D18823D1F0C70185D198
S1130220082F882391F010E082E0C80ED11C612FC2
S1130230C7011DD169837A838B83BE016F5F7F4FB2
S1130240C601ABD01F5F0113F2CFC7010DD106C0A9
S1130250C70102D1882311F0C70106D10F900F9076
S11302600F90DF91CF911F910F91FF90EF90DF904E
S1130270CF900895CF93DF93EC010E94DE149C018C
S11302802227232B49F4682FCE01B1DF0E94DE140C
S11302909C012227232BB9F3DF91CF9108959F92DC
S11302A0AF92BF92CF92DF92EF92FF920F931F9380
S11302B0CF93DF937C01DEDF82E0E80EF11CCC24D7
S11302C0C394D12CC701B4D08823E9F1C70190D0DD
S11302D0162F972EC82F88E00E94C30E5C01812F31
S11302E00E94D00E882331F1D0E0DC2FCC27C90D39
S11302F0D11DBE01812F0E94A90E1830D9F4AB285C
S1130300C9F010E4A12CB12C96010A2C02C0220FD2
S1130310331F0A94E2F72C233D23232B29F460E0B6
S113032070E0812F0E94A90E8FEFA81AB80A1F5FF0
S1130330103551F78EE593E00E942712B60184E050
S11303400E94A90EBFCFDF91CF911F910F91FF9013
S1130350EF90DF90CF90BF90AF909F90089586E785
S113036093E00E9438128AE693E00E9438128EE5E8
S113037093E00E94381282E593E00E94381242E32F
S113038050E060E070E086E493E00C94521208952B
S1130390FC011082118212820895CF93DF93DC0155
S11303A011962C91119781E0820F11968C931197DD
S11303B030E02F5F3F4FF901EE0FFF1F2E0F3F1F5D
S11303C0FD01E20FF31FEB01288139814A8120836B
S11303D031834283823318F011961C92119712963E
S11303E08C9112978F5F12968C93DF91CF91089521
S11303F0DC019C9181E0890F292F30E0823310F4D5
S11304008C9301C01C9212968C9112978150129673
S11304108C9312972F5F3F4FF901EE0FFF1F2E0FA2
S11304203F1FFD01E20FF31F6081718182810895F6
S1130430FC0182810895FC0112AA0895FC0122A9FD
S1130440211102C0663039F431E0320FFC0132ABC5
S1130450E20FF11D6083089521E0FC0182A982333B
S113046008F420E0822F0895FC0112AA0895262F93
S1130470220F620F6B5FFC01E60FF11D7181608139
S113048082810895EF92FF920F931F93CF93DF938E
S11304907C01FC01C2A90C2F10E0015011090630A7
S11304A01105ECF0DC011596E801C80FD91F90E0A6
S11304B0ECE86D9148E050E0792F7627292F30E061
S11304C035952795922F70FF02C09E2F922766952F
S11304D04150510989F7CA17DB0759F701C090E069
S11304E0F701E00FF11F81E02081291380E0DF9103
S11304F0CF911F910F91FF90EF900895FC0122A9D5
S1130500263068F03281313061F4448150E04A5F32
S11305105F4F30E04217530731F4B4CF089580E0C1
S1130520089580E0089580E00895CF93DF93EC016F
S1130530E5DF882339F08C819BEA899F812D112482
S1130540869501C080E0DF91CF910895CF93DF932A
S1130550EC01789488E090E00E946F150E949A0E56
S1130560BE01CE0185529F4FBAD4AE0162E070E065
S1130570CE01019614DEDF91CF910895EC018C0138
S113058005521F4FC8010AD42196C8012FD3CE01AA
S113059086DEFBCF90E08B30910518F5FC01EE5818
S11305A0FF4F0C94D01884E290E0089587E290E025
S11305B008958AE290E008958DE290E0089580E342
S11305C090E0089583E390E0089581E091E0089538
S11305D084E091E0089587E091E008958AE091E055
S11305E0089582E893E0089581E290E0089590E010
S11305F08B30910518F5FC01E358FF4F0C94D0188B
S113060085E290E0089588E290E008958BE290E01E
S113061008958EE290E0089581E390E0089584E3E4
S113062090E0089582E091E0089585E091E00895D6
S113063088E091E008958BE091E0089582E893E0EA
S1130640089582E290E008950F931F93CF93DF9370
S1130650FC01C62FD42F608341832283211116C04D
S1130660862F98DFFC01908121E030E002C0220F48
S1130670331FDA95E2F7D22FD0959D2390838C2FE8
S1130680B6DFFC0120812D23208325C02230B1F464
S1130690862F80DFFC01908101E010E002C0000F92
S11306A0111FDA95E2F7802F8095982390838C2F81
S11306B09EDFFC012081022B00830DC0862F6ADFA0
S11306C0FC01408121E030E002C0220F331FDA95A3
S11306D0E2F7242B2083DF91CF911F910F9108958E
S11306E0CF93FC01C1818081662369F080DFFC0126
S11306F0408121E030E002C0220F331FCA95E2F7A7
S1130700242B20830DC073DFFC01908121E030E0B5
S113071002C0220F331FCA95E2F7209529232083B4
S1130720CF910895FC016193CF015FC40895EF92C6
S1130730FF920F931F93CF93DF9300D0CDB7DEB713
S1130740E62EF42E8C010F5F1F4FFC016081C8015F
S11307504CD4E982FA8242E0BE016F5F7F4FC80148
S1130760C8D40F900F90DF91CF911F910F91FF90FC
S1130770EF9008950F931F93CF93DF9300D0CDB7DD
S1130780DEB76A838C010F5F1F4FFC016081C801D3
S11307902CD441E0BE016E5F7F4FC801AAD441E072
S11307A0BE016F5F7F4FC80144D589810F900F90C0
S11307B0DF91CF911F910F9108951F93CF93DF93F2
S11307C0EC018881882311F013E101C012E1662352
S11307D091F0612F8B819C81CDDF41E050E0098055
S11307E002C0440F551F0A94E2F7482B612F8B81F6
S11307F09C819DDF12C0612F8B819C81BBDF41E016
S113080050E0098002C0440F551F0A94E2F7409556
S11308104823612F8B819C818ADFDF91CF911F91C7
S113082008951F93CF93DF93EC016A8311E08881CD
S1130830811101C010E0611112C0612F8B819C8174
S113084099DF41E050E0098002C0440F551F0A942B
S1130850E2F7482B612F8B819C8169DF12C0612FE5
S11308608B819C8187DF41E050E0098002C0440F06
S1130870551F0A94E2F740954823612F8B819C8190
S113088056DFDF91CF911F9108950F93FC0174837C
S1130890638340832183602FC4DF0F910895CF9336
S11308A0DF93EC0160E2885F9E4F3CDF67E2CE019C
S11308B0815E9E4F37DFDF91CF910895EF92FF92D3
S11308C00F93CF93DF93EC017C0188EFE81A8EEF4E
S11308D0F80A01E021E040E0B701CE018A5C9E4FB6
S11308E0D4DF23E040E0B701CE01855C9E4FCDDF2D
S11308F025E040E0B701CE01805C9E4FC6DF27E0D3
S113090040E0B701CE018B5B9E4FBFDF21E041E0A9
S1130910B701CE01865B9E4FB8DF23E041E0B7010B
S1130920CE01815B9E4FB1DF25E041E0B701CE01EE
S11309308C5A9E4FAADF27E041E0B701CE01875AC7
S11309409E4FA3DF7E0181EEE81A8EEFF80A21E0C4
S113095040E0B701CE01825A9E4F97DF23E040E08A
S1130960B701CE018D599E4F90DF25E040E0B701DD
S1130970CE0188599E4F89DF27E040E0B701CE01C0
S113098083599E4F82DF21E041E0B701CE018E58AA
S11309909E4F7BDF23E041E0B701CE0189589E4F93
S11309A074DF25E041E0B701CE0184589E4F6DDF2E
S11309B027E041E0B701CE018F579E4F66DFDF91FC
S11309C0CF910F91FF90EF9008950F931F93CF93C2
S11309D0DF938C01EC01CA57DE4F21E040E062E076
S11309E0CE0132DE21E041E062E0C80187579E4F2C
S11309F02BDE21E042E062E0C80184579E4F24DEF2
S1130A0021E043E062E0C80181579E4F1DDE21E0F2
S1130A1044E062E0C8018E569E4F16DE21E045E0B8
S1130A2062E0C8018B569E4F0FDE21E046E062E093
S1130A30C80188569E4F08DE21E047E062E0C80105
S1130A4085569E4F01DE02561E4F60E0CE0148DE01
S1130A502396C017D107C9F7DF91CF911F910F914A
S1130A6008956F927F928F929F92AF92BF92CF928E
S1130A70DF92EF92FF920F931F93CF93DF938A5CE1
S1130A809E4F7C016894992496F8C0E0D0E0CC2471
S1130A90C394D12C712C812C66246394892D0E94DB
S1130AA0C30E8C0188E00E94C30E56010C2E02C0B6
S1130AB0AA0CBB1C0A94E2F78A219B219601892B7C
S1130AC011F4272D382D022B132B012BD9F088E09C
S1130AD00E94C30E8A219B21892B21F0662DC70118
S1130AE06CDE18C084E893E00E948512882391F09C
S1130AF060918303C70161DE80918303862580931F
S1130B00830308C0672D782D892D0E94A90E60E00B
S1130B10C70153DE2196939485E0E80EF11CC031A1
S1130B20D10509F0BBCFDF91CF911F910F91FF90B9
S1130B30EF90DF90CF90BF90AF909F908F907F9079
S1130B406F900895CF93DF93EC0184E00E94C30E6D
S1130B50892B59F061E0CE018A579E4FC1DD60E0D8
S1130B60CE018E569E4FBCDD0AC060E0CE018A578E
S1130B709E4FB6DD61E0CE018E569E4FB1DD87E01B
S1130B800E94C30E892B59F060E0CE0181579E4F1D
S1130B90A7DD61E0CE0185569E4FA2DD0AC061E06B
S1130BA0CE0181579E4F9CDD60E0CE0185569E4F5D
S1130BB097DD88E00E94C30E892B59F060E0CE01D6
S1130BC084579E4F8DDD61E0CE0188569E4F88DDAF
S1130BD00AC061E0CE0184579E4F82DD60E0CE0101
S1130BE088569E4F7DDDDF91CF9108950F931F931B
S1130BF0CF93DF9300D000D01F92CDB7DEB78C0126
S1130C0030DFC8019FDFC80102960E94C21180E94B
S1130C1093E00E948512882309F449C081E00E9470
S1130C20C30E4AE050E0BC018AEF93E00E94580EE4
S1130C308AEF93E003D642E060E08CE993E0B4D31A
S1130C4066E472E08CE993E086D481E00E94C30EEE
S1130C509F938F938FE492E09F938F938E010F5F06
S1130C601F4F1F930F930E947F1962E572E08CE976
S1130C7093E071D442E068E08CE993E095D3B80145
S1130C808CE993E068D480E50E94C30E4AE050E00A
S1130C9064EA71E082EB93E00E945E0E82EB93E0E3
S1130CA0CDD50F900F900F900F900F900F900F9045
S1130CB00F900F900F900F90DF91CF911F910F9194
S1130CC00895AF92BF92CF92DF92EF92FF920F936B
S1130CD01F93CF93DF93CDB7DEB7A0970FB6F894E9
S1130CE0DEBF0FBECDBF6C0120E2E6E0F2E0CE0134
S1130CF00196DC0101900D922A95E1F78E010F5DBA
S1130D001F4F7C015801F501929182915F019C0172
S1130D10220F331F220F331F820F931F8A5C9E4FB3
S1130D2061E08C0D9D1D49DDFFEF20E782E0F1506D
S1130D3020408040E1F700C00000EA14FB0419F7EA
S1130D40F801929182918F019C01220F331F220F8F
S1130D50331F820F931F8A5C9E4F60E08C0D9D1D94
S1130D602CDDFFEF20E782E0F15020408040E1F7E6
S1130D7000C000000E151F0519F7A0960FB6F894D1
S1130D80DEBF0FBECDBFDF91CF911F910F91FF90BA
S1130D90EF90DF90CF90BF90AF9008956F927F92C5
S1130DA08F929F92AF92BF92CF92DF92EF92FF9277
S1130DB00F931F93CF93DF937C01612C712C0F2E23
S1130DC0F3E0AF2EB12CF02D812C912C630121E0A6
S1130DD0C222DD24C114D10421F0E501C819D909C6
S1130DE001C0E4018E01000F111F0C0F1D1F0A57D3
S1130DF01E4F0E0D1F1D61E0C80172DC2496CE014A
S1130E00880F991FC80FD91FCA57DE4FCE0DDF1D9B
S1130E1061E0CE0165DC8FEF90E722E081509040E5
S1130E202040E1F700C0000060E0C80159DC60E048
S1130E30CE0156DC8FEF881A980A94E08916910443
S1130E4049F62FEF621A720A84E06816710409F0F9
S1130E50BBCFC70136DFDF91CF911F910F91FF9078
S1130E60EF90DF90CF90BF90AF909F908F907F9046
S1130E706F9008958F92AF92CF92EF920F9360E7A5
S1130E808AEF93E0F3D461E782EB93E0EFD40F2E83
S1130E90F7E08F2EF02D0F2EF6E0AF2EF02D0F2E53
S1130EA0F5E0CF2EF02D6894EE24E2F800E021E086
S1130EB042E06FE38CE993E0AED380E993E00E94D3
S1130EC0381244EF51E060E070E084E893E00E945F
S1130ED052120F91EF90CF90AF908F9008950F938F
S1130EE01F93CF93DF93EC018B0179836883D7DC65
S1130EF0CE01E4DCCE0169DD48EC50E060E070E056
S1130F0080E993E00E94721243E050E0B801CE0100
S1130F1002960E94D30F20E044E064E18CE993E060
S1130F2047D440E063E08CE993E04BD361E08CE983
S1130F3093E05BD368E572E08CE993E00CD341E085
S1130F4060E08CE993E030D266E672E08CE993E0ED
S1130F5002D360E78AEF93E05BD461E782EB93E02E
S1130F6057D4DF91CF911F910F910895AF92BF9203
S1130F70CF92DF92EF92FF920F931F93CF93DF9361
S1130F80A42EB12C1A141B042CF5E82EF92E062FCE
S1130F90172FC0E0D0E00F2EF8E7CF2EF2E0DF2EBF
S1130FA0F02DF70181917F01F80181938F018081F8
S1130FB01F928F93DF93CF93DF92CF920E943C19BD
S1130FC021960F900F900F900F900F900F90CA15CD
S1130FD0DB0539F7DF91CF911F910F91FF90EF90CF
S1130FE0DF90CF90BF90AF900895660FFC016183AE
S1130FF00895FC01611104C081818160818303C073
S113100081818E7F818381818093BB0084E880937A
S1131010BC0083E080830895FC01838990E02489E7
S113102030E0215031098217930731F4ACEBB0E082
S11310309C9180E489278C9384E88093BC0086E0AB
S113104080830895FC0184E98093BC00138A108294
S113105085898F5F858B85E38A95F1F70000089574
S1131060FC019091BC00992354F48091B900887FCD
S1131070883019F482E080830895CF01E3CF089586
S1131080FC019091BC00992354F48091B900887FAD
S1131090883119F484E080830895CF01D3CF089573
S11310A0FC019091BC00992354F48091B900887F8D
S11310B0803419F485E080830895CF01C3CF089567
S11310C02091BC002223A4F42091B900287F283267
S11310D071F4FC0123892F5F238B3489231718F4BF
S11310E024E02083089527E0FC0120830895AACFFB
S11310F008959F92AF92BF92CF92DF92EF92FF92A8
S11311000F931F93CF93DF93EC017B01142FBC014A
S11311106E5F7F4FC7012ADF88E48093B8001C8B81
S11311201B8A1D8A1882E0E00F2EFBEBCF2ED12CF8
S1131130F02D0CEB10E00F2EF4E89F2EF02D0F2E67
S1131140F6E0AF2EF02D0F2EF4EEBF2EF02D03C0DF
S1131150E881E83099F18D89853098F58E2F90E0FB
S11311608830910540F5FC01E857FF4F0C94D018E6
S1131170F801B08281E088832AC0CE0171DFE8CF14
S113118061E0CE0136DFE4CFCE017ADFE1CF8B8997
S1131190F701E80FF11D8081F6018083F801908248
S11311A0A88215C0CE018CDFD3CF84E98093BC0024
S11311B088E0888309C088E0888306C081E090E0E5
S11311C008C080E090E005C081E090E002C0E881C2
S11311D0C2CFDF91CF911F910F91FF90EF90DF90DD
S11311E0CF90BF90AF909F9008952091BC00222390
S11311F0FCF42091BC0026FF03C040E565E002C07A
S113120048E567E02091B900287F30E050E02417DA
S1131210350769F4FC01238931E0320F338B3091B7
S1131220BB00E20FF11D3283FC01608308950ACFF5
S11312300895BF92CF92DF92EF92FF920F931F9384
S1131240CF93DF93EC017B01C42E88E48093B80034
S11312504C8B1B8A1D8A1882E0E00CEB10E00F2EE9
S1131260F4EEBF2EF02DDD24D39403C0E881E830E2
S113127051F18D89853078F58E2F90E08830910575
S113128000F5FC01E057FF4F0C94D018F801B08230
S1131290D882ED2DEECFCE01E3DEE8CF60E0CE01C3
S11312A0A8DEE4CFCE01FCDEE1CFCE01B5DEDECF99
S11312B0CE019BDFDBCF84E98093BC0088E0888388
S11312C002C088E088834C2DB701CE0102964EDE21
S11312D081E090E002C080E090E0DF91CF911F9127
S11312E00F91FF90EF90DF90CF90BF900895FC0195
S11312F012828FEF8183108213820895CF93DF933C
S1131300EC016A8382E494E070DE41E0BE0182E491
S113131094E08FDF888381E090E0DF91CF9108959E
S1131320611104C02FEFFC0121830895FC01118297
S11313300895FC012181622B608341E0BC0182E4B9
S113134094E0D7DE81E090E008950895089508952B
S1131350DC01ED91FC910084F185E02D41E00995DB
S113136081E090E0089526E932E0FC013183208396
S11313700895DC01ED91FC910480F581E02D6FEF7F
S113138009950895DC01ED91FC910084F185E02D2F
S113139040E00995089561E0F5DF8FE39FE101974F
S11313A0F1F700C000000895CF93DF93CDB7DEB707
S11313B028970FB6F894DEBF0FBECDBFFC0119828B
S11313C080E48A8394E19B8394E59C831D828E83CD
S11313D080E18F8380E588878581481710F04FEF7F
S11313E0480F9681903161F4843051F4DE01A40FEA
S11313F0B11D15968C91680F6068CF01C3DF09C0D9
S1131400DE01A40FB11D11969C91690F6068CF0194
S1131410B9DF28960FB6F894DEBF0FBECDBFDF91BB
S1131420CF910895FC016381262F246023836C608F
S1131430A9CF0895CF93DF93EC01423018F08A814D
S113144088608A834D836E83222329F0413019F406
S11314508A8184608A832FEF81EE94E0215080405A
S11314609040E1F700C000006A8164FD3DC0E8815E
S1131470F9810084F185E02D42E063E0CE01099515
S11314808FE496E40197F1F700C00000E881F98148
S11314900084F185E02D42E063E0CE01099587E503
S11314A092E00197F1F700C00000E881F98100841F
S11314B0F185E02D42E063E0CE01099587E592E0F5
S11314C00197F1F700C00000E881F9810084F185FB
S11314D0E02D42E062E0CE01099587E592E00197B4
S11314E0F1F700C000001DC06062CE014BDF8FE445
S11314F096E40197F1F700C000006A816062CE01B2
S113150041DF87E592E00197F1F700C000006A81AE
S11315106062CE0137DF87E592E00197F1F700C002
S113152000006A816062CE012DDF8FEE90E00197AA
S1131530F1F700C0000084E08B83CE0173DFCE019D
S11315402ADF82E08C8366E0CE011CDFCE0111DF4E
S1131550DF91CF910895CF92DF92EF92FF920F9394
S11315601F93CF93DF938C01DB019C91992301F1AD
S1131570EB010F2EF4E8EF2EF2E0FF2EF02D6E01BA
S1131580DF93CF93FF92EF920E943C192196D801EA
S1131590ED91FC910680F781E02DD6016C91C80194
S11315A009950F900F900F900F9088818111E7CFCC
S11315B0DF91CF911F910F91FF90EF90DF90CF902B
S11315C0089521E001C0220F6A95EAF7DC0119961B
S11315D02C93199717964C931797ED91FC910480CF
S11315E0F581E02D60E009950895FC01818588234B
S11315F089F09781911103C0611105C006C0913033
S113160021F4611102C0828701C012866285CF0174
S11316100B968FCE08956F927F928F92AF92CF9256
S1131620DF92EF92FF920F931F93CF93DF93CDB787
S1131630DEB73C01D62EF42E122F95DE84EA92E01A
S1131640F30191838083C3010B9651DEF301D086AD
S113165011861286178281E0982F01C0990FFA949F
S1131660EAF79787982F01C0990F1A95EAF7908B9C
S1131670982F01C0990F0A95EAF7918B982F01C012
S1131680990FEA94EAF7928B982F01C0990FCA94A4
S1131690EAF7938B982F01C0990FAA94EAF7948BD9
S11316A001C0880F8A94EAF7858BDF91CF911F914F
S11316B00F91FF90EF90DF90CF90AF908F907F903D
S11316C06F9008950F931F93CF93DF93EC018C01D8
S11316D0055F1F4F6885C80111DE019751F461E071
S11316E0C8011EDE1A8260E0C80123DE81E090E0BA
S11316F002C080E090E0DF91CF911F910F91089597
S1131700EF92FF920F931F93CF938C01C62F7C010E
S11317108BE0E80EF11CF80167856C2BC70109DE2C
S1131720F801678560956C23C70103DECF911F9193
S11317300F91FF90EF900895DC01FC01049620E0E6
S113174060FF02C03289232B66953196E817F907AA
S1131750B9F7413019F451964C9151971A969C91CE
S11317601A97622F692B642BCD01CACF08950F936A
S11317701F93CF93DF938C01C62FD42F423021F4D3
S11317806F7040E0D9DF0FC070E07595679575956F
S113179067957595679575956795CEDF6C2F6F7016
S11317A04D2FC801C9DFDF91CF911F910F9108958B
S11317B0FF920F931F93CF93DF93EC01162F042F07
S11317C0F22E80DF2F2D402F612FCE0133DEDF91EB
S11317D0CF911F910F91FF900895603108F06FE051
S11317E0606EFC0167A3BC01695D7F4F41E04196D7
S11317F080CC0895643008F060E0660F6168FC01F5
S113180067A3BC01695D7F4F41E0419672CC0895A6
S1131810CF93DF93EC01688B81E28FA3BE01695DF6
S11318207F4F41E0CE01419664DC60E0CE01E2DF0F
S113183062E0CE01D2DFDF91CF910895DC0197966B
S11318401C929797FC01AC01405F5F4F208191810E
S1131850329626A397A3E417F507C1F7BD01695D86
S11318607F4F41E1CD01419644CC0895FC01E95BF1
S1131870FF4F10824196B9CB08956530D0F4E62F1E
S1131880F0E0242F30E0EE0FFF1FE80FF91F318343
S113189020831F924F931F926F938EEA92E09F933F
S11318A08F930E943C190F900F900F900F900F9000
S11318B00F900895653058F4E42FF0E0E554FD4F9F
S11318C040E8249F900111244081422BD6CF0895F3
S11318D0CF93DF93EC016A3031F4FC01E95BFF4FF5
S11318E0108280E016C06D3039F4FC01E95BFF4FD3
S11318F0108221E080E015C040ED460F4A3040F4EC
S113190020E0FC01E95BFF4F6081D4DF81E001C08E
S113191080E0FE01E95BFF4F908121E0290F223036
S113192021F0C95BDF4F288304C0C95BDF4F9E5F92
S1131930988390E0DF91CF9108950F931F93CF93F5
S1131940DF938C01D1E0C0E002C0CF5FDF5FC23023
S113195039F040E46C2FC80190DFD530B0F305C0F6
S113196040E06C2FC80189DFF0CFDF91CF911F9148
S11319700F9108952F923F924F925F926F927F92B0
S11319808F929F92AF92BF92CF92DF92EF92FF928B
S11319900F931F93CF93DF93CDB7DEB72B970FB67B
S11319A0F894DEBF0FBECDBF1C014D835E836F83F1
S11319B078872B87098720E030E0A9016D817E813B
S11319C08F8198850E94F21688230CF025C18D81A1
S11319D09E81AF81B885B0588D839E83AF83B887CD
S11319E091E09A87A3E0A9831AC1C301B2010E94BE
S11319F08C179B01AC01C701B6010E943C186B0116
S1131A007C010F5F1F4F0A151B0579F72D813E815D
S1131A104F815885C701B6010E943C1820E030E090
S1131A2040E05FE30E948E160E945E172B013C018A
S1131A309981E92FF0E01E161F06A4F0812C912C49
S1131A4054018394481459046A047B0408F44FC075
S1131A509985892F90E0A0E0B0E089839A83AB83D5
S1131A60BC831FC000E010E0812C912C54018394AE
S1131A709985892F90E0A0E0B0E089839A83AB83B5
S1131A80BC83A501940169817A818B819C810E9428
S1131A909F184B015C010F5F1F4F0E171F078CF33C
S1131AA0D1CF8B8581508B8769817A818B819C8191
S1131AB00E948C179B01AC01C701B6010E94F61667
S1131AC06B017C012D813E814F8158850E943C1819
S1131AD020E030E040E05FE30E948E160E945E1733
S1131AE02B013C01681579058A059B05D0F620E099
S1131AF030E040E85FE3C701B6010E94F216882394
S1131B001CF4C1011ADFA1C0411451046104710421
S1131B1029F441C0AB85A11760F448C010E084E00B
S1131B2099249394A12C9985C92ED12CE12CF12CC4
S1131B308983BB85BB2329F0092DB11719F00A2D20
S1131B4001C00A2DB9808B2D81508983882EC30151
S1131B50B201A70196010E94AE18462F202F6B2DCB
S1131B60C101A8DE9981923039F4BA94BA94B98249
S1131B704A2D682DC10181DEC301B201A70196017E
S1131B800E94AE1829013A011F5F232B242B252B19
S1131B9009F4C0CFCECF20E040E064E0C1018ADE8A
S1131BA0AA85A11107C0B3E0B98311C08A8588232F
S1131BB051F002C093E09983698140E4A62FA150BB
S1131BC0A983C1015ADEB981BB230CF43EC06981EB
S1131BD0862F8150898340E0C1014FDE998199238A
S1131BE0B4F733C020E030E040E05FE36D817E81F4
S1131BF08F8198850E948E160E945E172B013C01EE
S1131C00A981EA2FF0E00F2EC12CD12CF0E8EF2EA1
S1131C10FFE3FF2EF02D26CF1A86B4E0B9838B851F
S1131C20A82EB12C1A141B04ECF600E010E00F2EC1
S1131C30C12CD12CF0E8EF2EFFE3FF2EF02D998577
S1131C40492E512C612C712CD0CE2B960FB6F894C2
S1131C50DEBF0FBECDBFDF91CF911F910F91FF90DB
S1131C60EF90DF90CF90BF90AF909F908F907F9038
S1131C706F905F904F903F902F9008950F93CF9364
S1131C80DF93EC01022FCB01BA010E948C17AB0148
S1131C90BC0120E0CE016EDEDF91CF910F9108955B
S1131CA02115310519F4642F13CE0895E7CF089553
S1131CB09A01AB0160E070E0F3CF0895242FAB01EB
S1131CC0770F660B770BDACF0895CF93DF93CDB7F9
S1131CD0DEB7CD56D2400FB6F894DEBF0FBECDBFEF
S1131CE02FEF83ED90E3215080409040E1F700C056
S1131CF00000CE0104960E94C801CE0183569F4F76
S1131D000E941B02CE0180539F4FB2D3CE01019695
S1131D100E94A602CE0101960E94BE0280E090E0DD
S1131D20C359DD4F0FB6F894DEBF0FBECDBFDF91B0
S1131D30CF910895E8E5F4E088E597E011821082F8
S1131D4013821282158214823696E817F907B1F7C6
S1131D50089590E0FC01EE0FFF1FE80FF91FEE0F4E
S1131D60FF1FE85AFB4F01C0FC0184819581009755
S1131D70D9F7309739F0718360830280F381E02DC5
S1131D803097C9F7089590E0FC01EE0FFF1FE80FAC
S1131D90F91FEE0FFF1FE85AFB4F808191810895D0
S1131DA08095881F8827881F0895FC0136969C011A
S1131DB02A5F3E4F11921192E217F307D9F72FE0F1
S1131DC030E0FC0131872087E4EFF7E08FE0808387
S1131DD0118213821282E4EAF7E0808321E02183F6
S1131DE013821282848362E065831782168280875D
S1131DF053E0518713861286848744E0458717860B
S1131E001686808B98E0918B138A128A848B178AAA
S1131E10168A808F138E128E848F178E168E80A34F
S1131E2013A212A284A39AE095A317A216A280A7D4
S1131E309BE091A713A612A684A73CE035A717A69A
S1131E4016A680AB3DE031AB13AA12AA84AB3EE0E8
S1131E5035AB17AA16AA80AF81AF13AE12AE84AF0A
S1131E6070E175AF17AE16AE8093E40771E170931D
S1131E70E5071092E7071092E6078093E80772E1FE
S1131E807093E9071092EB071092EA078093EC072E
S1131E9073E17093ED071092EF071092EE078093B1
S1131EA0F00774E17093F1071092F3071092F207B0
S1131EB0ACE8B7E09C9311961C92119713961C9270
S1131EC01E92129714969C93149715962C9315971B
S1131ED017961C921E92169718969C93189719960B
S1131EE06C9319971B961C921E921A971C969C939E
S1131EF01C971D965C931D971F961C921E921E970D
S1131F0050969C93509751964C93519753961C928C
S1131F101E92529754969C93549795E055969C9391
S1131F20559757961C921E925697A4E6B7E08C9349
S1131F3099E111969C93119713961C921E921297F5
S1131F4014968C9314979AE115969C93159717966B
S1131F501C921E92169718968C9318978BE11996DB
S1131F608C9319971B961C921E921A971C963C935D
S1131F701C971D961C921D971F961C921E921E97CD
S1131F8050963C93509751962C93519753961C928C
S1131F901E92529785E1858B86E1818F87E1858F3B
S1131FA088E181A30895CF93DF93EA01FC011182B4
S1131FB010827383628355834483F7DEC130D10575
S1131FC049F020F0C230D10549F00CC087E690E01A
S1131FD03CD40BC087E690E0DDD407C087E690E0F0
S1131FE07ED503C087E690E03CD6DF93CF938BEC9D
S1131FF092E09F938F930E943C190F900F900F9043
S11320000F90DF91CF910895CF93DF93611107C0B3
S113201081E0B9DE9093F7078093F6075FC06130E3
S113202009F45CC06230D9F480E2ADDECCE8D7E0DC
S11320309B838A8381E2A7DE9F838E8384E2A3DE6F
S11320409B878A8782E29FDE9F878E8783E29BDE5F
S11320509B8B8A8B85E297DE9F8B8E8B3FC0633090
S113206009F03CC08AE08FDEC4E6D7E09C01ADEC09
S1132070BCEC0E94D9189695879596958795969568
S113208087959B838A838BE07EDE9C01ADECBCEC60
S11320900E94D918969587959695879596958795D4
S11320A09F838E838CE06FDE9B878A8781E06BDE63
S11320B021E030E0892B11F420E030E03093730705
S11320C02093720788E05FDE21E030E0892B11F471
S11320D020E030E03093770720937607DF91CF91AB
S11320E00895FC01848195818130910539F018F0BF
S11320F0029739F009C0862FDAC30895862F7BC46E
S11321000895862F27C50895862FF2C50895FC01EA
S1132110848195818130910549F030F082309105B8
S113212039F0039739F008C0A4C3089547C408954B
S1132130F3C40895B6C5089580E008950F931F93DE
S1132140CF93DF938C01EB0182EE92E00E944F1952
S11321506881C801C6DF6981C801C3DF6A81C8011B
S1132160C0DF6B81C801BDDF80E0DF91CF911F919B
S11321700F910895CF92DF92EF92FF920F931F93E6
S1132180CF93DF93CDB7DEB760970FB6F894DEBF79
S11321900FBECDBF8C01E62E7AD548EE53E060E049
S11321A070E0CE0105967ED11982EA821B82EC8210
S11321B0BE016F5F7F4FC801C1DF70D5863030F438
S11321C0CE010596A2D18823C1F312C067D51F9210
S11321D08F938EEE92E09F938F930E943C190F9001
S11321E00F900F900F90C80192DF8530E1F706C081
S11321F00FEF10E025C00FEF10E022C0C80187DF09
S1132200D82EC80184DFC80182DFC82EC8017FDF51
S1132210F82EC8017CDF0F2D10E01C291F93FF92BC
S11322201F92DF928DEF92E09F938F930E943C194F
S11322300F900F900F900F900F900F90ED10DBCF39
S1132240C80160960FB6F894DEBF0FBECDBFDF9114
S1132250CF911F910F91FF90EF90DF90CF90089551
S1132260EF92FF921F93CF93DF93CDB7DEB72C97F6
S11322700FB6F894DEBF0FBECDBF7C0148EC50E032
S113228060E070E0CE0101960DD1CE0101963DD102
S1132290182F81110AC0C7013ADF90E085319105FA
S11322A029F0069791F711E001C010E0812F2C96D8
S11322B00FB6F894DEBF0FBECDBFDF91CF911F9153
S11322C0FF90EF900895DF92EF92FF920F931F9388
S11322D0CF93DF938C01EB01E12CF12C6881C801D1
S11322E000DF6981C801FDDE6A81C801FADE6B8105
S11322F0C801F7DE6C81C801F4DE6D81C801F1DE2E
S1132300C801AEDFD82E8FEFE81AF80AD11005C045
S11323108AE0E816F10411F704C08AE0E816F10433
S11323201CF081E193E0BBD78D2DDF91CF911F91FC
S11323300F91FF90EF90DF900895CF93DF9300D03B
S113234000D000D0CDB7DEB7262F31E039834A83E1
S11323505B837C836D8354273527232727272E838C
S1132360BE016F5F7F4FAFDF811103C08AE193E04D
S113237096D726960FB6F894DEBF0FBECDBFDF9179
S1132380CF910895CF92DF92EF92FF920F931F9314
S1132390CF93DF937C0188E597E0B7D0882309F4D5
S11323A045C06AE0C701E6DE6C01EC01DD27DF937E
S11323B0CF9388E393E09F938F935ED76C2DC701EF
S11323C023DE0F900F900F900F90C130D10571F064
S11323D01CF4209741F012C0C230D10551F0C33033
S11323E0D10551F00BC004EF17E008C004EA17E070
S11323F005C00CE817E002C004E617E0CE5BDC4F32
S1132400C880D12CC114D10471F0C0E0D0E0F8012F
S113241041915191619171918F01C7018EDF219694
S1132420CC15DD05A1F788E597E011D0DF91CF91B8
S11324301F910F91FF90EF90DF90CF90089544EF9C
S113244051E060E070E088E597E02CC00895CF93F8
S1132450DF93EC0188EF97E03BD16C837D838E831F
S11324609F83688379838A839B83DF91CF910895C7
S1132470CF93DF93EC0141E050E060E070E088EF3F
S113248097E03CD188EF97E02CD182E390E0A0E084
S1132490B0E088879987AA87BB87CE01D8DFDF9110
S11324A0CF910895CF92DF92EF92FF92CF93DF9373
S11324B0EC016A017B0141E050E060E070E088EFEC
S11324C097E01CD188EF97E00CD1C886D986EA86BC
S11324D0FB86CE01BCDFDF91CF91FF90EF90DF90C0
S11324E0CF900895FC0140875187628773870895D0
S11324F0CF93DF93EC0188EF97E0EAD06883798388
S11325008A839B83DF91CF910895CF93DF93EC016E
S1132510EFDF288139818C819D81281B390BC9010A
S1132520992324F488279927821B930B092E000CE6
S1132530AA0BBB0B488559856A857B8548175907C3
S11325406A077B0724F4CE0182DF81E001C080E0CA
S1132550DF91CF91089588EF97E0CEC0089510924F
S1132560FD071092FE071092FF071092000807D192
S113257080E0D7C008951F920F920FB60F921124D6
S11325800BB60F922F933F934F935F936F937F9369
S11325908F939F93AF93BF93EF93FF938091FD0726
S11325A09091FE07A091FF07B09100080196A11D2C
S11325B0B11D8093FD079093FE07A093FF07B0938E
S11325C000084091FD075091FE076091FF0770914C
S11325D000088091F9079091FA07A091FB07B09148
S11325E0FC0784179507A607B70708F4B8DFFF911F
S11325F0EF91BF91AF919F918F917F916F915F9177
S11326004F913F912F910F900BBE0F900FBE0F90E3
S11326101F9018951F920F920FB60F9211244F938B
S11326205F936F937F938F939F93AF93BF938091A7
S1132630090890910A08A0910B08B0910C08019622
S1132640A11DB11D8093090890930A08A0930B085B
S1132650B0930C084091090850910A0860910B0846
S113266070910C088091010890910208A0910308D0
S1132670B091040884179507A607B707D8F480918A
S1132680050890910608A0910708B09108080496DF
S1132690A11DB11D8093050890930608A093070817
S11326A0B09308081092090810920A0810920B08B7
S11326B010920C0816BABF91AF919F918F917F91A0
S11326C06F915F914F910F900FBE0F901F901895CF
S11326D06091050870910608809107089091080898
S11326E00895EFE6F0E0808181608083E1E8F0E026
S11326F08081816080830895F4CF0895A0E8BEE3CB
S11327009A01AB0165D52FEF3FEF40E050E026D5AD
S1132710209301083093020840930308509304085F
S11327200895E82F80930D0885B5887F85BD8E2F89
S113273090E08830910510F5FC01E856FF4F30C554
S113274085B585BD089585B5816085BD089585B538
S1132750826085BD089585B5836085BD089585B57E
S1132760846085BD089585B5856085BD089585B56A
S1132770866085BD089585B5876085BD0895EEE6BC
S1132780F0E080818E7F808308951F920F920FB6B0
S11327900F9211240BB60F922F938F939F93EF9365
S11327A0FF938091C0002091C6008C71E0911008C5
S11327B0EF5FEF7190910F08E91739F0E09310087B
S11327C0F0E0EF5EF74F208301C082E090910E08A5
S11327D0892B80930E08FF91EF919F918F912F91F8
S11327E00F900BBE0F900FBE0F901F9018951F9265
S11327F00F920FB60F9211240BB60F928F939F93E3
S1132800EF93FF939091320880913108981769F003
S1132810E0913108EF5FEF71E0933108F0E0ED5C97
S1132820F74F80818093C60005C0E1ECF0E0808121
S11328308F7D8083FF91EF919F918F910F900BBEBD
S11328400F900FBE0F901F9018951092320810929F
S113285031081092100810920F0890789093C500D8
S11328608093C40088E98093C10086E08093C2000D
S113287008959091100880910F089817A9F08091FD
S11328800F088F5F8F71E82FF0E0EF5EF74F208124
S113289080930F0880910E0810920E0890E0982FF4
S11328A08827820F911D089580E091E0089520917A
S11328B032082F5F2F71909131082917E1F3E22F2D
S11328C0F0E0ED5CF74F808320933208E1ECF0E018
S11328D080818062808308951F920F920FB60F92B9
S11328E011240BB60F922F938F939F93EF93FF9323
S11328F08091C8002091CE008C71E0915508EF5F63
S113290090915408E91739F0E0935508F0E0EA5A39
S1132910F74F208301C082E090915308892B809364
S11329205308FF91EF919F918F912F910F900BBEC0
S11329300F900FBE0F901F9018951F920F920FB615
S11329400F9211240BB60F928F939F93EF93FF93E3
S11329509091570980915609981761F0E0915609B2
S1132960EF5FE0935609F0E0E85AF64F80818093D8
S1132970CE0005C0E9ECF0E080818F7D8083FF917B
S1132980EF919F918F910F900BBE0F900FBE0F9000
S11329901F901895109257091092560910925508D5
S11329A01092540890789093CD008093CC0088E9DD
S11329B08093C90086E08093CA00089590915508D9
S11329C0809154089817A1F0809154088F5FE82FE4
S11329D0F0E0EA5AF74F208180935408809153081D
S11329E01092530890E0982F8827820F911D089524
S11329F080E091E00895209157092F5F9091560946
S1132A002917E1F3E22FF0E0E85AF64F8083209390
S1132A105709E9ECF0E080818062808308951F9279
S1132A200F920FB60F9211240BB60F922F938F9320
S1132A309F93EF93FF938091D0002091D6008C71E7
S1132A40E0915A0AEF5FEF719091590AE91739F052
S1132A50E0935A0AF0E0E55AF54F208301C082E082
S1132A609091580A892B8093580AFF91EF919F9176
S1132A708F912F910F900BBE0F900FBE0F901F9050
S1132A8018951F920F920FB60F9211240BB60F9246
S1132A908F939F93EF93FF9390917C0A80917B0A8D
S1132AA0981769F0E0917B0AEF5FEF71E0937B0A7E
S1132AB0F0E0E358F54F80818093D60005C0E1ED46
S1132AC0F0E080818F7D8083FF91EF919F918F91C2
S1132AD00F900BBE0F900FBE0F901F901895109281
S1132AE07C0A10927B0A10925A0A1092590A907822
S1132AF09093D5008093D40088E98093D10086E038
S1132B008093D20060E070E08FEB95E16BD39093FB
S1132B10E60A8093E50A089590915A0A8091590A29
S1132B209817A9F08091590A8F5F8F71E82FF0E010
S1132B30E55AF54F20818093590A8091580A1092E2
S1132B40580A90E0982F8827820F911D089580E0FD
S1132B5091E0089520917C0A2F5F2F7190917B0A58
S1132B602917E1F3E22FF0E0E358F54F8083209337
S1132B707C0AE1EDF0E080818062808308958A30F0
S1132B8011F0E8DF02C08DE0E5DF80E090E0089519
S1132B901F920F920FB60F9211240BB60F922F9320
S1132BA08F939F93EF93FF9380913001209136018F
S1132BB0E091A00AEF5FEF7190919F0AE91741F04D
S1132BC08C71E093A00AF0E0EF55F54F208301C02B
S1132BD082E090919E0A9F3128F490919E0A9F5F13
S1132BE090939E0A90919D0A892B80939D0AFF9150
S1132BF0EF919F918F912F910F900BBE0F900FBE6D
S1132C000F901F9018951F920F920FB60F921124D8
S1132C100BB60F928F939F93EF93FF939091C20AF9
S1132C208091C10A981769F0E091C10AEF5FEF71D2
S1132C30E093C10AF0E0ED53F54F808180933601B3
S1132C4005C0E1E3F1E080818F7D8083FF91EF9106
S1132C509F918F910F900BBE0F900FBE0F901F90FE
S1132C6018951092C20A1092C10A1092A00A1092EA
S1132C709F0A10929E0A90789093350180933401B4
S1132C8088E98093310186E080933201089510929F
S1132C909F0A1092A00A10929E0A089580919E0A9B
S1132CA008959091A00A80919F0A9817F1F080915D
S1132CB09F0A8F5F8F71E82FF0E0EF55F54F208169
S1132CC080939F0A80919E0A882329F080919E0A0E
S1132CD0815080939E0A80919D0A10929D0A90E0F3
S1132CE0982F8827820F911D089580E091E0089520
S1132CF02091C20A2F5F2F719091C10A2917E1F325
S1132D00E22FF0E0ED53F54F80832093C20AE1E314
S1132D10F1E080818062808308955058BB27AA2700
S1132D200ED070C161D130F066D120F031F49F3FF4
S1132D3011F41EF456C10EF4E095E7FB4CC1E92FE3
S1132D4072D180F3BA17620773078407950718F0E6
S1132D5071F49EF58AC10EF4E0950B2EBA2FA02DC6
S1132D600B01B90190010C01CA01A0011124FF2734
S1132D70591B99F0593F50F4503E68F11A16F0402F
S1132D80A22F232F342F4427585FF3CF469537952E
S1132D902795A795F0405395C9F77EF41F16BA0BF3
S1132DA0620B730B840BBAF09150A1F0FF0FBB1FA1
S1132DB0661F771F881FC2F70EC0BA0F621F731FEA
S1132DC0841F48F4879577956795B795F7959E3F47
S1132DD008F0B3CF9395880F08F09927EE0F9795D5
S1132DE087950895D4D008F481E008950CD00AC1E1
S1132DF002D140F0F9D030F021F45F3F19F0EBC07C
S1132E00511134C1EEC00FD198F39923C9F355235E
S1132E10B1F3951B550BBB27AA27621773078407C9
S1132E2038F09F5F5F4F220F331F441FAA1FA9F37F
S1132E3033D00E2E3AF0E0E830D091505040E69571
S1132E40001CCAF729D0FE2F27D0660F771F881FD2
S1132E50BB1F261737074807AB07B0E809F0BB0BC1
S1132E60802DBF01FF2793585F4F2AF09E3F5105E5
S1132E7068F0B1C0FBC05F3FECF3983EDCF386958D
S1132E8077956795B795F7959F5FC9F7880F911D5B
S1132E909695879597F90895E1E0660F771F881F47
S1132EA0BB1F621773078407BA0720F0621B730BFA
S1132EB0840BBA0BEE1F88F7E0950895BCD088F018
S1132EC09F5790F0B92F9927B751A0F0D1F0660F12
S1132ED0771F881F991F1AF0BA95C9F712C0B1302D
S1132EE081F0C3D0B1E00895C0C0672F782F882740
S1132EF0B85F39F0B93FCCF3869577956795B3956C
S1132F00D9F73EF490958095709561957F4F8F4FDA
S1132F109F4F0895E89409C097FB3EF490958095DF
S1132F20709561957F4F8F4F9F4F9923A9F0F92F8B
S1132F3096E9BB279395F695879577956795B79509
S1132F40F111F8CFFAF4BB0F11F460FF1BC06F5FEF
S1132F507F4F8F4F9F4F16C0882311F096E911C001
S1132F60772321F09EE8872F762F05C0662371F022
S1132F7096E8862F70E060E02AF09A95660F771F36
S1132F80881FDAF7880F9695879597F90895990F12
S1132F900008550FAA0BE0E8FEEF16161706E8071F
S1132FA0F907C0F012161306E407F50798F0621B40
S1132FB0730B840B950B39F40A2661F0232B242B15
S1132FC0252B21F408950A2609F4A140A6958FEF34
S1132FD0811D811D089597F99F6780E870E060E086
S1132FE008959FEF80EC089500240A94161617069E
S1132FF018060906089500240A94121613061406E6
S113300005060895092E0394000C11F4882352F048
S1133010BB0F40F4BF2B11F460FF04C06F5F7F4F00
S11330208F4F9F4F089557FD9058440F551F59F0E7
S11330305F3F71F04795880F97FB991F61F09F3FA1
S113304079F087950895121613061406551FF2CFCA
S11330504695F1DF08C0161617061806991FF1CF1A
S113306086957105610508940895E894BB27662741
S11330707727CB0197F908950BD0C4CFB5DF28F09B
S1133080BADF18F0952309F0A6CFABCF1124EECF09
S1133090CADFA0F3959FD1F3950F50E0551F629FAF
S11330A0F001729FBB27F00DB11D639FAA27F00D9D
S11330B0B11DAA1F649F6627B00DA11D661F829FC4
S11330C02227B00DA11D621F739FB00DA11D621FA9
S11330D0839FA00D611D221F749F3327A00D611DC6
S11330E0231F849F600D211D822F762F6A2F1124A8
S11330F09F5750408AF0E1F088234AF0EE0FFF1FFB
S1133100BB1F661F771F881F91505040A9F79E3F31
S1133110510570F060CFAACF5F3FECF3983EDCF32B
S1133120869577956795B795F795E7959F5FC1F76E
S1133130FE2B880F911D9695879597F90895DB01CD
S11331408F939F9345D0BF91AF91A29F800D911D06
S1133150A39F900DB29F900D11240895A1E21A2E01
S1133160AA1BBB1BFD010DC0AA1FBB1FEE1FFF1F27
S1133170A217B307E407F50720F0A21BB30BE40B77
S1133180F50B661F771F881F991F1A9469F76095BE
S11331907095809590959B01AC01BD01CF01089578
S11331A0EE0FFF1F0024001C0BBE0790F691E02DCC
S11331B00994A29FB001B39FC001A39F700D811D0C
S11331C01124911DB29F700D811D1124911D08952C
S11331D0F0DFA59F900DB49F900DA49F800D911DCD
S11331E0112408950F931F93CF93DF93009731F425
S11331F06115710519F480E090E039C08B01EC0190
S11332006EE070E081E090E0A5D2FC01892B99F397
S113321080E883830115110571F01387028781E823
S113322083838091E30A9091E40A892B21F4F0933B
S1133230E40AE093E30A2097C9F0D187C087838129
S1133240826083838091E50A9091E60A892B71F468
S1133250F093E60AE093E50A8091E70A9091E80A80
S1133260892B21F4F093E80AE093E70ACF01DF9178
S1133270CF911F910F910895CF93DF93CDB7DEB710
S1133280AE014B5F5F4FFA0161917191AF01809183
S1133290E50A9091E60A61D0DF91CF9108950F93EA
S11332A01F93CF93DF93E091E50AF091E60A23811F
S11332B021FF1BC08C01D0E0C0E0F80181918F0197
S11332C06091E50A7091E60ADB011896ED91FC9194
S11332D01997882331F00995892B79F3DFEFCFEF24
S11332E0ECCF8AE00995892B19F08FEF9FEF02C08C
S11332F08D2F9C2FDF91CF911F910F9108950F93E4
S11333001F93CF93DF93CDB7DEB72E970FB6F89404
S1133310DEBF0FBECDBF0D891E8986E08C831A8364
S113332009838FEF9FE79E838D83AE01475E5F4FD6
S11333306F89788DCE01019610D0EF81F885E00F6A
S1133340F11F10822E960FB6F894DEBF0FBECDBFCC
S1133350DF91CF911F910F9108952F923F924F9239
S11333605F926F927F928F929F92AF92BF92CF9211
S1133370DF92EF92FF920F931F93CF93DF93CDB71A
S1133380DEB72B970FB6F894DEBF0FBECDBF6C012E
S11333907B018A01FC0117821682838181FFBFC1F0
S11333A0CE0101963C01F6019381F70193FD8591CD
S11333B093FF81917F01882309F4ADC1853239F4EB
S11333C093FD859193FF81917F01853221F4B601AC
S11333D090E018D3E8CF912C212C312CFFE1F31588
S11333E0D8F08B3279F038F4803279F08332A1F45A
S11333F0232D20611DC08D3261F0803369F4232DAB
S1133400216016C0832D8260382EE32DE4603E2EA9
S11334102AC0F32DF8601DC037FC2DC020ED280F05
S11334202A3040F08E32B9F436FC75C1232D206465
S1133430322E19C036FE06C08AE0989E200D112453
S1133440922E11C0EAE02E9E200D1124222EF32D7F
S1133450F0623F2E08C08C3621F4832D8068382E0C
S113346002C0883641F4F70193FD859193FF819161
S11334707F018111B3CF982F9F7D9554933028F409
S11334800C5F1F4F9FE399830DC0833631F0833760
S113349071F0833509F055C020C0F801808189831B
S11334A00E5F1F4F88248394912C530112C028016E
S11334B0F2E04F0E511CF801A080B18036FE03C02B
S11334C0692D70E002C06FEF7FEFC50190D24C010F
S11334D08201F32DFF773F2E15C0280122E0420E12
S11334E0511CF801A080B18036FE03C0692D70E044
S11334F002C06FEF7FEFC50168D24C01F32DF06875
S11335003F2E820133FC19C0822D90E08816990663
S1133510A0F4B60180E290E075D22A94F5CFF501CB
S113352037FC859137FE81915F01B60190E06AD244
S113353021102A9421E0821A91088114910479F7C8
S1133540E1C0843611F0893639F5F80137FE07C039
S113355060817181828193810C5F1F4F08C06081FB
S11335607181072E000C880B990B0E5F1F4FF32DF2
S1133570FF763F2E97FF09C09095809570956195D1
S11335807F4F8F4F9F4FF0683F2E2AE030E0A3011A
S113359075D2882E861844C0853731F4232D2F7EAA
S11335A0B22E2AE030E025C0932D997FB92E8F36B4
S11335B0C1F018F4883579F0AEC0803719F0883737
S11335C021F0A9C0E92FE061BE2EB4FE0DC0FB2D91
S11335D0F460BF2E09C034FE0AC0292F2660B22E23
S11335E006C028E030E005C020E130E002C020E160
S11335F032E0F801B7FE07C0608171818281938156
S11336000C5F1F4F06C06081718180E090E00E5F07
S11336101F4FA30133D2882E8618FB2DFF773F2E30
S113362036FE0DC0232D2E7FA22E891458F434FEAD
S11336300BC032FC09C0832D8E7EA82E05C0B82C89
S1133640A32C03C0B82C01C0B92CA4FE0FC0FE01EA
S1133650E80DF11D8081803321F49A2D997EA92EE5
S113366009C0A2FE06C0B394B39404C08A2D867820
S113367009F0B394A3FC10C0A0FE06C0B21480F4F9
S1133680280C922C9B180DC0B21458F4B60180E299
S113369090E0B8D1B394F8CFB21418F42B1802C048
S11336A0982C212CA4FE0FC0B60180E390E0AAD18F
S11336B0A2FE16C0A1FC03C088E790E002C088E522
S11336C090E0B6010CC08A2D867851F0A1FE02C0AC
S11336D08BE201C080E2A7FC8DE2B60190E092D1BA
S11336E0891430F4B60180E390E08CD19A94F8CF39
S11336F08A94F301E80DF11D8081B60190E082D136
S11337008110F6CF222009F44ECEB60180E290E07B
S113371079D12A94F7CFF6018681978102C08FEF81
S11337209FEF2B960FB6F894DEBF0FBECDBFDF918F
S1133730CF911F910F91FF90EF90DF90CF90BF90AA
S1133740AF909F908F907F906F905F904F903F903D
S11337502F9008950F931F93CF93DF93869F80013B
S1133760879F100D969F100D1124C8010DD0EC01F8
S1133770009721F0A80160E070E032D1CE01DF9122
S1133780CF911F910F9108950F931F93CF93DF93C0
S11337908230910510F482E090E0E091EB0AF09120
S11337A0EC0A20E030E0A0E0B0E0309719F140816D
S11337B051810281138148175907C8F0841795076E
S11337C069F4109731F012960C93129713961C9388
S11337D027C00093EB0A1093EC0A22C0211531058F
S11337E019F04217530718F49A01BD01EF01DF01E4
S11337F0F801DBCF21153105F9F0281B390B2430F2
S1133800310580F48A819B816115710521F0FB01EA
S11338109383828304C09093EC0A8093EB0AFE01A5
S1133820329644C0FE01E20FF31F8193919322501C
S11338303109398328833AC02091E90A3091EA0A90
S1133840232B41F420910202309103023093EA0ABF
S11338502093E90A209100023091010221153105DB
S113386041F42DB73EB74091040250910502241B48
S1133870350BE091E90AF091EA0AE217F307A0F4A4
S11338802E1B3F0B2817390778F0AC014E5F5F4FB2
S11338902417350748F04E0F5F1F5093EA0A4093F0
S11338A0E90A8193919302C0E0E0F0E0CF01DF9157
S11338B0CF911F910F910895CF93DF93009709F44F
S11338C081C0FC01329713821282A091EB0AB0915D
S11338D0EC0A109781F420813181820F931F20918B
S11338E0E90A3091EA0A2817390751F5F093EA0AF0
S11338F0E093E90A67C0ED0120E030E0CE17DF076E
S113390040F44A815B819E0141155105F1F0EA01C1
S1133910F5CFD383C28340815181840F951FC8178B
S1133920D90759F488819981840F951F0296918350
S113393080838A819B81938382832115310529F4B5
S1133940F093EC0AE093EB0A3DC0E901FB83EA83C0
S113395049915991C40FD51FEC17FD0761F480817B
S11339609181840F951F0296E9019983888382814E
S113397093819B838A83E0E0F0E012968D919C9181
S11339801397009719F0FD01DC01F7CF8D919C91FD
S113399011979D012E5F3F4F820F931F2091E90ADB
S11339A03091EA0A2817390769F4309729F41092FC
S11339B0EC0A1092EB0A02C013821282B093EA0A54
S11339C0A093E90ADF91CF910895FC01059061501D
S11339D070400110D8F7809590958E0F9F1F089521
S11339E0DC0101C06D9341505040E0F70895FC01A3
S11339F06150704001900110D8F7809590958E0F1A
S1133A009F1F08950F931F93CF93DF93FB0123818F
S1133A1021FD03C08FEF9FEF2CC022FF16C046810B
S1133A205781248135814217530744F4A081B18121
S1133A309D012F5F3F4F318320838C9326813781F3
S1133A402F5F3F4F3783268314C08B01EC01FB01AA
S1133A500084F185E02D0995892BE1F6D8011696AD
S1133A608D919C911797019617969C938E93169718
S1133A70CE01DF91CF911F910F910895FA01AA27EA
S1133A80283051F1203181F1E8946F936E7F6E5F9D
S1133A907F4F8F4F9F4FAF4FB1E03ED0B4E03CD04B
S1133AA0670F781F891F9A1FA11D680F791F8A1F2E
S1133AB0911DA11D6A0F711D811D911DA11D20D095
S1133AC009F468943F912AE0269F11243019305D4F
S1133AD03193DEF6CF010895462F4770405D419340
S1133AE0B3E00FD0C9F7F6CF462F4F70405D4A338D
S1133AF018F0495D31FD4052419302D0A9F7EACF55
S1133B00B4E0A6959795879577956795BA95C9F783
S1133B1000976105710508959B01AC010A2E069476
S1133B205795479537952795BA95C9F7620F731F2F
S10F3B30841F951FA01D0895F894FFCF7A
S1133B3C0000ED0A200000000100080009000B0041
S1133B4C0D000F000E000700060004000200030025
S1133B5C0A000C000500030005000A000C0000001C
S1133B6C01000200040006000700080009000B0015
S1133B7C0D000E000F00557054696D653A20002538
S1133B8C64002020202020004E41534120526F62BB
S1133B9C6F7469637300436F6E74726F6C20426F41
S1133BAC783A2056322E3300636F707925643A20AC
S1133BBC25640A005072696E7456616C3A2025644F
S1133BCC0A00000000001A0AA509A609A809A709F9
S1133BDC00000000D80BE10AF50AA809B70B7772AC
S1133BEC69746525643A2025640A003F065B4F66B8
S1133BFC6D7D077F6F777C395E7971536372656570
S1133C0C6E205541525420494E49543A2025642083
S1133C1C0A0072657175657374696E67210061764B
S1133C2C61696C61626C653A2025640A0054797090
S1133C3C653A2025640A496E6465783A2025640A3D
S1133C4C004661696C3A21210D004661696C65641A
S1133C5C2053656E64696E672053637265656E20CC
S1133C6C4D65737361676500466F726D3A20256408
S1093C7C0A000114060A0F
S9030000FC
