:10000000AEC00000D6C00000D4C00000D2C00000C6
:10001000D0C00000CEC00000CCC00000CAC00000AC
:10002000C8C00000C6C00000C4C00000C2C00000BC
:10003000C0C00000BEC00000BCC00000BAC00000CC
:10004000B8C00000B6C00000B4C00000B2C00000DC
:100050000C943810AEC00000ACC000000C94E90F46
:10006000A8C000000C94F3100C942511A2C000004D
:10007000A0C000009FC000009CC000009AC000000B
:1000800098C0000096C0000094C0000092C000001C
:100090000C9453110C9484118CC000008AC0000091
:1000A00088C0000086C0000084C0000082C000003C
:1000B00080C000007EC000007CC000007AC000004C
:1000C00078C0000076C0000074C000000C94F611E7
:1000D0000C9428126EC000000C9456120C948812D6
:1000E00068C00000BD079C079F07A207A507A807D7
:1000F000AB07AE07B107B407B707EA07C907CC07D4
:10010000CF07D207D507D807DB07DE07E107E407EB
:10011000690848084B084E085108540857085A08FF
:100120005D0860086308B70BBC0BBF0BC30BC60BA5
:10013000DA0BD10BD40B450C4A0C4D0C510C600C56
:10014000540C570C5A0CCE10D110D510D910DD100C
:10015000E110E510E9107B06A80AB70AD90F1124AF
:100160001FBECFEFD1E2DEBFCDBF12E0A0E0B2E014
:10017000E8E6F9E200E00BBF02C007900D92AC3157
:10018000B107D9F729E0ACE1B2E001C01D92A0317E
:10019000B207E1F710E0CFEAD0E004C02197FE01FA
:1001A0000E948A14CB3AD107C9F70E947F0E0C94A3
:1001B000B21426CF1F920F920FB60F9211248F9375
:1001C00081E080931C028F910F900FBE0F901F90C3
:1001D0001895ECE7F0E08081806480830895CF93E8
:1001E000DF93EC01ECE7F0E09081907E9083ABE749
:1001F000B0E09C91977F9C9390818881892B80832C
:10020000DF91CF910895EAE7F0E0808187608083F5
:100210000895EAE7F0E08081806880830895CF93B5
:10022000DF93EC0178946883D4DFEEE7F0E080811F
:100230008FEF8083CE01E7DFCE01EBDFDF91CF913F
:10024000089510921C02EAE7F0E0808188608083C4
:100250008081806480830895CF93DF93EC01BFDFBA
:10026000CE01EFDF80911C028823E1F3209178001A
:100270008091790090E0982F8827820F911DDF915F
:10028000CF910895FC015183408388E090E00E9463
:10029000B11144E650E060E070E08EE492E00E942C
:1002A000540F4CE251E060E070E082E492E00E9482
:1002B000540F40ED57E060E070E086E392E00E946A
:1002C000540F42EF53E060E070E08AE292E00C9459
:1002D000540F089580E00E94DA0EBC0184E00E9471
:1002E000C00E60E070E080E00E94C00E84E00E94DA
:1002F000DA0E892B99F08AE292E00E948D0F882312
:1003000049F08AE00E94DA0EBC016F5F7F4F8AE0FD
:100310000E94C00E86E392E00E94EC0E86E392E01B
:100320000E94B30F882349F08AE292E00E94EC0E0B
:1003300060E070E08AE00C94C00E089580E30E94B3
:10034000DA0E21E0892B09F420E0822F0895CF9363
:10035000C0E080E48C0F0E94DA0E892B19F081E056
:100360008C0F04C0CF5FC031A1F78FEFCF910895FC
:10037000CF92DF92EF92FF920F931F93CF93DF9371
:10038000EB018A0185E20E94DA0E25E530E0DC010E
:100390000E94A2146B017C01992334F42FEFC20E4A
:1003A00023E0D21EE11CF11CD701C601072E7AE022
:1003B000B595A795979587957A95D1F7702D6C018E
:1003C0007D012FE0C20ED11CE11CF11C85E30E94CF
:1003D000DA0E892B31F0D194C194D1083C2D2D2D0A
:1003E0000AC084E30E94DA0E892B19F03C2D2D2DD2
:1003F00002C020E030E0D801EC9181E08E0F8C93B8
:10040000F0E0CF01880F991FE80FF91FEC0FFD1FD7
:1004100084E0808331832283DF91CF911F910F91FC
:10042000FF90EF90DF90CF9008950F931F93CF939D
:10043000DF938B01EA0181E30E94DA0E892B91F4AC
:1004400087E30E94DA0E892B81F482E30E94DA0EA0
:10045000892B71F488E30E94DA0E892B61F080E029
:1004600094E60BC08FEF9CE908C08FEF9CE905C0B4
:1004700080E094E602C080E090E0E88121E02E0F69
:100480002883F0E09F01220F331FE20FF31FE00FDC
:10049000F11F25E0208391838283DF91CF911F910B
:1004A0000F9108952F923F924F925F926F927F9299
:1004B0008F929F92AF92BF92CF92DF92EF92FF9274
:1004C0000F931F93CF93DF9300D000D000D0CDB710
:1004D000DEB78B015E834D8380E20E94DA0E6C01F1
:1004E00081E20E94DA0E7C0185E20E94DA0E25E5A7
:1004F00030E0DC010E94A21428EE33E040E050E03E
:100500000E946E1429013A018FE0480E511C611CB3
:10051000711C9701ADECBCEC0E94931496958795E5
:1005200096958795BC0164567109072E000C880BBF
:10053000990B0E944E134B015C019601ADECBCEC93
:100540000E9493149695879596958795BC0164565D
:100550007109072E000C880B990B0E944E1320E0A6
:1005600030E040E05FE30E94DA136B017C019B0105
:10057000AC01C501B4010E94B7120E941B1369832C
:100580007A838B839C83A7019601C501B4010E94E5
:10059000B6120E941B1329813A812C39EFEF3E07D6
:1005A00014F42CE93FEF1B016C397F4F34F40F2E0C
:1005B000FCE92F2E33243A94F02D882499248418B2
:1005C0009508092C000CAA08BB08052C000C66082D
:1005D0007708481859086A087B082536310514F051
:1005E00024E630E0C901330FAA0BBB0B9C01AD011F
:1005F0002C593F4F4F4F5F4FC301B2010E943D1432
:1006000028EC30E040E050E00E946E1469017A016D
:10061000C80CD91CEA1CFB1CDA82C9829101253660
:10062000310514F024E630E0C901330FAA0BBB0BEF
:100630009C01AD012C593F4F4F4F5F4FC301B20199
:100640000E943D1428EC30E040E050E00E946E141F
:10065000820E931EA41EB51EC40129813A81332344
:100660005CF49601DD2024F4222733272C193D0960
:10067000CC24DD24C21AD30A99235CF49401992076
:1006800024F4222733272819390988249924821A27
:10069000930AED81FE81808190E0FC01EE0FFF1F47
:1006A0008E0F9F1FF801E80FF91F81E08083ED8115
:1006B000FE81808190E0FC01EE0FFF1F8E0F9F1FD7
:1006C000F801E80FF91FC182ED81FE81808190E081
:1006D000FC01EE0FFF1F8E0F9F1FF801E80FF91F9F
:1006E000D282ED81FE8180818F5F808390E0FC016A
:1006F000EE0FFF1F8E0F9F1FF801E80FF91F82E01A
:100700008083ED81FE81808190E0FC01EE0FFF1F70
:100710008E0F9F1FF801E80FF91F8182ED81FE8186
:10072000808190E09C01220F331F820F931FF801FC
:10073000E80FF91F9282ED81FE8180818F5F8083B7
:1007400026960FB6F894DEBF0FBECDBFDF91CF91D6
:100750001F910F91FF90EF90DF90CF90BF90AF90DF
:100760009F908F907F906F905F904F903F902F90D1
:1007700008958F929F92AF92BF92CF92DF92EF92A5
:10078000FF920F931F93CF93DF938B01EA0183E2D4
:100790000E94DA0E9C01ADECBCEC0E94931496957D
:1007A0008795969587957C0124E6E21AF10884E204
:1007B0000E94DA0E25E530E0DC010E94A21428EE4A
:1007C00033E040E050E00E946E1449015A018FE08E
:1007D000880E911CA11CB11CC7012CE9E2162FEF59
:1007E000F20614F48CE99FEFCC24DD24C818D90854
:1007F0000D2C000CEE08FF089C018536910514F0C5
:1008000024E630E0C901330FAA0BBB0B9C01AD01FC
:100810002C593F4F4F4F5F4FC401990CAA0BBB0B94
:10082000BC01CD016C197D098E099F090E943D1400
:1008300028EC30E040E050E00E946E14C20ED31E5F
:10084000E41EF51E888190E0FC01EE0FFF1F8E0F65
:100850009F1FF801E80FF91F83E08083888190E0F3
:10086000FC01EE0FFF1F8E0F9F1FF801E80FF91F0D
:10087000C182888190E09C01220F331F820F931F59
:10088000F801E80FF91FD28288818F5F8883DF919A
:10089000CF911F910F91FF90EF90DF90CF90BF907D
:1008A000AF909F908F900895FF920F931F93CF93D7
:1008B000DF9300D01F92CDB7DEB7442361F1A62F9E
:1008C000B72FF12C20E08E010C5F1F4F7CE88C913C
:1008D000898311968C9111978A8312968C91129725
:1008E0008B83FE013196519138E0622F6527822F6C
:1008F00090E095958795282F60FF02C0272F282725
:100900005695315091F7E017F10769F7F394139674
:100910004F11DDCF01C020E0822F0F900F900F907C
:10092000DF91CF911F910F91FF900895DF92EF9289
:10093000FF920F931F93CF93DF937B01142FB4DFAC
:10094000D82E86E00E94E21185E80E94E21184E040
:100950000E94E21181E00E94E211812F880F810F35
:100960000E94E2111123C1F0E701412F50E08A01FA
:10097000000F111F400F511F8701040F151F8881A1
:100980000E94E21189810E94E2118A810E94E21193
:100990002396C017D10799F78D2D0E94E211DF91A0
:1009A000CF911F910F91FF90EF90DF9008950F93DB
:1009B0001F93CF93DF931F92CDB7DEB78C0182E4F4
:1009C00092E00E94670F882351F0198281E08A83A8
:1009D0001B8241E0BE016F5F7F4FC801A7DF0F9010
:1009E000DF91CF911F910F9108950F931F93CF9394
:1009F000DF93CDB7DEB760970FB6F894DEBF0FBEBA
:100A0000CDBF8C01188AAE01405F5F4FBE016F5FA2
:100A10007F4F48DDAE01405F5F4FBE016F5F7F4F8C
:100A2000C801A7DEAE01405F5F4FBE016F5F7F4F21
:100A3000C8019EDCAE01405F5F4FBE016F5F7F4F1C
:100A4000C801F3DC45E0BE016F5F7F4FC8016EDF78
:100A500060960FB6F894DEBF0FBECDBFDF91CF9189
:100A60001F910F910895CF92DF92EF92FF920F9313
:100A70001F93CF93DF9300D01F92CDB7DEB76C01E9
:100A80007C018BE9E80EF11CC701A4D1C70102D299
:100A90008823D1F0C70115D2082F882391F010E0E8
:100AA00082E0C80ED11C612FC701ADD169837A8362
:100AB0008B83BE016F5F7F4FC6013BD11F5F011368
:100AC000F2CFC7019DD106C0C70192D1882311F092
:100AD000C70196D10F900F900F90DF91CF911F918A
:100AE0000F91FF90EF90DF90CF900895CF93DF9319
:100AF000EC010E94C5119C012227232B49F4682F89
:100B0000CE01B1DF0E94C5119C012227232BB9F32E
:100B1000DF91CF910895DF92EF92FF920F931F9391
:100B2000CF93DF937C01E2DF82E0E80EF11CC70186
:100B30004BD1882301F1C70127D1162FD72EC82FFB
:100B4000862F0E94E70E882391F3D0E0DC2FCC277C
:100B5000CD0DD11D113051F4209741F481E00E9458
:100B6000DA0E60E070E0815C0E94C00EBE01812F51
:100B70000E94C00EDCCFDF91CF911F910F91FF90AB
:100B8000EF90DF9008950F931F93CF93DF93CDB72E
:100B9000DEB765970FB6F894DEBF0FBECDBF8C01F0
:100BA00081E089831A821B8282E08C831D821E82EF
:100BB00083E08F831886198684E08A871B861C86CB
:100BC00085E08D871E861F8688E0888B198A1A8AA1
:100BD00089E08B8B1C8A1D8A47E0BE016F5F7F4FC7
:100BE000C801A4DEC80197DF65960FB6F894DEBF92
:100BF0000FBECDBFDF91CF911F910F9108950F933D
:100C00001F93CF93DF9300D000D000D0CDB7DEB7D5
:100C10008C0188E089836A831B8289E08C831D8232
:100C20001E82C80182539F4F0E94EC0E42E0BE011B
:100C30006F5F7F4FC8017ADEC8016DDF26960FB661
:100C4000F894DEBF0FBECDBFDF91CF911F910F9102
:100C500008950F931F93CF93DF938C015CDFC8013E
:100C6000A6DEC8016BDB811104C080911D028823C0
:100C7000B1F0C80188DF81E00E94DA0E892B21F0F3
:100C800081E080931D0232C0C0E460E070E08C2FF0
:100C90000E94C00ECF5FC035C1F710921D0281E0E7
:100CA0000E94DA0E892B11F58EE192E00E94670F07
:100CB000882311F0C80199DEC80149DBC82F880FCD
:100CC000DD0BCF3F8FEFD80789F081E00E94DA0E6D
:100CD000C817D90759F08EE492E00E94670F882365
:100CE00029F0C80134DB682FC80189DFDF91CF917B
:100CF0001F910F9108958EE492E00E94FD0E82E410
:100D000092E00E94FD0E86E392E00E94FD0E8AE2D0
:100D100092E00E94FD0E44E650E060E070E08EE15B
:100D200092E00C94170F0895FC0110821182128238
:100D30000895CF93DF93DC0111962C91119781E0F8
:100D4000820F11968C93119730E02F5F3F4FF9017E
:100D5000EE0FFF1F2E0F3F1FFD01E20FF31FEB01F0
:100D6000288139814A81208331834283823318F07C
:100D700011961C92119712968C9112978F5F129672
:100D80008C93DF91CF910895DC019C9181E0890FD4
:100D9000292F30E0823310F48C9301C01C921296FC
:100DA0008C911297815012968C9312972F5F3F4F20
:100DB000F901EE0FFF1F2E0F3F1FFD01E20FF31F82
:100DC0006081718182810895FC0182810895FC0116
:100DD00012AA0895FC0122A9211102C0663039F43B
:100DE00031E0320FFC0132ABE20FF11D6083089558
:100DF00021E0FC0182A9823308F420E0822F0895CB
:100E0000FC0112AA0895262F220F620F6B5FFC01CE
:100E1000E60FF11D7181608182810895EF92FF924A
:100E20000F931F93CF93DF937C01FC01C2A90C2F7A
:100E300010E00150110906301105ECF0DC011596A7
:100E4000E801C80FD91F90E0ECE86D9148E050E050
:100E5000792F7627292F30E035952795922F70FF2F
:100E600002C09E2F922766954150510989F7CA17F3
:100E7000DB0759F701C090E0F701E00FF11F81E0B7
:100E80002081291380E0DF91CF911F910F91FF9076
:100E9000EF900895FC0122A9263068F032813130AC
:100EA00061F4448150E04A5F5F4F30E042175307DE
:100EB00031F4B4CF089580E0089580E0089580E093
:100EC0000895CF93DF93EC01E5DF882339F08C811F
:100ED0009BEA899F812D1124869501C080E0DF91D6
:100EE000CF910895CF93DF93EC0178943AD7BE0168
:100EF000CE0185529F4F9AD2AE0161E070E0CE01E3
:100F00000196C0D9DF91CF910895EC0121968C0113
:100F100005521F4FCE01DED9C80109D3CE0199DE9B
:100F2000CE01F9DDF7CF90E08B30910518F5FC018B
:100F3000EE58FF4F0C948A1484E290E0089587E203
:100F400090E008958AE290E008958DE290E008959F
:100F500080E390E0089583E390E0089581E091E0DC
:100F6000089584E091E0089587E091E008958AE093
:100F700091E008958AE592E0089581E290E0089575
:100F800090E08B30910518F5FC01E358FF4F0C946D
:100F90008A1485E290E0089588E290E008958BE25B
:100FA00090E008958EE290E0089581E390E0089546
:100FB00084E390E0089582E091E0089585E091E077
:100FC000089588E091E008958BE091E008958AE526
:100FD00092E0089582E290E008950F931F93CF93DB
:100FE000DF93FC01C62FD42F60834183228321111C
:100FF00016C0862F98DFFC01908121E030E002C00E
:10100000220F331FDA95E2F7D22FD0959D239083DC
:101010008C2FB6DFFC0120812D23208325C02230B8
:10102000B1F4862F80DFFC01908101E010E002C066
:10103000000F111FDA95E2F7802F80959823908397
:101040008C2F9EDFFC012081022B00830DC0862F98
:101050006ADFFC01408121E030E002C0220F331F33
:10106000DA95E2F7242B2083DF91CF911F910F9126
:101070000895DC0111962C911197EC918E2F90E040
:101080008B30910518F5FC01E857FF4F0C948A143A
:10109000E3E2F0E020C0E6E2F0E01DC0E9E2F0E0CB
:1010A0001AC0ECE2F0E017C0EFE2F0E014C0E2E3B7
:1010B000F0E011C0E0E0F1E00EC0E3E0F1E00BC0D1
:1010C000E6E0F1E008C0E9E0F1E005C0EAE5F2E0C1
:1010D00002C0E0E2F0E0808190E002C09595879543
:1010E0002A95E2F781700895C4DF91E08927089579
:1010F000FC016193CF0178C20895EF92FF920F93A4
:101100001F93CF93DF9300D0CDB7DEB7E62EF42E3A
:101110008C010F5F1F4FFC016081C80165D2E9821D
:10112000FA8242E0BE016F5F7F4FC801E1D20F90AB
:101130000F90DF91CF911F910F91FF90EF90089545
:101140000F931F93CF93DF9300D0CDB7DEB76A83A1
:101150008C010F5F1F4FFC016081C80145D241E047
:10116000BE016E5F7F4FC801C3D241E0BE016F5F19
:101170007F4FC8015DD389810F900F90DF91CF9190
:101180001F910F910895CF93DF93EC0188818823FD
:1011900011F063E101C062E18B819C81D1DF90E0BD
:1011A000098002C0959587950A94E2F78170DF91D6
:1011B000CF9108951F93CF93DF93EC016A8311E0E1
:1011C0008881811101C010E0611112C0612F8B81F3
:1011D0009C81B6DF41E050E0098002C0440F551FFA
:1011E0000A94E2F7482B612F8B819C8186DF12C025
:1011F000612F8B819C81A4DF41E050E0098002C017
:10120000440F551F0A94E2F740954823612F8B81C4
:101210009C8173DFDF91CF911F9108950F93FC01A3
:101220007483638340832183602FC4DF0F9108950B
:10123000CF93DF93EC0160E202965ADF67E2CE01C2
:10124000429656DFDF91CF910895EF92FF920F9370
:10125000CF93DF93EC017C0182E0E80EF11C00E00B
:1012600020E040E0B701CE018296D8DF22E040E0E6
:10127000B701CE018796D2DF24E040E0B701CE016E
:101280008C96CCDF26E040E0B701CE01C196C6DFE8
:1012900020E041E0B701CE01C696C0DF22E041E088
:1012A000B701CE01CB96BADF24E041E0B701CE0111
:1012B000805C9F4FB3DF26E041E0B701CE018B5B3E
:1012C0009F4FACDF7E0182E1E80EF11C20E040E0A0
:1012D000B701CE01865B9F4FA1DF22E040E0B7015E
:1012E000CE01815B9F4F9ADF24E040E0B701CE0141
:1012F0008C5A9F4F93DF26E040E0B701CE01875A1A
:101300009F4F8CDF20E041E0B701CE01825A9F4F12
:1013100085DF22E041E0B701CE018D599F4F7EDF8E
:1013200024E041E0B701CE0188599F4F77DF26E0E6
:1013300041E0B701CE0183599F4F70DFDF91CF911C
:101340000F91FF90EF900895CF93DF93EC0122E08F
:1013500042E069E08E589F4F40DE22E046E061E0C7
:10136000CE018B589F4F39DE22E044E061E0CE0190
:1013700088589F4F32DE22E040E061E0CE01855880
:101380009F4F2BDE22E044E064E0CE0182589F4F65
:1013900024DE22E045E061E0CE018F579F4F1DDE45
:1013A00022E046E064E0CE018C579F4F16DE22E03B
:1013B00047E064E0CE0189579F4F0FDE22E045E011
:1013C00064E0CE0186579F4F08DEDF91CF910895EC
:1013D000CF93DF93EC0160E082579F4F0E940F0193
:1013E00061E0CE0183579F4F0E940F0166E0CE015E
:1013F00081579F4F0E940F0167E0CE0180579F4F9A
:101400000E940F01DF91CF910895CF93DF93EC01FC
:1014100062E08F569F4F0E940F0165E0CE018E560D
:101420009F4F0E940F01DF91CF9108950F931F935B
:10143000CF93DF93EC018B0144E650E060E070E075
:101440008BE592E031D519830883CE01F1DECE0120
:10145000FCDECE0179DFCE01BBDFCE01D6DFDF912E
:10146000CF911F910F9108950F931F93CF938C01EC
:101470000E581F4FC0E3C80137DE682F70E08C2F75
:101480007FD40D5F1F4FCF5FC933A9F7CF911F9155
:101490000F9108950F931F93CF938C010E5D1F4FF3
:1014A000C0E4C80170DE811104C061E070E08C2FDF
:1014B00067D40B5F1F4FCF5FC03599F7CF911F9156
:1014C0000F910895CF93DF93EC0183579F4F0E94B4
:1014D0002C01BC0180E254D4CE0182579F4F0E9460
:1014E0002C01BC0181E24CD4CE0181579F4F0E9458
:1014F0002C01BC0182E244D4CE0180579F4F0E9450
:101500002C01BC0183E23CD4CE018F569F4F0E9438
:101510002C01BC0184E234D4CE018E569F4F0E9430
:101520002C01BC0185E22CD4DF91CF910895CF939B
:10153000DF93EC018BE592E0CAD4882331F0CE0131
:1015400093DFCE01A7DFCE01BDDFDF91CF910895FC
:101550004AEF50E060E070E087E692E068D444E64D
:1015600050E060E070E08BE592E061C408958F92F6
:10157000AF92CF92EF920F9360E786ED92E0B8D3EF
:1015800061E785E992E0B4D30F2EF7E08F2EF02DBE
:101590000F2EF6E0AF2EF02D0F2EF5E0CF2EF02D12
:1015A0006894EE24E2F800E021E042E06FE38FE788
:1015B00092E0BCD244EF51E060E070E083E792E05B
:1015C00036D40F91EF90CF90AF908F900895442331
:1015D00051F0A82FB92FFB01640F711D8D918193DC
:1015E000E617F707D9F70895660FFC0161830895A0
:1015F000FC01611104C081818160818303C081810C
:101600008E7F818381818093BB0084E88093BC00BE
:1016100083E080830895FC01848590E0258530E097
:10162000215031098217930731F4ACEBB0E09C9163
:1016300080E489278C9384E88093BC0086E08083D3
:101640000895FC0184E98093BC001486108286858D
:101650008F5F868785E38A95F1F700000895FC0186
:101660009091BC00992354F48091B900887F883010
:1016700019F482E080830895CF01E3CF0895FC013F
:101680009091BC00992354F48091B900887F8831EF
:1016900019F484E080830895CF01D3CF0895FC012D
:1016A0009091BC00992354F48091B900887F8034D4
:1016B00019F485E080830895CF01C3CF0895209168
:1016C000BC002223A4F42091B900287F283271F4B1
:1016D000FC0124852F5F24873585231718F424E027
:1016E0002083089527E0FC0120830895AACF089560
:1016F0009F92AF92BF92CF92DF92EF92FF920F93A1
:101700001F93CF93DF93EC017B01142FBC016E5F1D
:101710007F4FC7015CDF88E48093B8001D871C867B
:101720001E861882E0E00F2EFBEBCF2ED12CF02D81
:101730000CEB10E00F2EF4E89F2EF02D0F2EF6E0AC
:10174000AF2EF02D0F2EF4EEBF2EF02D03C0E8814A
:10175000E83099F18E85853098F58E2F90E08830AD
:10176000910540F5FC01ED56FF4F0C948A14F801E9
:10177000B08281E088832AC0CE0171DFE8CF61E0CA
:10178000CE0136DFE4CFCE017ADFE1CF8C85F701E1
:10179000E80FF11D8081F6018083F8019082A88214
:1017A00015C0CE018CDFD3CF84E98093BC0088E0E4
:1017B000888309C088E0888306C081E090E008C083
:1017C00080E090E005C081E090E002C0E881C2CFF7
:1017D000DF91CF911F910F91FF90EF90DF90CF900D
:1017E000BF90AF909F9008952091BC002223FCF4FD
:1017F0002091BC0026FF03C040E565E002C048E53B
:1018000067E02091B900287F30E050E024173507C9
:1018100069F4FC01248531E0320F34873091BB003C
:10182000E20FF11D3283FC01608308950ACF089511
:10183000BF92CF92DF92EF92FF920F931F93CF93BD
:10184000DF93EC017B01C42E88E48093B8004D87C0
:101850001C861E861882E0E00CEB10E00F2EF4EEE2
:10186000BF2EF02DDD24D39403C0E881E83051F180
:101870008E85853078F58E2F90E08830910500F5C3
:10188000FC01E556FF4F0C948A14F801B082D8820F
:10189000ED2DEECFCE01E3DEE8CF60E0CE01A8DE95
:1018A000E4CFCE01FCDEE1CFCE01B5DEDECFCE014E
:1018B0009BDFDBCF84E98093BC0088E0888302C093
:1018C00088E088834C2DB701CE01029680DE81E04E
:1018D00090E002C080E090E0DF91CF911F910F91E6
:1018E000FF90EF90DF90CF90BF900895FC0112829F
:1018F0008FEF8183108213820895CF93DF93EC01E1
:101900006A8387E193E070DE41E0BE0187E193E006
:101910008FDF888381E090E0DF91CF91089561119E
:1019200004C02FEFFC0121830895FC01118208956A
:10193000FC012181622B608341E0BC0187E193E0DF
:10194000D7DE81E090E00895089508950895DC01C0
:10195000ED91FC910084F185E02D41E0099581E055
:1019600090E0089524E032E0FC0131832083089563
:10197000DC01ED91FC910480F581E02D6FEF09957C
:101980000895DC01ED91FC910084F185E02D40E0AB
:101990000995089561E0F5DF8FE39FE10197F1F785
:1019A00000C000000895FC016381262F246023837A
:1019B0006C60E7CF0895CF93DF93EC01423018F0CD
:1019C0008A8188608A834D836E83222329F0413087
:1019D00019F48A8184608A832FEF81EE94E021508C
:1019E00080409040E1F700C000006A8164FD3DC086
:1019F000E881F9810084F185E02D42E063E0CE01C9
:101A000009958FE496E40197F1F700C00000E881A2
:101A1000F9810084F185E02D42E063E0CE01099573
:101A200087E592E00197F1F700C00000E881F981B5
:101A30000084F185E02D42E063E0CE01099587E561
:101A400092E00197F1F700C00000E881F98100847D
:101A5000F185E02D42E062E0CE01099587E592E054
:101A60000197F1F700C000001DC06062CE0189DF60
:101A70008FE496E40197F1F700C000006A8160628C
:101A8000CE017FDF87E592E00197F1F700C000000B
:101A90006A816062CE0175DF87E592E00197F1F718
:101AA00000C000006A816062CE016BDF8FEE90E0C3
:101AB0000197F1F700C0000084E08B83CE0173DF53
:101AC000CE0168DF82E08C8366E0CE015ADFCE0172
:101AD0004FDFDF91CF91089521E001C0220F6A9579
:101AE000EAF7DC0119962C93199717964C931797E0
:101AF000ED91FC910480F581E02D60E00995089559
:101B0000FC018185882389F09781911103C06111BF
:101B100005C006C0913021F4611102C0828701C066
:101B200012866285CF010B9603CF08956F927F9244
:101B30008F92AF92CF92DF92EF92FF920F931F930B
:101B4000CF93DF93CDB7DEB73C01D62EF42E122F04
:101B500009DF82E192E0F30191838083C3010B9658
:101B6000C5DEF301D08611861286178281E0982F98
:101B700001C0990FFA94EAF79787982F01C0990F3F
:101B80001A95EAF7908B982F01C0990F0A95EAF7FA
:101B9000918B982F01C0990FEA94EAF7928B982FB6
:101BA00001C0990FCA94EAF7938B982F01C0990F3F
:101BB000AA94EAF7948B01C0880F8A94EAF7858B80
:101BC000DF91CF911F910F91FF90EF90DF90CF9019
:101BD000AF908F907F906F9008950F931F93CF9346
:101BE000DF93EC018C01055F1F4F6885C80185DE1E
:101BF000019751F461E0C80192DE1A8260E0C801E9
:101C000097DE81E090E002C080E090E0DF91CF912C
:101C10001F910F910895EF92FF920F931F93CF930F
:101C20008C01C62F7C018BE0E80EF11CF801678562
:101C30006C2BC7017DDEF801678560956C23C701B9
:101C400077DECF911F910F91FF90EF900895DC0107
:101C5000FC01049620E060FF02C03289232B6695C8
:101C60003196E817F907B9F7413019F451964C91BC
:101C700051971A969C911A97622F692B642BCD016C
:101C8000CACF08950F931F93CF93DF938C01C62F74
:101C9000D42F423021F46F7040E0D9DF0FC070E0E4
:101CA000759567957595679575956795759567951C
:101CB000CEDF6C2F6F704D2FC801C9DFDF91CF9140
:101CC0001F910F910895FF920F931F93CF93DF936E
:101CD000EC01162F042FF22E80DF2F2D402F612FC5
:101CE000CE0169DEDF91CF911F910F91FF90089592
:101CF000FC01E05CFF4F1082419676CC0895CF93B3
:101D0000DF93CDB7DEB7CE56D1400FB6F894DEBF25
:101D10000FBECDBF2FEF83ED90E321508040904068
:101D2000E1F700C00000CE0104960E949406CE01A7
:101D300083569F4F4CD8CE0180539F4F5ED0CE012B
:101D40000196D0D8CE010196E0D880E090E0C2594B
:101D5000DE4F0FB6F894DEBF0FBECDBFDF91CF913F
:101D60000895E6E2F3E086E296E0118210821382A3
:101D70001282158214823696E817F907B1F7089592
:101D800090E0FC01EE0FFF1FE80FF91FEE0FFF1FA1
:101D9000EA5DFC4F01C0FC01848195810097D9F771
:101DA000309739F0718360830280F381E02D3097A2
:101DB000C9F7089590E0FC01EE0FFF1FE80FF91F2F
:101DC000EE0FFF1FEA5DFC4F8081918108958095A1
:101DD000881F8827881F0895CF93DF93EC0186E240
:101DE00096E0A4D16C837D838E839F8368837983FF
:101DF0008A839B83DF91CF910895CF93DF93EC018A
:101E000041E050E060E070E086E296E0A5D186E235
:101E100096E095D182E390E0A0E0B0E088879987D2
:101E2000AA87BB87CE01D8DFDF91CF910895CF92EB
:101E3000DF92EF92FF92CF93DF93EC016A017B0177
:101E400041E050E060E070E086E296E085D186E215
:101E500096E075D1C886D986EA86FB86CE01BCDFBE
:101E6000DF91CF91FF90EF90DF90CF900895CF93C7
:101E7000DF93EC014C815D816E817F81888599853E
:101E8000AA85BB85840F951FA61FB71F8C839D83D2
:101E9000AE83BF8386E296E049D1688379838A83E3
:101EA0009B83DF91CF910895FC0140875187628722
:101EB00073870895CF93DF93EC0186E296E036D1E5
:101EC000688379838A839B83DF91CF910895CF9331
:101ED000DF93EC01EFDF288139818C819D81281B04
:101EE000390BC901992324F488279927821B930B66
:101EF000092E000CAA0BBB0B488559856A857B858A
:101F0000481759076A077B0724F4CE0165DF81E093
:101F100001C080E0DF91CF910895CF93DF93EC0172
:101F2000C9DF288139818C819D81281B390BC9012A
:101F3000992324F488279927821B930B092E000CE0
:101F4000AA0BBB0B488559856A857B8548175907BD
:101F50006A077B0724F4CE018ADF81E001C080E0BC
:101F6000DF91CF9108950F931F93CF93DF93EC01EF
:101F7000A1DF888199812C813D81821B930BAC016B
:101F800022F444275527481B590B052E000C660BDD
:101F9000770B81E0088519852A853B85041715078D
:101FA000260737070CF080E0DF91CF911F910F914A
:101FB000089586E296E0CEC0089510922B06109206
:101FC0002C0610922D0610922E0607D180E0D7C065
:101FD00008951F920F920FB60F9211240BB60F9215
:101FE0002F933F934F935F936F937F938F939F9321
:101FF000AF93BF93EF93FF9380912B0690912C06A4
:10200000A0912D06B0912E060196A11DB11D8093C1
:102010002B0690932C06A0932D06B0932E0640918C
:102020002B0650912C0660912D0670912E06809102
:10203000270690912806A0912906B0912A068417B8
:102040009507A607B70708F4B8DFFF91EF91BF9196
:10205000AF919F918F917F916F915F914F913F9140
:102060002F910F900BBE0F900FBE0F901F901895E1
:102070001F920F920FB60F9211244F935F936F939D
:102080007F938F939F93AF93BF93809137069091E7
:102090003806A0913906B0913A060196A11DB11DEE
:1020A0008093370690933806A0933906B0933A068A
:1020B00040913706509138066091390670913A0682
:1020C00080912F0690913006A0913106B091320692
:1020D00084179507A607B707D8F480913306909127
:1020E0003406A0913506B09136060496A11DB11DA7
:1020F0008093330690933406A0933506B09336064A
:1021000010923706109238061092390610923A064D
:1021100016BABF91AF919F918F917F916F915F910F
:102120004F910F900FBE0F901F901895609133063E
:102130007091340680913506909136060895EFE649
:10214000F0E0808181608083E1E8F0E0808181605F
:1021500080830895F4CF0895A0E8BEE39A01AB010F
:10216000F7D32FEF3FEF40E050E096D320932F06B8
:102170003093300640933106509332060895E82F8D
:1021800080933B0685B5887F85BD8E2F90E0883093
:10219000910510F5FC01ED55FF4FBCC385B585BD1C
:1021A000089585B5816085BD089585B5826085BD3A
:1021B000089585B5836085BD089585B5846085BD26
:1021C000089585B5856085BD089585B5866085BD12
:1021D000089585B5876085BD0895EEE6F0E08081BD
:1021E0008E7F808308951F920F920FB60F92112455
:1021F0000BB60F922F938F939F93EF93FF93809142
:10220000C0002091C6008C71E0913E06EF5FEF7137
:1022100090913D06E91739F0E0933E06F0E0E15C6D
:10222000F94F208301C082E090913C06892B809376
:102230003C06FF91EF919F918F912F910F900BBED4
:102240000F900FBE0F901F9018951F920F920FB610
:102250000F9211240BB60F928F939F93EF93FF93DE
:102260009091600680915F06981769F0E0915F0693
:10227000EF5FEF71E0935F06F0E0EF59F94F808177
:102280008093C60005C0E1ECF0E080818F7D808303
:10229000FF91EF919F918F910F900BBE0F900FBE0A
:1022A0000F901F9018951F920F920FB60F92112446
:1022B0000BB60F922F938F939F93EF93FF93809181
:1022C000C8002091CE008C71E0918306EF5F909161
:1022D0008206E91739F0E0938306F0E0EC57F94FF6
:1022E000208301C082E090918106892B8093810632
:1022F000FF91EF919F918F912F910F900BBE0F90B7
:102300000FBE0F901F9018951F920F920FB60F924D
:1023100011240BB60F928F939F93EF93FF9390919D
:10232000850780918407981761F0E0918407EF5F3B
:10233000E0938407F0E0EA57F84F80818093CE0065
:1023400005C0E9ECF0E080818F7D8083FF91EF9103
:102350009F918F910F900BBE0F900FBE0F901F900B
:102360001895109285071092840710928306109298
:10237000820690789093CD008093CC0088E980937A
:10238000C90086E08093CA000895909183068091E9
:1023900082069817A1F0809182068F5FE82FF0E007
:1023A000EC57F94F2081809382068091810610922C
:1023B000810690E0982F8827820F911D089580E074
:1023C00091E00895209185072F5F90918407291748
:1023D000E1F3E22FF0E0EA57F84F8083209385077E
:1023E000E9ECF0E080818062808308951F920F9273
:1023F0000FB60F9211240BB60F922F938F939F93CA
:10240000EF93FF938091D0002091D6008C71E091E2
:102410008808EF5FEF7190918708E91739F0E09332
:102420008808F0E0E757F74F208301C082E09091E1
:102430008608892B80938608FF91EF919F918F9159
:102440002F910F900BBE0F900FBE0F901F901895FD
:102450001F920F920FB60F9211240BB60F928F930B
:102460009F93EF93FF939091AA088091A9089817E2
:1024700069F0E091A908EF5FEF71E093A908F0E03F
:10248000E555F74F80818093D60005C0E1EDF0E07F
:1024900080818F7D8083FF91EF919F918F910F902D
:1024A0000BBE0F900FBE0F901F9018951F920F92AA
:1024B0000FB60F9211240BB60F922F938F939F9309
:1024C000EF93FF9380913001209136018C71E09160
:1024D000CD08EF5FEF719091CC08E91739F0E093E8
:1024E000CD08F0E0E253F74F208301C082E09091E5
:1024F000CB08892B8093CB08FF91EF919F918F910F
:102500002F910F900BBE0F900FBE0F901F9018953C
:102510001F920F920FB60F9211240BB60F928F934A
:102520009F93EF93FF939091EF088091EE08981797
:1025300069F0E091EE08EF5FEF71E093EE08F0E0F4
:10254000E051F74F80818093360105C0E1E3F1E06F
:1025500080818F7D8083FF91EF919F918F910F906C
:102560000BBE0F900FBE0F901F9018955058BB27B1
:10257000AA270ED0E5C0D6D030F0DBD020F031F461
:102580009F3F11F41EF4CBC00EF4E095E7FBC1C0F1
:10259000E92FE7D080F3BA1762077307840795071E
:1025A00018F071F49EF5FFC00EF4E0950B2EBA2FD3
:1025B000A02D0B01B90190010C01CA01A001112449
:1025C000FF27591B99F0593F50F4503E68F11A16F5
:1025D000F040A22F232F342F4427585FF3CF469586
:1025E00037952795A795F0405395C9F77EF41F16A8
:1025F000BA0B620B730B840BBAF09150A1F0FF0F72
:10260000BB1F661F771F881FC2F70EC0BA0F621F5D
:10261000731F841F48F4879577956795B795F7954D
:102620009E3F08F0B3CF9395880F08F09927EE0FDF
:1026300097958795089504D06894B111B5C0089511
:1026400098D088F09F5790F0B92F9927B751A0F0F4
:10265000D1F0660F771F881F991F1AF0BA95C9F736
:1026600012C0B13081F09FD0B1E008959CC0672FB7
:10267000782F8827B85F39F0B93FCCF386957795E6
:102680006795B395D9F73EF49095809570956195CF
:102690007F4F8F4F9F4F0895E89409C097FB3EF4FA
:1026A00090958095709561957F4F8F4F9F4F99239F
:1026B000A9F0F92F96E9BB279395F695879577951D
:1026C0006795B795F111F8CFFAF4BB0F11F460FFDD
:1026D0001BC06F5F7F4F8F4F9F4F16C0882311F035
:1026E00096E911C0772321F09EE8872F762F05C049
:1026F000662371F096E8862F70E060E02AF09A95E4
:10270000660F771F881FDAF7880F9695879597F9D8
:10271000089597F99F6780E870E060E008959FEF63
:1027200080EC089500240A94161617061806090668
:10273000089500240A941216130614060506089537
:10274000092E0394000C11F4882352F0BB0F40F4BF
:10275000BF2B11F460FF04C06F5F7F4F8F4F9F4FFF
:10276000089557FD9058440F551F59F05F3F71F081
:102770004795880F97FB991F61F09F3F79F08795E8
:102780000895121613061406551FF2CF4695F1DF71
:1027900008C0161617061806991FF1CF8695710501
:1027A000610508940895E894BB2766277727CB0135
:1027B00097F908950BD0C4CFB5DF28F0BADF18F031
:1027C000952309F0A6CFABCF1124EECFCADFA0F33B
:1027D000959FD1F3950F50E0551F629FF001729FB6
:1027E000BB27F00DB11D639FAA27F00DB11DAA1FD5
:1027F000649F6627B00DA11D661F829F2227B00D22
:10280000A11D621F739FB00DA11D621F839FA00DAC
:10281000611D221F749F3327A00D611D231F849FFC
:10282000600D211D822F762F6A2F11249F57504053
:102830008AF0E1F088234AF0EE0FFF1FBB1F661FEE
:10284000771F881F91505040A9F79E3F510570F0A7
:1028500060CFAACF5F3FECF3983EDCF38695779587
:102860006795B795F795E7959F5FC1F7FE2B880FA2
:10287000911D9695879597F90895DB018F939F9306
:1028800067D0BF91AF91A29F800D911DA39F900D26
:10289000B29F900D11240895A1E21A2EAA1BBB1B12
:1028A000FD010DC0AA1FBB1FEE1FFF1FA217B3071C
:1028B000E407F50720F0A21BB30BE40BF50B661F32
:1028C000771F881F991F1A9469F7609570958095F6
:1028D00090959B01AC01BD01CF010895052E97FB9A
:1028E00016F400940FD057FD05D0D6DF07FC02D0B8
:1028F00046F408C050954095309521953F4F4F4F75
:102900005F4F089590958095709561957F4F8F4F9B
:102910009F4F0895EE0FFF1F0024001C0BBE079071
:10292000F691E02D0994A29FB001B39FC001A39F2F
:10293000700D811D1124911DB29F700D811D1124F8
:10294000911D0895F0DFB7FF0895821B930B089542
:10295000EADFA59F900DB49F900DA49F800D911D5F
:0829600011240895F894FFCF43
:1029680000000000DB0CA40CA50CA70CA60C0000B2
:0C2978000000630E6C0D800DA70C420ED9
:00000001FF
