:10000000AEC00000D6C00000D4C00000D2C00000C6
:10001000D0C00000CEC00000CCC00000CAC00000AC
:10002000C8C00000C6C00000C4C00000C2C00000BC
:10003000C0C00000BEC00000BCC00000BAC00000CC
:10004000B8C00000B6C00000B4C00000B2C00000DC
:100050000C947F10AEC00000ACC000000C943010B7
:10006000A8C000000C943A110C946C11A2C00000BE
:10007000A0C000009FC000009CC000009AC000000B
:1000800098C0000096C0000094C0000092C000001C
:100090000C949A110C94CB118CC000008AC0000003
:1000A00088C0000086C0000084C0000082C000003C
:1000B00080C000007EC000007CC000007AC000004C
:1000C00078C0000076C0000074C000000C943D129F
:1000D0000C946F126EC000000C949D120C94D812F8
:1000E00068C000001008EF07F207F507F807FB07E4
:1000F000FE070108040807080A083D081C081F0835
:100100002208250828082B082E083108340837084B
:10011000BC089B089E08A108A408A708AA08AD0867
:10012000B008B308B608410C460C490C4D0C500CF5
:10013000640C5B0C5E0CCF0CD40CD70CDB0CEA0C03
:10014000DE0CE10CE40C151118111C112011241106
:1001500028112C113011CE06FD0A0C0B2010112491
:100160001FBECFEFD1E2DEBFCDBF12E0A0E0B2E014
:10017000E8E8FFE200E00BBF02C007900D92A83252
:10018000B107D9F729E0A8E2B2E001C01D92A3347B
:10019000B207E1F710E0CFEAD0E004C02197FE01FA
:1001A0000E94DA14CB3AD107C9F70E94090F0C94C8
:1001B000C21726CF1F920F920FB60F9211248F9362
:1001C00081E0809328028F910F900FBE0F901F90B7
:1001D0001895ECE7F0E08081806480830895CF93E8
:1001E000DF93EC01ECE7F0E09081907E9083ABE749
:1001F000B0E09C91977F9C9390818881892B80832C
:10020000DF91CF910895EAE7F0E0808187608083F5
:100210000895EAE7F0E08081806880830895CF93B5
:10022000DF93EC0178946883D4DFEEE7F0E080811F
:100230008FEF8083CE01E7DFCE01EBDFDF91CF913F
:10024000089510922802EAE7F0E0808188608083B8
:100250008081806480830895CF93DF93EC01BFDFBA
:10026000CE01EFDF809128028823E1F3209178000E
:100270008091790090E0982F8827820F911DDF915F
:10028000CF910895FC015183408388E090E00E9463
:10029000F81148EC50E060E070E089E592E00E94DF
:1002A000C10F4CE251E060E070E08DE492E00E940A
:1002B000C10F40ED57E060E070E081E492E00E9401
:1002C000C10F42EF53E060E070E085E392E00C94F0
:1002D000C10F089581E492E00E94FA0F882371F023
:1002E00085E392E00E94760F60E070E081E00E947A
:1002F0004A0F60E070E084E00C944A0F089580E3B8
:100300000E94640F21E0892B09F420E0822F0895D8
:10031000CF92DF92EF92FF921F93CF93DF9310E47F
:10032000C0E0D0E0E12CF12CCC24C394D12C812F5F
:100330000E94640F892B49F0C6010C2E02C0880F61
:10034000991F0A94E2F7E82AF92A21961F5FC03123
:10035000D10569F7C701DF91CF911F91FF90EF9011
:10036000DF90CF900895CF92DF92EF92FF920F939C
:100370001F93CF93DF93EB018A0185E20E94640F04
:1003800025E530E0DC010E94F2146B017C01992329
:1003900034F42FEFC20E23E0D21EE11CF11CD70172
:1003A000C601072E7AE0B595A795979587957A951A
:1003B000D1F7702D6C017D012FE0C20ED11CE11C24
:1003C000F11C85E30E94640F892B31F0D194C19414
:1003D000D1083C2D2D2D0AC084E30E94640F892B87
:1003E00019F03C2D2D2D02C020E030E0D801EC9119
:1003F00081E08E0F8C93F0E0CF01880F991FE80FFA
:10040000F91FEC0FFD1F84E0808331832283DF918D
:10041000CF911F910F91FF90EF90DF90CF900895B3
:100420000F931F93CF93DF938B01EA0181E30E9427
:10043000640F892B91F487E30E94640F892B81F468
:1004400082E30E94640F892B71F488E30E94640F99
:10045000892B61F080E094E60BC08FEF9CE908C027
:100460008FEF9CE905C080E094E602C080E090E058
:10047000E88121E02E0F2883F0E09F01220F331F37
:10048000E20FF31FE00FF11F25E0208391838283A9
:10049000DF91CF911F910F9108952F923F924F922C
:1004A0005F926F927F928F929F92AF92BF92CF9204
:1004B000DF92EF92FF920F931F93CF93DF9300D0C1
:1004C00000D000D0CDB7DEB78B015E834D8380E2D4
:1004D0000E94640F6C0181E20E94640F7C0185E23E
:1004E0000E94640F25E530E0DC010E94F21428EE42
:1004F00033E040E050E00E94BE1429013A018FE051
:10050000480E511C611C711C9701ADECBCEC0E94A3
:10051000E3149695879596958795BC016456710965
:10052000072E000C880B990B0E949E134B015C0157
:100530009601ADECBCEC0E94E314969587959695D8
:100540008795BC0164567109072E000C880B990B26
:100550000E949E1320E030E040E05FE30E942A14F6
:100560006B017C019B01AC01C501B4010E94071322
:100570000E946B1369837A838B839C83A701960106
:10058000C501B4010E9406130E946B1329813A81B0
:100590002C39EFEF3E0714F42CE93FEF1B016C39C7
:1005A0007F4F34F40F2EFCE92F2E33243A94F02D94
:1005B0008824992484189508092C000CAA08BB08E3
:1005C000052C000C66087708481859086A087B084B
:1005D0002536310514F024E630E0C901330FAA0BAB
:1005E000BB0B9C01AD012C593F4F4F4F5F4FC301D7
:1005F000B2010E948D1428EC30E040E050E00E94EF
:10060000BE1469017A01C80CD91CEA1CFB1CDA82F1
:10061000C98291012536310514F024E630E0C90184
:10062000330FAA0BBB0B9C01AD012C593F4F4F4F11
:100630005F4FC301B2010E948D1428EC30E040E00E
:1006400050E00E94BE14820E931EA41EB51EC4016B
:100650009601295F3F4F2F30310508F457C027E03E
:10066000820E911C3FE08316910410F480E090E02C
:10067000E981FA81FF236CF4A601DD2024F44427EC
:1006800055274C195D0951954195510904C01A82AD
:10069000198249815A8199235CF49C01992324F49D
:1006A00022273327281B390B88279927821B930B76
:1006B000ED81FE81208130E0F901EE0FFF1F2E0F4A
:1006C0003F1FF801E20FF31F91E09083ED81FE815F
:1006D000208130E0F901EE0FFF1F2E0F3F1FF801C0
:1006E000E20FF31F4183ED81FE81208130E0A901FB
:1006F000440F551F240F351FF801E20FF31F8283AB
:10070000ED81FE8180818F5F80830DC0F7E08F0EC9
:10071000911C2FE08216910408F0B9CF80E090E0A0
:100720001A821982B6CF26960FB6F894DEBF0FBE96
:10073000CDBFDF91CF911F910F91FF90EF90DF9090
:10074000CF90BF90AF909F908F907F906F905F9071
:100750004F903F902F9008958F929F92AF92BF92AB
:10076000CF92DF92EF92FF920F931F93CF93DF937D
:100770008B01EA0183E20E94640F9C01ADECBCECAA
:100780000E94E31496958795969587957C0124E6BB
:10079000E21AF10884E20E94640F25E530E0DC01F2
:1007A0000E94F21428EE33E040E050E00E94BE14B4
:1007B00049015A018FE0880E911CA11CB11CC70190
:1007C0002CE9E2162FEFF20614F48CE99FEFCC240B
:1007D000DD24C818D9080D2C000CEE08FF089C0178
:1007E0008536910514F024E630E0C901330FAA0BD9
:1007F000BB0B9C01AD012C593F4F4F4F5F4FC401C4
:10080000990CAA0BBB0BBC01CD016C197D098E099B
:100810009F090E948D1428EC30E040E050E00E94D7
:10082000BE14C20ED31EE41EF51E888190E0FC01AA
:10083000EE0FFF1F8E0F9F1FF801E80FF91F83E0D7
:100840008083888190E0FC01EE0FFF1F8E0F9F1FB9
:10085000F801E80FF91FC182888190E09C01220F06
:10086000331F820F931FF801E80FF91FD28288818E
:100870008F5F8883DF91CF911F910F91FF90EF9051
:10088000DF90CF90BF90AF909F908F900895FF9290
:100890000F931F93CF93DF9300D01F92CDB7DEB796
:1008A000442361F1A62FB72FF12C20E08E010C5FBD
:1008B0001F4F7CE88C91898311968C9111978A83C4
:1008C00012968C9112978B83FE013196519138E0EC
:1008D000622F6527822F90E095958795282F60FFDE
:1008E00002C0272F28275695315091F7E017F107BE
:1008F00069F7F39413964F11DDCF01C020E0822FEA
:100900000F900F900F90DF91CF911F910F91FF905B
:100910000895DF92EF92FF920F931F93CF93DF938F
:100920007B01142FB4DFD82E86E00E94291285E8BF
:100930000E94291284E00E94291281E00E9429125B
:10094000812F880F810F0E9429121123C1F0E70126
:10095000412F50E08A01000F111F400F511F8701E6
:10096000040F151F88810E94291289810E94291273
:100970008A810E9429122396C017D10799F78D2DDD
:100980000E942912DF91CF911F910F91FF90EF905C
:10099000DF9008950F931F93CF93DF93CDB7DEB70A
:1009A0002D970FB6F894DEBF0FBECDBF8C011D860C
:1009B000AE01435F5F4FBE016F5F7F4F6EDDAE01E3
:1009C000435F5F4FBE016F5F7F4FC801C5DEAE0161
:1009D000435F5F4FBE016F5F7F4FC801C4DCAE0154
:1009E000435F5F4FBE016F5F7F4FC80119DD44E079
:1009F000BE016F5F7F4FC8018CDF2D960FB6F89454
:100A0000DEBF0FBECDBFDF91CF911F910F91089533
:100A1000CF92DF92EF92FF920F931F93CF93DF93CA
:100A200000D01F92CDB7DEB76C017C018BE9E80ED8
:100A3000F11CC70122D2C70180D28823D1F0C7019F
:100A400093D2082F882391F010E082E0C80ED11CC9
:100A5000612FC7012BD269837A838B83BE016F5FBD
:100A60007F4FC601B9D11F5F0113F2CFC7011BD25F
:100A700006C0C70110D2882311F0C70114D20F900D
:100A80000F900F90DF91CF911F910F91FF90EF90FA
:100A9000DF90CF900895CF93DF93EC010E940C126A
:100AA0009C012227232B49F4682FCE01B1DF0E943D
:100AB0000C129C012227232BB9F3DF91CF910895CB
:100AC0009F92AF92BF92CF92DF92EF92FF920F93DD
:100AD0001F93CF93DF937C01DEDF82E0E80EF11CF1
:100AE000CC24C394D12CC701C2D18823E9F1C7011A
:100AF0009ED1162F972EC82F88E00E94640F5C01AC
:100B0000812F0E94710F882331F1D0E0DC2FCC2798
:100B1000C90DD11DBE01812F0E944A0F1830D9F492
:100B2000AB28C9F010E4A12CB12C96010A2C02C00C
:100B3000220F331F0A94E2F72C233D23232B29F4A1
:100B400060E070E0812F0E944A0F8FEFA81AB80A68
:100B50001F5F103551F781E492E00E94760FB601D5
:100B600084E00E944A0FBFCFDF91CF911F910F9178
:100B7000FF90EF90DF90CF90BF90AF909F9008953F
:100B8000EF92FF920F931F93CF93DF93CDB7DEB712
:100B900065970FB6F894DEBF0FBECDBF7C0181E034
:100BA00089831A821B8283E08C831D821E8284E0EB
:100BB0008F831886198685E08A871B861C8688E0C5
:100BC0008D871E861F8689E0888B198A1A8A10E411
:100BD00060E070E0812F0E944A0F1F5F1035C1F75F
:100BE000870102531F4F47E0BE016F5F7F4FC70170
:100BF00090DEC70165DF88E00E94640F892B29F031
:100C0000C8010E94D40F882371F365960FB6F8943B
:100C1000DEBF0FBECDBFDF91CF911F910F91FF902F
:100C2000EF9008950F931F93CF93DF9300D000D0E0
:100C300000D0CDB7DEB78C0188E089836A837B83DF
:100C400072FF02C084E601C080E070FD8AE599E091
:100C50009C838D831E82C80182539F4F0E94760F12
:100C600042E0BE016F5F7F4FC80153DEC80128DF3D
:100C700026960FB6F894DEBF0FBECDBFDF91CF91A1
:100C80001F910F910895AF92BF92CF92DF92EF9292
:100C9000FF920F931F93CF93DF9300D01F92CDB796
:100CA000DEB78C010DDFC8012ADB882341F061E04B
:100CB00070E089E30E944A0FC80162DF61C088E0EA
:100CC0000E94640F892B69F460E070E089E30E9460
:100CD0004A0F89E292E00E94D40F882311F0C801E4
:100CE00059DE89E30E94640F019711F4C80148DFBF
:100CF000C8010EDB7C0189E592E00E94D40F8823B5
:100D000009F43EC06701E114F104A9F189E30E94EE
:100D1000640F5C0188E00E94640F21E030E0AB28A2
:100D200011F020E030E0822B932B892B49F188E0F1
:100D30000E94640F8E219F21892B41F4CD2831F030
:100D4000C801E6DABC01C8016DDF1AC019821A8237
:100D50001B82C80182539F4F0E94760F41E0BE0163
:100D60006F5F7F4FC801D5DDC801AADE09C088E0EA
:100D70000E94640FEBCF88E00E94640F892BB9F7C3
:100D80000F900F900F90DF91CF911F910F91FF90D7
:100D9000EF90DF90CF90BF90AF90089589E592E0FB
:100DA0000E94870F8DE492E00E94870F81E492E019
:100DB0000E94870F85E392E00E94870F42E350E094
:100DC00060E070E089E292E00C94A10F0895FC01CC
:100DD0001082118212820895CF93DF93DC01119665
:100DE0002C91119781E0820F11968C93119730E02E
:100DF0002F5F3F4FF901EE0FFF1F2E0F3F1FFD0129
:100E0000E20FF31FEB01288139814A81208331836E
:100E10004283823318F011961C92119712968C918E
:100E200012978F5F12968C93DF91CF910895DC011A
:100E30009C9181E0890F292F30E0823310F48C934C
:100E400001C01C9212968C911297815012968C932D
:100E500012972F5F3F4FF901EE0FFF1F2E0F3F1F1D
:100E6000FD01E20FF31F6081718182810895FC0111
:100E700082810895FC0112AA0895FC0122A9211182
:100E800002C0663039F431E0320FFC0132ABE20FC0
:100E9000F11D6083089521E0FC0182A9823308F4EA
:100EA00020E0822F0895FC0112AA0895262F220F18
:100EB000620F6B5FFC01E60FF11D71816081828121
:100EC0000895EF92FF920F931F93CF93DF937C01CE
:100ED000FC01C2A90C2F10E00150110906301105C8
:100EE000ECF0DC011596E801C80FD91F90E0ECE8A2
:100EF0006D9148E050E0792F7627292F30E0359525
:100F00002795922F70FF02C09E2F92276695415021
:100F1000510989F7CA17DB0759F701C090E0F701BB
:100F2000E00FF11F81E02081291380E0DF91CF9154
:100F30001F910F91FF90EF900895FC0122A9263098
:100F400068F03281313061F4448150E04A5F5F4F94
:100F500030E04217530731F4B4CF089580E008958C
:100F600080E0089580E00895CF93DF93EC01E5DF02
:100F7000882339F08C819BEA899F812D11248695E5
:100F800001C080E0DF91CF910895CF93DF93EC0112
:100F9000789471D7BE01CE0185529F4F9CD2AE018D
:100FA00061E070E0CE0101966DD9DF91CF91089597
:100FB000EC0121968C0105521F4FCE018BD9C8013F
:100FC0000BD3CE0160DECE017BDDF7CF90E08B301E
:100FD000910518F5FC01EE58FF4F0C94DA1484E2E9
:100FE00090E0089587E290E008958AE290E0089505
:100FF0008DE290E0089580E390E0089583E390E02F
:10100000089581E091E0089584E091E0089587E0FB
:1010100091E008958AE091E0089585E692E00895D0
:1010200081E290E0089590E08B30910518F5FC0185
:10103000E358FF4F0C94DA1485E290E0089588E2BB
:1010400090E008958BE290E008958EE290E008959C
:1010500081E390E0089584E390E0089582E091E0D8
:10106000089585E091E0089588E091E008958BE08F
:1010700091E0089585E692E0089582E290E0089577
:101080000F931F93CF93DF93FC01C62FD42F608360
:1010900041832283211116C0862F98DFFC019081A5
:1010A00021E030E002C0220F331FDA95E2F7D22FA1
:1010B000D0959D2390838C2FB6DFFC0120812D23BA
:1010C000208325C02230B1F4862F80DFFC0190817F
:1010D00001E010E002C0000F111FDA95E2F7802F47
:1010E0008095982390838C2F9EDFFC012081022B1A
:1010F00000830DC0862F6ADFFC01408121E030E0D3
:1011000002C0220F331FDA95E2F7242B2083DF91F0
:10111000CF911F910F910895DC0111962C91119799
:10112000EC918E2F90E08B30910518F5FC01E8577B
:10113000FF4F0C94DA14E3E2F0E020C0E6E2F0E0C6
:101140001DC0E9E2F0E01AC0ECE2F0E017C0EFE207
:10115000F0E014C0E2E3F0E011C0E0E0F1E00EC026
:10116000E3E0F1E00BC0E6E0F1E008C0E9E0F1E027
:1011700005C0E5E6F2E002C0E0E2F0E0808190E048
:1011800002C0959587952A95E2F781700895C4DF8E
:1011900091E089270895FC016193CF01AFC20895C2
:1011A000EF92FF920F931F93CF93DF9300D0CDB7B1
:1011B000DEB7E62EF42E8C010F5F1F4FFC0160811D
:1011C000C8019CD2E982FA8242E0BE016F5F7F4F84
:1011D000C80118D30F900F90DF91CF911F910F91FD
:1011E000FF90EF9008950F931F93CF93DF9300D05C
:1011F000CDB7DEB76A838C010F5F1F4FFC016081A2
:10120000C8017CD241E0BE016E5F7F4FC801FAD2B7
:1012100041E0BE016F5F7F4FC80194D389810F9079
:101220000F90DF91CF911F910F910895CF93DF938E
:10123000EC018881882311F063E101C062E18B81B8
:101240009C81D1DF90E0098002C0959587950A9432
:10125000E2F78170DF91CF9108951F93CF93DF93D1
:10126000EC016A8311E08881811101C010E06111F5
:1012700012C0612F8B819C81B6DF41E050E0098074
:1012800002C0440F551F0A94E2F7482B612F8B814F
:101290009C8186DF12C0612F8B819C81A4DF41E09D
:1012A00050E0098002C0440F551F0A94E2F74095B0
:1012B0004823612F8B819C8173DFDF91CF911F9138
:1012C00008950F93FC017483638340832183602F0F
:1012D000C4DF0F910895CF93DF93EC0160E2029693
:1012E0005ADF67E2CE01499656DFDF91CF9108952C
:1012F000EF92FF920F93CF93DF93EC017C0182E09A
:10130000E80EF11C00E020E040E0B701CE01C096FD
:10131000D8DF22E040E0B701CE01C596D2DF24E05D
:1013200040E0B701CE01CA96CCDF26E040E0B7012D
:10133000CE01CF96C6DF20E041E0B701CE018C5B45
:101340009F4FBFDF22E041E0B701CE01875B9F4F97
:10135000B8DF24E041E0B701CE01825B9F4FB1DFEF
:1013600026E041E0B701CE018D5A9F4FAADF7E01F2
:1013700089E1E80EF11C20E040E0B701CE01885A77
:101380009F4F9FDF22E040E0B701CE01835A9F4F7D
:1013900098DF24E040E0B701CE018E599F4F91DFE6
:1013A00026E040E0B701CE0189599F4F8ADF20E057
:1013B00041E0B701CE0184599F4F83DF22E041E035
:1013C000B701CE018F589F4F7CDF24E041E0B70189
:1013D000CE018A589F4F75DF26E041E0B701CE016C
:1013E00085589F4F6EDFDF91CF910F91FF90EF9067
:1013F0000895CF93DF93EC0122E042E069E080584A
:101400009F4F3EDE22E046E061E0CE018D579F4FC8
:1014100037DE22E044E061E0CE018A579F4F30DEA4
:1014200022E040E061E0CE0187579F4F29DE22E0B5
:1014300044E064E0CE0184579F4F22DE22E045E085
:1014400061E0CE0181579F4F1BDE22E046E064E061
:10145000CE018E569F4F14DE22E047E064E0CE01BD
:101460008B569F4F0DDE22E045E064E0CE018856AA
:101470009F4F06DEDF91CF910895CF93DF93EC016C
:1014800060E084569F4F0E940F0161E0CE018556B7
:101490009F4F0E940F0166E0CE0183569F4F0E942E
:1014A0000F0167E0CE0182569F4F0E940F01DF912E
:1014B000CF910895CF93DF93EC0162E081569F4F67
:1014C0000E940F0165E0CE0180569F4F0E940F01E0
:1014D000DF91CF9108950F931F93CF93DF93EC018A
:1014E0008B0144E650E060E070E086E692E049D58A
:1014F00019830883CE01EFDECE01FADECE0179DF5B
:10150000CE01BBDFCE01D6DFDF91CF911F910F91CE
:1015100008950F931F93CF938C0100581F4FC0E382
:10152000C80135DE682F70E08C2FB4D40D5F1F4FDB
:10153000CF5FC933A9F7CF911F910F9108950F93F2
:101540001F93CF938C01005D1F4FC0E4C8016EDE76
:10155000811104C061E070E08C2F9CD40B5F1F4FA1
:10156000CF5FC03599F7CF911F910F910895CF9319
:10157000DF93EC0185569F4F0E942C01BC0180E255
:1015800089D4CE0184569F4F0E942C01BC0181E278
:1015900081D4CE0183569F4F0E942C01BC0182E270
:1015A00079D4CE0182569F4F0E942C01BC0183E268
:1015B00071D4CE0181569F4F0E942C01BC0184E260
:1015C00069D4CE0180569F4F0E942C01BC0185E258
:1015D00061D4DF91CF910895CF93DF93EC0186E63C
:1015E00092E0E2D4882331F0CE0193DFCE01A7DF71
:1015F000CE01BDDFDF91CF9108954AEF50E060E06A
:1016000070E082E792E09DD444E650E060E070E054
:1016100086E692E096C408958F92AF92CF92EF92B1
:101620000F9360E784EF92E0EDD361E78CEA92E0FC
:10163000E9D30F2EF7E08F2EF02D0F2EF6E0AF2E10
:10164000F02D0F2EF5E0CF2EF02D6894EE24E2F869
:1016500000E021E042E06FE386E992E0F1D28AE81F
:1016600092E055D444EF51E060E070E08EE792E004
:1016700068D40F91EF90CF90AF908F900895AF9274
:10168000BF92CF92DF92EF92FF920F931F93CF936F
:10169000DF93A42EB12C1A141B042CF5E82EF92E7E
:1016A000062F172FC0E0D0E00F2EF0E0CF2EF2E093
:1016B000DF2EF02DF70181917F01F80181938F01D9
:1016C00080811F928F93DF93CF93DF92CF920E94FE
:1016D000021521960F900F900F900F900F900F9082
:1016E000CA15DB0539F7DF91CF911F910F91FF905C
:1016F000EF90DF90CF90BF90AF900895660FFC0100
:1017000061830895FC01611104C08181816081833E
:1017100003C081818E7F818381818093BB0084E8B7
:101720008093BC0083E080830895FC01838990E06E
:10173000248930E0215031098217930731F4ACEB52
:10174000B0E09C9180E489278C9384E88093BC006E
:1017500086E080830895FC0184E98093BC00138AAD
:10176000108285898F5F858B85E38A95F1F700006C
:101770000895FC019091BC00992354F48091B90024
:10178000887F883019F482E080830895CF01E3CF09
:101790000895FC019091BC00992354F48091B90004
:1017A000887F883119F484E080830895CF01D3CFF6
:1017B0000895FC019091BC00992354F48091B900E4
:1017C000887F803419F485E080830895CF01C3CFEA
:1017D00008952091BC002223A4F42091B900287F11
:1017E000283271F4FC0123892F5F238B348923175E
:1017F00018F424E02083089527E0FC012083089555
:10180000AACF08959F92AF92BF92CF92DF92EF92AC
:10181000FF920F931F93CF93DF93EC017B01142F63
:10182000BC016E5F7F4FC7012ADF88E48093B80058
:101830001C8B1B8A1D8A1882E0E00F2EFBEBCF2E3B
:10184000D12CF02D0CEB10E00F2EF4E89F2EF02D94
:101850000F2EF6E0AF2EF02D0F2EF4EEBF2EF02D52
:1018600003C0E881E83099F18D89853098F58E2F95
:1018700090E08830910540F5FC01ED56FF4F0C9447
:10188000DA14F801B08281E088832AC0CE0171DFCA
:10189000E8CF61E0CE0136DFE4CFCE017ADFE1CFE1
:1018A0008B89F701E80FF11D8081F6018083F80133
:1018B0009082A88215C0CE018CDFD3CF84E98093BB
:1018C000BC0088E0888309C088E0888306C081E086
:1018D00090E008C080E090E005C081E090E002C0A8
:1018E000E881C2CFDF91CF911F910F91FF90EF90D0
:1018F000DF90CF90BF90AF909F9008952091BC0053
:101900002223FCF42091BC0026FF03C040E565E0E3
:1019100002C048E567E02091B900287F30E050E040
:101920002417350769F4FC01238931E0320F338B2A
:101930003091BB00E20FF11D3283FC0160830895FA
:101940000ACF0895BF92CF92DF92EF92FF920F934A
:101950001F93CF93DF93EC017B01C42E88E4809327
:10196000B8004C8B1B8A1D8A1882E0E00CEB10E05B
:101970000F2EF4EEBF2EF02DDD24D39403C0E881AA
:10198000E83051F18D89853078F58E2F90E08830E0
:10199000910500F5FC01E556FF4F0C94DA14F801AF
:1019A000B082D882ED2DEECFCE01E3DEE8CF60E04D
:1019B000CE01A8DEE4CFCE01FCDEE1CFCE01B5DE64
:1019C000DECFCE019BDFDBCF84E98093BC0088E0D3
:1019D000888302C088E088834C2DB701CE0102962F
:1019E0004EDE81E090E002C080E090E0DF91CF9198
:1019F0001F910F91FF90EF90DF90CF90BF900895CF
:101A0000FC0112828FEF8183108213820895CF939D
:101A1000DF93EC016A838CE393E070DE41E0BE016A
:101A20008CE393E08FDF888381E090E0DF91CF91BA
:101A30000895611104C02FEFFC0121830895FC017A
:101A400011820895FC012181622B608341E0BC0179
:101A50008CE393E0D7DE81E090E008950895089547
:101A60000895DC01ED91FC910084F185E02D41E0C9
:101A7000099581E090E0089520E132E0FC01318396
:101A800020830895DC01ED91FC910480F581E02D27
:101A90006FEF09950895DC01ED91FC910084F185CB
:101AA000E02D40E00995089561E0F5DF8FE39FE1C7
:101AB0000197F1F700C000000895FC016381262F13
:101AC000246023836C60E7CF0895CF93DF93EC010C
:101AD000423018F08A8188608A834D836E83222386
:101AE00029F0413019F48A8184608A832FEF81EED6
:101AF00094E0215080409040E1F700C000006A81EE
:101B000064FD3DC0E881F9810084F185E02D42E06B
:101B100063E0CE0109958FE496E40197F1F700C0E8
:101B20000000E881F9810084F185E02D42E063E066
:101B3000CE01099587E592E00197F1F700C000001A
:101B4000E881F9810084F185E02D42E063E0CE0177
:101B5000099587E592E00197F1F700C00000E88160
:101B6000F9810084F185E02D42E062E0CE01099523
:101B700087E592E00197F1F700C000001DC06062A8
:101B8000CE0189DF8FE496E40197F1F700C00000F1
:101B90006A816062CE017FDF87E592E00197F1F70D
:101BA00000C000006A816062CE0175DF87E592E0C7
:101BB0000197F1F700C000006A816062CE016BDF1F
:101BC0008FEE90E00197F1F700C0000084E08B8376
:101BD000CE0173DFCE0168DF82E08C8366E0CE0148
:101BE0005ADFCE014FDFDF91CF91089521E001C090
:101BF000220F6A95EAF7DC0119962C93199717962C
:101C00004C931797ED91FC910480F581E02D60E0F5
:101C100009950895FC018185882389F097819111A8
:101C200003C0611105C006C0913021F4611102C0EA
:101C3000828701C012866285CF010B9603CF08957B
:101C40006F927F928F92AF92CF92DF92EF92FF923C
:101C50000F931F93CF93DF93CDB7DEB73C01D62E02
:101C6000F42E122F09DF8EE192E0F301918380833D
:101C7000C3010B96C5DEF301D0861186128617824A
:101C800081E0982F01C0990FFA94EAF79787982F6F
:101C900001C0990F1A95EAF7908B982F01C0990F00
:101CA0000A95EAF7918B982F01C0990FEA94EAF709
:101CB000928B982F01C0990FCA94EAF7938B982FB3
:101CC00001C0990FAA94EAF7948B01C0880F8A94F7
:101CD000EAF7858BDF91CF911F910F91FF90EF90E5
:101CE000DF90CF90AF908F907F906F9008950F937B
:101CF0001F93CF93DF93EC018C01055F1F4F688525
:101D0000C80185DE019751F461E0C80192DE1A82B4
:101D100060E0C80197DE81E090E002C080E090E0E2
:101D2000DF91CF911F910F910895EF92FF920F9342
:101D30001F93CF938C01C62F7C018BE0E80EF11C22
:101D4000F80167856C2BC7017DDEF801678560951A
:101D50006C23C70177DECF911F910F91FF90EF9019
:101D60000895DC01FC01049620E060FF02C0328986
:101D7000232B66953196E817F907B9F7413019F426
:101D800051964C9151971A969C911A97622F692BF4
:101D9000642BCD01CACF08950F931F93CF93DF9388
:101DA0008C01C62FD42F423021F46F7040E0D9DF70
:101DB0000FC070E0759567957595679575956795F2
:101DC00075956795CEDF6C2F6F704D2FC801C9DFF9
:101DD000DF91CF911F910F910895FF920F931F9361
:101DE000CF93DF93EC01162F042FF22E80DF2F2DDF
:101DF000402F612FCE0169DEDF91CF911F910F91AE
:101E0000FF900895FC01E95BFF4F1082419676CC6C
:101E10000895CF93DF93CDB7DEB7CC57D1400FB63F
:101E2000F894DEBF0FBECDBF2FEF83ED90E32150BE
:101E300080409040E1F700C00000CE0104960E946F
:101E4000E706CE0183569F4F15D8CE0180539F4F92
:101E50005ED0CE01019699D8CE010196A9D880E036
:101E600090E0C458DE4F0FB6F894DEBF0FBECDBF72
:101E7000DF91CF910895E2E5F3E082E596E01182EB
:101E8000108213821282158214823696E817F9079F
:101E9000B1F7089590E0FC01EE0FFF1FE80FF91F66
:101EA000EE0FFF1FEE5AFC4F01C0FC0184819581AB
:101EB0000097D9F7309739F0718360830280F381FE
:101EC000E02D3097C9F7089590E0FC01EE0FFF1F59
:101ED000E80FF91FEE0FFF1FEE5AFC4F8081918132
:101EE00008958095881F8827881F0895CF93DF93D2
:101EF000EC0182E596E061D16C837D838E839F83C4
:101F0000688379838A839B83DF91CF910895CF93F0
:101F1000DF93EC0141E050E060E070E082E596E0A4
:101F200062D182E596E052D182E390E0A0E0B0E099
:101F300088879987AA87BB87CE01D8DFDF91CF91A9
:101F40000895CF92DF92EF92FF92CF93DF93EC014F
:101F50006A017B0141E050E060E070E082E596E0DC
:101F600042D182E596E032D1C886D986EA86FB86E0
:101F7000CE01BCDFDF91CF91FF90EF90DF90CF904B
:101F80000895FC0140875187628773870895CF9336
:101F9000DF93EC0182E596E010D1688379838A8330
:101FA0009B83DF91CF910895CF93DF93EC01EFDF17
:101FB000288139818C819D81281B390BC901992386
:101FC00024F488279927821B930B092E000CAA0B57
:101FD000BB0B488559856A857B85481759076A0771
:101FE0007B0724F4CE0182DF81E001C080E0DF9135
:101FF000CF9108950F931F93CF93DF93EC01C7DF29
:10200000888199812C813D81821B930BAC0122F444
:1020100044275527481B590B052E000C660B770BE0
:1020200081E0088519852A853B8504171507260751
:1020300037070CF080E0DF91CF911F910F91089549
:1020400082E596E0CEC00895109257061092580689
:102050001092590610925A0607D180E0D7C0089511
:102060001F920F920FB60F9211240BB60F922F935F
:102070003F934F935F936F937F938F939F93AF9310
:10208000BF93EF93FF938091570690915806A091CC
:102090005906B0915A060196A11DB11D80935706AD
:1020A00090935806A0935906B0935A06409157064C
:1020B000509158066091590670915A0680915306C6
:1020C00090915406A0915506B09156068417950735
:1020D000A607B70708F4B8DFFF91EF91BF91AF9162
:1020E0009F918F917F916F915F914F913F912F9130
:1020F0000F900BBE0F900FBE0F901F9018951F9260
:102100000F920FB60F9211244F935F936F937F93AB
:102110008F939F93AF93BF938091630690916406D2
:10212000A0916506B09166060196A11DB11D809330
:10213000630690936406A0936506B093660640918B
:102140006306509164066091650670916606809101
:102150005B0690915C06A0915D06B0915E068417C7
:102160009507A607B707D8F480915F06909160069F
:10217000A0916106B09162060496A11DB11D8093E5
:102180005F0690936006A0936106B093620610927A
:10219000630610926406109265061092660616BADF
:1021A000BF91AF919F918F917F916F915F914F916F
:1021B0000F900FBE0F901F90189560915F06709161
:1021C000600680916106909162060895EFE6F0E066
:1021D000808181608083E1E8F0E08081816080839C
:1021E0000895F4CF0895A0E8BEE39A01AB0100D4AE
:1021F0002FEF3FEF40E050E09FD320935B063093FA
:102200005C0640935D0650935E060895E82F809328
:10221000670685B5887F85BD8E2F90E08830910553
:1022200010F5FC01ED55FF4FC5C385B585BD08957B
:1022300085B5816085BD089585B5826085BD0895A9
:1022400085B5836085BD089585B5846085BD089595
:1022500085B5856085BD089585B5866085BD089581
:1022600085B5876085BD0895EEE6F0E080818E7FBC
:10227000808308951F920F920FB60F9211240BB610
:102280000F922F938F939F93EF93FF938091C000B2
:102290002091C6008C71E0916A06EF5FEF7190911A
:1022A0006906E91739F0E0936A06F0E0E559F94F5D
:1022B000208301C082E090916806892B8093680694
:1022C000FF91EF919F918F912F910F900BBE0F90E7
:1022D0000FBE0F901F9018951F920F920FB60F927E
:1022E00011240BB60F928F939F93EF93FF939091CE
:1022F0008C0680918B06981769F0E0918B06EF5F52
:10230000EF71E0938B06F0E0E357F94F8081809303
:10231000C60005C0E1ECF0E080818F7D8083FF91F5
:10232000EF919F918F910F900BBE0F900FBE0F906A
:102330001F9018951F920F920FB60F9211240BB693
:102340000F922F938F939F93EF93FF938091C800E9
:102350002091CE008C71E091AF06EF5F9091AE06B8
:10236000E91739F0E093AF06F0E0E055F94F20832C
:1023700001C082E09091AD06892B8093AD06FF915C
:10238000EF919F918F912F910F900BBE0F900FBEE9
:102390000F901F9018951F920F920FB60F92112455
:1023A0000BB60F928F939F93EF93FF939091B1078A
:1023B0008091B007981761F0E091B007EF5FE0936C
:1023C000B007F0E0EE54F84F80818093CE0005C056
:1023D000E9ECF0E080818F7D8083FF91EF919F9108
:1023E0008F910F900BBE0F900FBE0F901F901895FE
:1023F0001092B1071092B0071092AF061092AE067D
:1024000090789093CD008093CC0088E98093C900A8
:1024100086E08093CA0008959091AF068091AE0641
:102420009817A1F08091AE068F5FE82FF0E0E0559D
:10243000F94F20818093AE068091AD061092AD06D3
:1024400090E0982F8827820F911D089580E091E0F9
:1024500008952091B1072F5F9091B0072917E1F3FC
:10246000E22FF0E0EE54F84F80832093B107E9ECBF
:10247000F0E080818062808308951F920F920FB6F2
:102480000F9211240BB60F922F938F939F93EF937C
:10249000FF938091D0002091D6008C71E091B40818
:1024A000EF5FEF719091B308E91739F0E093B4084A
:1024B000F0E0EB54F74F208301C082E09091B20826
:1024C000892B8093B208FF91EF919F918F912F916B
:1024D0000F900BBE0F900FBE0F901F9018951F927C
:1024E0000F920FB60F9211240BB60F928F939F93FA
:1024F000EF93FF939091D6088091D508981769F0D3
:10250000E091D508EF5FEF71E093D508F0E0E95274
:10251000F74F80818093D60005C0E1EDF0E0808127
:102520008F7D8083FF91EF919F918F910F900BBED4
:102530000F900FBE0F901F9018951F920F920FB61D
:102540000F9211240BB60F922F938F939F93EF93BB
:10255000FF938091300120913601E091FA08EF5FFE
:10256000EF719091F908E91741F08C71E093FA0846
:10257000F0E0E550F74F208301C082E09091F80829
:102580009F3128F49091F8089F5F9093F8089091FC
:10259000F708892B8093F708FF91EF919F918F9116
:1025A0002F910F900BBE0F900FBE0F901F9018959C
:1025B0001F920F920FB60F9211240BB60F928F93AA
:1025C0009F93EF93FF9390911C0980911B0998179B
:1025D00069F0E0911B09EF5FEF71E0931B09F0E0F8
:1025E000E35EF64F80818093360105C0E1E3F1E0C0
:1025F00080818F7D8083FF91EF919F918F910F90CC
:102600000BBE0F900FBE0F901F9018955058BB2710
:10261000AA270ED0E5C0D6D030F0DBD020F031F4C0
:102620009F3F11F41EF4CBC00EF4E095E7FBC1C050
:10263000E92FE7D080F3BA1762077307840795077D
:1026400018F071F49EF5FFC00EF4E0950B2EBA2F32
:10265000A02D0B01B90190010C01CA01A0011124A8
:10266000FF27591B99F0593F50F4503E68F11A1654
:10267000F040A22F232F342F4427585FF3CF4695E5
:1026800037952795A795F0405395C9F77EF41F1607
:10269000BA0B620B730B840BBAF09150A1F0FF0FD1
:1026A000BB1F661F771F881FC2F70EC0BA0F621FBD
:1026B000731F841F48F4879577956795B795F795AD
:1026C0009E3F08F0B3CF9395880F08F09927EE0F3F
:1026D00097958795089504D06894B111B5C0089571
:1026E00098D088F09F5790F0B92F9927B751A0F054
:1026F000D1F0660F771F881F991F1AF0BA95C9F796
:1027000012C0B13081F09FD0B1E008959CC0672F16
:10271000782F8827B85F39F0B93FCCF38695779545
:102720006795B395D9F73EF490958095709561952E
:102730007F4F8F4F9F4F0895E89409C097FB3EF459
:1027400090958095709561957F4F8F4F9F4F9923FE
:10275000A9F0F92F96E9BB279395F695879577957C
:102760006795B795F111F8CFFAF4BB0F11F460FF3C
:102770001BC06F5F7F4F8F4F9F4F16C0882311F094
:1027800096E911C0772321F09EE8872F762F05C0A8
:10279000662371F096E8862F70E060E02AF09A9543
:1027A000660F771F881FDAF7880F9695879597F938
:1027B000089597F99F6780E870E060E008959FEFC3
:1027C00080EC089500240A941616170618060906C8
:1027D000089500240A941216130614060506089597
:1027E000092E0394000C11F4882352F0BB0F40F41F
:1027F000BF2B11F460FF04C06F5F7F4F8F4F9F4F5F
:10280000089557FD9058440F551F59F05F3F71F0E0
:102810004795880F97FB991F61F09F3F79F0879547
:102820000895121613061406551FF2CF4695F1DFD0
:1028300008C0161617061806991FF1CF8695710560
:10284000610508940895E894BB2766277727CB0194
:1028500097F908950BD0C4CFB5DF28F0BADF18F090
:10286000952309F0A6CFABCF1124EECFCADFA0F39A
:10287000959FD1F3950F50E0551F629FF001729F15
:10288000BB27F00DB11D639FAA27F00DB11DAA1F34
:10289000649F6627B00DA11D661F829F2227B00D81
:1028A000A11D621F739FB00DA11D621F839FA00D0C
:1028B000611D221F749F3327A00D611D231F849F5C
:1028C000600D211D822F762F6A2F11249F575040B3
:1028D0008AF0E1F088234AF0EE0FFF1FBB1F661F4E
:1028E000771F881F91505040A9F79E3F510570F007
:1028F00060CFAACF5F3FECF3983EDCF386957795E7
:102900006795B795F795E7959F5FC1F7FE2B880F01
:10291000911D9695879597F90895DB018F939F9365
:1029200067D0BF91AF91A29F800D911DA39F900D85
:10293000B29F900D11240895A1E21A2EAA1BBB1B71
:10294000FD010DC0AA1FBB1FEE1FFF1FA217B3077B
:10295000E407F50720F0A21BB30BE40BF50B661F91
:10296000771F881F991F1A9469F760957095809555
:1029700090959B01AC01BD01CF010895052E97FBF9
:1029800016F400940FD057FD05D0D6DF07FC02D017
:1029900046F408C050954095309521953F4F4F4FD4
:1029A0005F4F089590958095709561957F4F8F4FFB
:1029B0009F4F0895EE0FFF1F0024001C0BBE0790D1
:1029C000F691E02D0994A29FB001B39FC001A39F8F
:1029D000700D811D1124911DB29F700D811D112458
:1029E000911D0895F0DFB7FF0895821B930B0895A2
:1029F000EADFA59F900DB49F900DA49F800D911DBF
:102A000011240895CF93DF93CDB7DEB7AE014B5FAE
:102A10005F4FFA0161917191AF0180913F099091EF
:102A2000400903D0DF91CF9108952F923F924F92AA
:102A30005F926F927F928F929F92AF92BF92CF924E
:102A4000DF92EF92FF920F931F93CF93DF93CDB757
:102A5000DEB72B970FB6F894DEBF0FBECDBF6C016B
:102A60007B018A01FC0117821682838181FFBFC12D
:102A7000CE0101963C01F6019381F70193FD85910A
:102A800093FF81917F01882309F4ADC1853239F428
:102A900093FD859193FF81917F01853221F4B601E9
:102AA00090E0D6D1E8CF912C212C312CFFE1F31509
:102AB000D8F08B3279F038F4803279F08332A1F497
:102AC000232D20611DC08D3261F0803369F4232DE8
:102AD000216016C0832D8260382EE32DE4603E2EE7
:102AE0002AC0F32DF8601DC037FC2DC020ED280F43
:102AF0002A3040F08E32B9F436FC75C1232D2064A3
:102B0000322E19C036FE06C08AE0989E200D112490
:102B1000922E11C0EAE02E9E200D1124222EF32DBC
:102B2000F0623F2E08C08C3621F4832D8068382E49
:102B300002C0883641F4F70193FD859193FF81919E
:102B40007F018111B3CF982F9F7D9554933028F446
:102B50000C5F1F4F9FE399830DC0833631F083379D
:102B600071F0833509F055C020C0F8018081898358
:102B70000E5F1F4F88248394912C530112C02801AB
:102B8000F2E04F0E511CF801A080B18036FE03C068
:102B9000692D70E002C06FEF7FEFC5014ED14C018F
:102BA0008201F32DFF773F2E15C0280122E0420E4F
:102BB000511CF801A080B18036FE03C0692D70E081
:102BC00002C06FEF7FEFC5012DD14C01F32DF068EE
:102BD0003F2E820133FC19C0822D90E088169906A1
:102BE000A0F4B60180E290E033D12A94F5CFF5014C
:102BF00037FC859137FE81915F01B60190E028D1C5
:102C000021102A9421E0821A91088114910479F705
:102C1000E1C0843611F0893639F5F80137FE07C076
:102C200060817181828193810C5F1F4F08C0608138
:102C30007181072E000C880B990B0E5F1F4FF32D2F
:102C4000FF763F2E97FF09C090958095709561950E
:102C50007F4F8F4F9F4FF0683F2E2AE030E0A30157
:102C600033D1882E861844C0853731F4232D2F7E2A
:102C7000B22E2AE030E025C0932D997FB92E8F36F1
:102C8000C1F018F4883579F0AEC0803719F0883774
:102C900021F0A9C0E92FE061BE2EB4FE0DC0FB2DCE
:102CA000F460BF2E09C034FE0AC0292F2660B22E60
:102CB00006C028E030E005C020E130E002C020E19D
:102CC00032E0F801B7FE07C0608171818281938193
:102CD0000C5F1F4F06C06081718180E090E00E5F45
:102CE0001F4FA301F1D0882E8618FB2DFF773F2EB2
:102CF00036FE0DC0232D2E7FA22E891458F434FEEB
:102D00000BC032FC09C0832D8E7EA82E05C0B82CC6
:102D1000A32C03C0B82C01C0B92CA4FE0FC0FE0127
:102D2000E80DF11D8081803321F49A2D997EA92E22
:102D300009C0A2FE06C0B394B39404C08A2D86785D
:102D400009F0B394A3FC10C0A0FE06C0B21480F436
:102D5000280C922C9B180DC0B21458F4B60180E2D6
:102D600090E076D0B394F8CFB21418F42B1802C0C8
:102D7000982C212CA4FE0FC0B60180E390E068D00F
:102D8000A2FE16C0A1FC03C088E790E002C088E55F
:102D900090E0B6010CC08A2D867851F0A1FE02C0E9
:102DA0008BE201C080E2A7FC8DE2B60190E050D03A
:102DB000891430F4B60180E390E04AD09A94F8CFB9
:102DC0008A94F301E80DF11D8081B60190E040D0B6
:102DD0008110F6CF222009F44ECEB60180E290E0B9
:102DE00037D02A94F7CFF6018681978102C08FEF02
:102DF0009FEF2B960FB6F894DEBF0FBECDBFDF91CD
:102E0000CF911F910F91FF90EF90DF90CF90BF90E7
:102E1000AF909F908F907F906F905F904F903F907A
:102E20002F900895FC010590615070400110D8F773
:102E3000809590958E0F9F1F0895FC016150704002
:102E400001900110D8F7809590958E0F9F1F0895DF
:102E50000F931F93CF93DF93FB01238121FD03C0C9
:102E60008FEF9FEF2CC022FF16C04681578124812F
:102E700035814217530744F4A081B1819D012F5F32
:102E80003F4F318320838C93268137812F5F3F4FC3
:102E90003783268314C08B01EC01FB010084F1858C
:102EA000E02D0995892BE1F6D80116968D919C911C
:102EB0001797019617969C938E931697CE01DF91E4
:102EC000CF911F910F910895FA01AA27283051F14F
:102ED000203181F1E8946F936E7F6E5F7F4F8F4F4B
:102EE0009F4FAF4FB1E03ED0B4E03CD0670F781FAA
:102EF000891F9A1FA11D680F791F8A1F911DA11D8F
:102F00006A0F711D811D911DA11D20D009F46894C7
:102F10003F912AE0269F11243019305D3193DEF66F
:102F2000CF010895462F4770405D4193B3E00FD025
:102F3000C9F7F6CF462F4F70405D4A3318F0495D10
:102F400031FD4052419302D0A9F7EACFB4E0A695F3
:102F50009795879577956795BA95C9F70097610515
:102F6000710508959B01AC010A2E0694579547956B
:102F700037952795BA95C9F7620F731F841F951F60
:082F8000A01D0895F894FFCF95
:102F8800636F707925643A2025640A000000000008
:102F9800650D2E0D2F0D310D300D00000000ED0ECA
:082FA800F60D0A0E310DCC0EEE
:00000001FF
