S0180000436F6E74726F6C426F784472697665722E7372656396
S1130000ADC00000D5C00000D3C00000D1C00000C6
S1130010CFC00000CDC00000CBC00000C9C00000AC
S1130020C7C00000C5C00000C3C00000C1C00000BC
S1130030BFC00000BDC00000BBC00000B9C00000CC
S1130040B7C00000B5C00000B3C00000B1C00000DC
S11300500C94EB0DADC00000ABC000000C949C0DE3
S1130060A7C000000C94A60E0C94D80EA1C00000EA
S11300709FC000009EC000009BC0000099C000000B
S113008097C0000095C0000093C0000091C000001C
S11300900C94060F0C94370F8BC0000089C000002D
S11300A087C0000085C0000083C0000081C000003C
S11300B07FC000007DC000007BC0000079C000004C
S11300C077C0000075C0000073C000000C94A90F35
S11300D00C94DB0F6DC000000C9409100C943B10C1
S11300E067C00000AC078B078E079107940797073A
S11300F09A079D07A007A307A607D907B807BB0758
S1130100BE07C107C407C707CA07CD07D007D3076F
S1130110580837083A083D08400843084608490883
S11301204C084F085208750B7A0B7D0B810B840B1E
S1130130980B8F0B920B020C070C0A0C0E0C1D0C67
S1130140110C140C170C810E840E880E8C0E900E5C
S1130150940E980E9C0E6F06970A8C0D11241FBEE8
S1130160CFEFD1E2DEBFCDBF12E0A0E0B2E0EEEC13
S1130170F4E200E00BBF02C007900D92A030B1077B
S1130180D9F728E0A0E0B2E001C01D92A134B20783
S1130190E1F710E0CEEAD0E004C02197FE010E940E
S11301A03D12CB3AD107C9F70E94330C0C94651267
S11301B027CF1F920F920FB60F9211248F9381E0D5
S11301C0809300028F910F900FBE0F901F9018958F
S11301D0ECE7F0E08081806480830895CF93DF931F
S11301E0EC01ECE7F0E09081907E9083ABE7B0E027
S11301F09C91977F9C9390818881892B8083DF9148
S1130200CF910895EAE7F0E08081876080830895C4
S1130210EAE7F0E08081806880830895CF93DF93DC
S1130220EC0178946883D4DFEEE7F0E080818FEF0F
S11302308083CE01E7DFCE01EBDFDF91CF9108951C
S113024010920002EAE7F0E0808188608083808178
S1130250806480830895CF93DF93EC01BFDFCE01E8
S1130260EFDF809100028823E1F3209178008091F0
S1130270790090E0982F8827820F911DDF91CF910C
S11302800895FC015183408388E090E00E94640F4C
S113029044E650E060E070E082E392E00E94070DE3
S11302A04CE251E060E070E086E292E00E94070DCB
S11302B040ED57E060E070E08AE192E00E94070DB3
S11302C042EF53E060E070E08EE092E00C94070DA2
S11302D0089580E00E948D0CBC0184E00E94730CA0
S11302E060E070E080E00E94730C84E00E948D0C5A
S11302F0892B99F08EE092E00E94400D882349F00A
S11303008AE00E948D0CBC016F5F7F4F8AE00E94DF
S1130310730C8AE192E00E949F0C8AE192E00E94B1
S1130320660D882349F08EE092E00E949F0C60E005
S113033070E08AE00C94730C089580E30E948D0CA5
S113034021E0892B09F420E0822F0895CF93C0E0A7
S113035080E48C0F0E948D0C892B19F081E08C0FA6
S113036004C0CF5FC031A1F78FEFCF910895CF9232
S1130370DF92EF92FF920F931F93CF93DF93EB01E2
S11303808A0185E20E948D0C25E530E0DC010E94A3
S113039055126B017C01992334F42FEFC20E23E034
S11303A0D21EE11CF11CD701C601072E7AE0B595D7
S11303B0A795979587957A95D1F7702D6C017D0156
S11303C02FE0C20ED11CE11CF11C85E30E948D0CB0
S11303D0892B31F0D194C194D1083C2D2D2D0AC024
S11303E084E30E948D0C892B19F03C2D2D2D02C025
S11303F020E030E0D801EC9181E08E0F8C93F0E0A6
S1130400CF01880F991FE80FF91FEC0FFD1F84E03F
S1130410808331832283DF91CF911F910F91FF90CD
S1130420EF90DF90CF9008950F931F93CF93DF93B6
S11304308B01EA0181E30E948D0C892B91F487E3FF
S11304400E948D0C892B81F482E30E948D0C892BF0
S113045071F488E30E948D0C892B61F080E094E6AE
S11304600BC08FEF9CE908C08FEF9CE905C080E0CA
S113047094E602C080E090E0E88121E02E0F28831A
S1130480F0E09F01220F331FE20FF31FE00FF11F73
S113049025E0208391838283DF91CF911F910F9177
S11304A008952F923F924F925F926F927F928F9214
S11304B09F92AF92BF92CF92DF92EF92FF920F93EF
S11304C01F93CF93DF9300D000D000D0CDB7DEB719
S11304D08B015E834D8380E20E948D0C6C0181E26E
S11304E00E948D0C7C0185E20E948D0C25E530E094
S11304F0DC010E94551228EE33E040E050E00E94F7
S1130500211229013A018FE0480E511C611C711C13
S11305109701ADECBCEC0E94461296958795969592
S11305208795BC0164567109072E000C880B990B42
S11305300E9401114B015C019601ADECBCEC0E94E0
S113054046129695879596958795BC0164567109D0
S1130550072E000C880B990B0E94011120E030E05B
S113056040E05FE30E948D116B017C019B01AC01B3
S1130570C501B4010E946A100E94CE1069837A8377
S11305808B839C83A7019601C501B4010E94691065
S11305900E94CE1029813A812C39EFEF3E0714F4E2
S11305A02CE93FEF1B016C397F4F34F40F2EFCE92B
S11305B02F2E33243A94F02D8824992484189508F6
S11305C0092C000CAA08BB08052C000C6608770847
S11305D0481859086A087B082536310514F024E6C2
S11305E030E0C901330FAA0BBB0B9C01AD012C59A0
S11305F03F4F4F4F5F4FC301B2010E94F01128ECEF
S113060030E040E050E00E94211269017A01C80CF8
S1130610D91CEA1CFB1CDA82C982910125363105FA
S113062014F024E630E0C901330FAA0BBB0B9C0184
S1130630AD012C593F4F4F4F5F4FC301B2010E9490
S1130640F01128EC30E040E050E00E942112820ECC
S1130650931EA41EB51EC40129813A8133235CF480
S11306609601DD2024F4222733272C193D09CC24BC
S1130670DD24C21AD30A99235CF49401992024F44A
S1130680222733272819390988249924821A930A9E
S1130690ED81FE81808190E0FC01EE0FFF1F8E0F43
S11306A09F1FF801E80FF91F81E08083ED81FE812F
S11306B0808190E0FC01EE0FFF1F8E0F9F1FF80159
S11306C0E80FF91FC182ED81FE81808190E0FC0179
S11306D0EE0FFF1F8E0F9F1FF801E80FF91FD28244
S11306E0ED81FE8180818F5F808390E0FC01EE0FBD
S11306F0FF1F8E0F9F1FF801E80FF91F82E0808310
S1130700ED81FE81808190E0FC01EE0FFF1F8E0FD2
S11307109F1FF801E80FF91F8182ED81FE8180811E
S113072090E09C01220F331F820F931FF801E80F02
S1130730F91F9282ED81FE8180818F5F80832696EE
S11307400FB6F894DEBF0FBECDBFDF91CF911F91DE
S11307500F91FF90EF90DF90CF90BF90AF909F905C
S11307608F907F906F905F904F903F902F9008955F
S11307708F929F92AF92BF92CF92DF92EF92FF92AD
S11307800F931F93CF93DF938B01EA0183E20E94BF
S11307908D0C9C01ADECBCEC0E944612969587959D
S11307A0969587957C0124E6E21AF10884E20E947A
S11307B08D0C25E530E0DC010E94551228EE33E073
S11307C040E050E00E94211249015A018FE0880E56
S11307D0911CA11CB11CC7012CE9E2162FEFF206F3
S11307E014F48CE99FEFCC24DD24C818D9080D2C0F
S11307F0000CEE08FF089C018536910514F024E6F0
S113080030E0C901330FAA0BBB0B9C01AD012C597D
S11308103F4F4F4F5F4FC401990CAA0BBB0BBC0158
S1130820CD016C197D098E099F090E94F01128ECF5
S113083030E040E050E00E942112C20ED31EE41EBC
S1130840F51E888190E0FC01EE0FFF1F8E0F9F1FA5
S1130850F801E80FF91F83E08083888190E0FC01B0
S1130860EE0FFF1F8E0F9F1FF801E80FF91FC182C3
S1130870888190E09C01220F331F820F931FF8019F
S1130880E80FF91FD28288818F5F8883DF91CF912F
S11308901F910F91FF90EF90DF90CF90BF90AF909A
S11308A09F908F900895FF920F931F93CF93DF93A0
S11308B000D01F92CDB7DEB7442361F1A62FB72F26
S11308C0F12C20E08E010C5F1F4F7CE88C91898312
S11308D011968C9111978A8312968C9112978B831F
S11308E0FE013196519138E0622F6527822F90E006
S11308F095958795282F60FF02C0272F28275695A6
S1130900315091F7E017F10769F7F39413964F11FB
S1130910DDCF01C020E0822F0F900F900F90DF9168
S1130920CF911F910F91FF900895DF92EF92FF9264
S11309300F931F93CF93DF937B01142FB4DFD82E33
S113094086E00E94950F85E80E94950F84E00E943E
S1130950950F81E00E94950F812F880F810F0E94CF
S1130960950F1123C1F0E701412F50E08A01000FD8
S1130970111F400F511F8701040F151F88810E940A
S1130980950F89810E94950F8A810E94950F239665
S1130990C017D10799F78D2D0E94950FDF91CF9144
S11309A01F910F91FF90EF90DF9008950F931F9385
S11309B0CF93DF931F92CDB7DEB78C0186E292E02E
S11309C00E941A0D882351F0198281E08A831B82C8
S11309D041E0BE016F5F7F4FC801A7DF0F90DF9139
S11309E0CF911F910F9108950F931F93CF93DF938E
S11309F0CDB7DEB760970FB6F894DEBF0FBECDBF9C
S1130A008C01188AAE01405F5F4FBE016F5F7F4F5C
S1130A1048DDAE01405F5F4FBE016F5F7F4FC8018D
S1130A20A7DEAE01405F5F4FBE016F5F7F4FC8011D
S1130A309EDCAE01405F5F4FBE016F5F7F4FC80118
S1130A40F3DC45E0BE016F5F7F4FC8016EDF609647
S1130A500FB6F894DEBF0FBECDBFDF91CF911F91CB
S1130A600F910895CF92DF92EF92FF920F931F930D
S1130A70CF93DF9300D01F92CDB7DEB76C017C011A
S1130A808BE9E80EF11CC70194D1C701F2D1882388
S1130A90D1F0C70105D2082F882391F010E082E03D
S1130AA0C80ED11C612FC7019DD169837A838B83C2
S1130AB0BE016F5F7F4FC6012BD11F5F0113F2CFC1
S1130AC0C7018DD106C0C70182D1882311F0C701A7
S1130AD086D10F900F900F90DF91CF911F910F91BE
S1130AE0FF90EF90DF90CF900895CF93DF93EC01C8
S1130AF00E94780F9C012227232B49F4682FCE01F2
S1130B00B1DF0E94780F9C012227232BB9F3DF91D8
S1130B10CF910895DF92EF92FF920F931F93CF939B
S1130B20DF937C01E2DF82E0E80EF11CC7013BD1D8
S1130B308823E1F0C70117D1162FD72EC82F862F8F
S1130B40F9D6882399F3D0E0DC2FCC27CD0DD11D25
S1130B50113041F4209731F481E0DFD660E070E099
S1130B60815CC1D6BE01812FBED6E0CFDF91CF918B
S1130B701F910F91FF90EF90DF9008950F931F93B3
S1130B80CF93DF93CDB7DEB765970FB6F894DEBF8A
S1130B900FBECDBF8C0181E089831A821B8282E063
S1130BA08C831D821E8283E08F831886198684E0DD
S1130BB08A871B861C8685E08D871E861F8688E0B3
S1130BC0888B198A1A8A89E08B8B1C8A1D8A47E0D4
S1130BD0BE016F5F7F4FC801A8DEC8019BDF659629
S1130BE00FB6F894DEBF0FBECDBFDF91CF911F913A
S1130BF00F9108950F931F93CF93DF9300D000D0EC
S1130C0000D0CDB7DEB78C0188E089836A831B826C
S1130C1089E08C831D821E82C80182539F4F8FD628
S1130C2042E0BE016F5F7F4FC8017FDEC80172DF03
S1130C3026960FB6F894DEBF0FBECDBFDF91CF91DD
S1130C401F910F9108950F931F93CF93DF938C01FE
S1130C5061DFC801ABDEC80170DB811104C0809183
S1130C6001028823A1F0C80189DF81E056D6892BCF
S1130C7021F081E0809301022DC0C0E460E070E0C7
S1130C808C2F31D6CF5FC035C9F71092010281E0B5
S1130C9044D6892BF9F482E092E0CCD6882311F073
S1130CA0C801A2DEC80152DBC82F880FDD0BCF3F7D
S1130CB08FEFD80779F081E030D6C817D90751F003
S1130CC082E392E0B7D6882329F0C8013FDB682F7E
S1130CD0C80190DFDF91CF911F910F91089582E3B6
S1130CE092E03ED686E292E03BD68AE192E038D6A4
S1130CF08EE092E035D644E650E060E070E082E0B9
S1130D0092E048C60895FC0110821182128208956F
S1130D10CF93DF93DC0111962C91119781E0820F20
S1130D2011968C93119730E02F5F3F4FF901EE0F2E
S1130D30FF1F2E0F3F1FFD01E20FF31FEB01288160
S1130D4039814A81208331834283823318F011969A
S1130D501C92119712968C9112978F5F12968C9316
S1130D60DF91CF910895DC019C9181E0890F292FB7
S1130D7030E0823310F48C9301C01C9212968C9153
S1130D801297815012968C9312972F5F3F4FF9015F
S1130D90EE0FFF1F2E0F3F1FFD01E20FF31F6081B7
S1130DA0718182810895FC0182810895FC0112AA57
S1130DB00895FC0122A9211102C0663039F431E002
S1130DC0320FFC0132ABE20FF11D6083089521E084
S1130DD0FC0182A9823308F420E0822F0895FC01EB
S1130DE012AA0895262F220F620F6B5FFC01E60FF3
S1130DF0F11D7181608182810895EF92FF920F93BA
S1130E001F93CF93DF937C01FC01C2A90C2F10E048
S1130E100150110906301105ECF0DC011596E801CA
S1130E20C80FD91F90E0ECE86D9148E050E0792FAD
S1130E307627292F30E035952795922F70FF02C031
S1130E409E2F922766954150510989F7CA17DB07EF
S1130E5059F701C090E0F701E00FF11F81E0208114
S1130E60291380E0DF91CF911F910F91FF90EF90B4
S1130E700895FC0122A9263068F03281313061F4F2
S1130E80448150E04A5F5F4F30E04217530731F42A
S1130E90B4CF089580E0089580E0089580E0089537
S1130EA0CF93DF93EC01E5DF882339F08C819BEA53
S1130EB0899F812D1124869501C080E0DF91CF9117
S1130EC00895CF93DF93EC017894FED4BE01CE0154
S1130ED085529F4F9AD2AE0161E070E0CE01019637
S1130EE0D0D9DF91CF910895EC0121968C01055260
S1130EF01F4FCE01EED9C80109D3CE01A4DECE0125
S1130F0009DEF7CF90E08B30910518F5FC01EE581F
S1130F10FF4F0C943D1284E290E0089587E290E044
S1130F2008958AE290E008958DE290E0089580E3C8
S1130F3090E0089583E390E0089581E091E00895BE
S1130F4084E091E0089587E091E008958AE091E0DB
S1130F5008958EE392E0089581E290E0089590E090
S1130F608B30910518F5FC01E358FF4F0C943D12AA
S1130F7085E290E0089588E290E008958BE290E0A5
S1130F8008958EE290E0089581E390E0089584E36B
S1130F9090E0089582E091E0089585E091E008955D
S1130FA088E091E008958BE091E008958EE392E06B
S1130FB0089582E290E008950F931F93CF93DF93F7
S1130FC0FC01C62FD42F608341832283211116C0D4
S1130FD0862F98DFFC01908121E030E002C0220FCF
S1130FE0331FDA95E2F7D22FD0959D2390838C2F6F
S1130FF0B6DFFC0120812D23208325C02230B1F4EB
S1131000862F80DFFC01908101E010E002C0000F18
S1131010111FDA95E2F7802F8095982390838C2F07
S11310209EDFFC012081022B00830DC0862F6ADF26
S1131030FC01408121E030E002C0220F331FDA9529
S1131040E2F7242B2083DF91CF911F910F91089514
S1131050DC0111962C911197EC918E2F90E08B303E
S1131060910518F5FC01E857FF4F0C943D12E3E29B
S1131070F0E020C0E6E2F0E01DC0E9E2F0E01AC0D2
S1131080ECE2F0E017C0EFE2F0E014C0E2E3F0E0DD
S113109011C0E0E0F1E00EC0E3E0F1E00BC0E6E0F7
S11310A0F1E008C0E9E0F1E005C0EEE3F2E002C0DF
S11310B0E0E2F0E0808190E002C0959587952A9562
S11310C0E2F781700895C4DF91E089270895FC0157
S11310D06193CF0148C20895EF92FF920F931F933B
S11310E0CF93DF9300D0CDB7DEB7E62EF42E8C017C
S11310F00F5F1F4FFC016081C80135D2E982FA827B
S113110042E0BE016F5F7F4FC801B1D20F900F90D4
S1131110DF91CF911F910F91FF90EF9008950F935E
S11311201F93CF93DF9300D0CDB7DEB76A838C01D2
S11311300F5F1F4FFC016081C80115D241E0BE0161
S11311406E5F7F4FC80193D241E0BE016F5F7F4F56
S1131150C8012CD389810F900F90DF91CF911F91FB
S11311600F910895CF93DF93EC018881882311F0C8
S113117063E101C062E18B819C81D1DF90E0098051
S113118002C0959587950A94E2F78170DF91CF911B
S113119008951F93CF93DF93EC016A8311E0888154
S11311A0811101C010E0611112C0612F8B819C81FB
S11311B0B6DF41E050E0098002C0440F551F0A9495
S11311C0E2F7482B612F8B819C8186DF12C0612F4F
S11311D08B819C81A4DF41E050E0098002C0440F70
S11311E0551F0A94E2F740954823612F8B819C8117
S11311F073DFDF91CF911F9108950F93FC017483E6
S1131200638340832183602FC4DF0F910895CF93BC
S1131210DF93EC0160E202965ADF67E2CE01429668
S113122056DFDF91CF910895EF92FF920F93CF9302
S1131230DF93EC017C0182E0E80EF11C00E020E089
S113124040E0B701CE018296D8DF22E040E0B7014A
S1131250CE018796D2DF24E040E0B701CE018C9620
S1131260CCDF26E040E0B701CE01C196C6DF20E026
S113127041E0B701CE01C696C0DF22E041E0B701EC
S1131280CE01CB96BADF24E041E0B701CE01805C09
S11312909F4FB3DF26E041E0B701CE018B5B9F4F48
S11312A0ACDF7E0182E1E80EF11C20E040E0B701F2
S11312B0CE01865B9F4FA1DF22E040E0B701CE0163
S11312C0815B9F4F9ADF24E040E0B701CE018C5A46
S11312D09F4F93DF26E040E0B701CE01875A9F4F2E
S11312E08CDF20E041E0B701CE01825A9F4F85DFB9
S11312F022E041E0B701CE018D599F4F7EDF24E00B
S113130041E0B701CE0188599F4F77DF26E041E0E5
S1131310B701CE0183599F4F70DFDF91CF910F91B9
S1131320FF90EF900895CF93DF93EC0122E042E029
S113133069E08E589F4F40DE22E046E061E0CE0136
S11313408B589F4F39DE22E044E061E0CE0188589B
S11313509F4F32DE22E040E061E0CE0185589F4F8E
S11313602BDE22E044E064E0CE0182589F4F24DE6D
S113137022E045E061E0CE018F579F4F1DDE22E061
S113138046E064E0CE018C579F4F16DE22E047E032
S113139064E0CE0189579F4F0FDE22E045E064E010
S11313A0CE0186579F4F08DEDF91CF910895CF93EA
S11313B0DF93EC0160E082579F4F0E940E0161E0D1
S11313C0CE0183579F4F0E940E0166E0CE018157E4
S11313D09F4F0E940E0167E0CE0180579F4F0E94ED
S11313E00E01DF91CF910895CF93DF93EC0162E07A
S11313F08F569F4F0E940E0165E0CE018E569F4F7F
S11314000E940E01DF91CF9108950F931F93CF9304
S1131410DF93EC018B0144E650E060E070E08FE381
S113142092E0F5D219830883CE01F1DECE01FCDE11
S1131430CE0179DFCE01BBDFCE01D6DFDF91CF91C4
S11314401F910F9108950F931F93CF938C010E5802
S11314501F4FC0E3C80137DE682F70E08C2F43D2E2
S11314600D5F1F4FCF5FC933A9F7CF911F910F9124
S113147008950F931F93CF938C010E5D1F4FC0E40B
S1131480C80170DE811104C061E070E08C2F2BD2A2
S11314900B5F1F4FCF5FC03599F7CF911F910F910D
S11314A00895CF93DF93EC0183579F4F0E942B0144
S11314B0BC0180E218D2CE0182579F4F0E942B01BB
S11314C0BC0181E210D2CE0181579F4F0E942B01B3
S11314D0BC0182E208D2CE0180579F4F0E942B01AB
S11314E0BC0183E200D2CE018F569F4F0E942B0194
S11314F0BC0184E2F8D1CE018E569F4F0E942B018D
S1131500BC0185E2F0D1DF91CF910895CF93DF93B1
S1131510EC018FE392E08ED2882331F0CE0193DF89
S1131520CE01A7DFCE01BDDFDF91CF9108954AEF51
S113153050E060E070E08BE492E02CD244E650E0AE
S113154060E070E08FE392E025C20895442351F0F7
S1131550A82FB92FFB01640F711D8D918193E6179C
S1131560F707D9F70895660FFC0161830895FC011C
S1131570611104C081818160818303C081818E7F78
S1131580818381818093BB0084E88093BC0083E0E5
S113159080830895FC01848590E0258530E0215006
S11315A031098217930731F4ACEBB0E09C9180E4ED
S11315B089278C9384E88093BC0086E08083089517
S11315C0FC0184E98093BC001486108286858F5FB9
S11315D0868785E38A95F1F700000895FC019091D0
S11315E0BC00992354F48091B900887F883019F4A1
S11315F082E080830895CF01E3CF0895FC019091A8
S1131600BC00992354F48091B900887F883119F47F
S113161084E080830895CF01D3CF0895FC01909195
S1131620BC00992354F48091B900887F803419F464
S113163085E080830895CF01C3CF08952091BC0035
S11316402223A4F42091B900287F283271F4FC01EC
S113165024852F5F24873585231718F424E02083FD
S1131660089527E0FC0120830895AACF08959F924E
S1131670AF92BF92CF92DF92EF92FF920F931F939C
S1131680CF93DF93EC017B01142FBC016E5F7F4F7E
S1131690C7015CDF88E48093B8001D871C861E8622
S11316A01882E0E00F2EFBEBCF2ED12CF02D0CEBAB
S11316B010E00F2EF4E89F2EF02D0F2EF6E0AF2E43
S11316C0F02D0F2EF4EEBF2EF02D03C0E881E8308C
S11316D091F18E85853090F58E2F90E088309105BC
S11316E038F5FC01ED56FF4FC8C6F801B08281E021
S11316F088832AC0CE0172DFE9CF61E0CE0137DFF3
S1131700E5CFCE017BDFE2CF8C85F701E80FF11D39
S11317108081F6018083F8019082A88215C0CE01F1
S11317208DDFD4CF84E98093BC0088E0888309C02E
S113173088E0888306C081E090E008C080E090E003
S113174005C081E090E002C0E881C3CFDF91CF9172
S11317501F910F91FF90EF90DF90CF90BF90AF90CB
S11317609F9008952091BC002223FCF42091BC009A
S113177026FF03C040E565E002C048E567E020912C
S1131780B900287F30E050E02417350769F4FC01E4
S1131790248531E0320F34873091BB00E20FF11D14
S11317A03283FC01608308950BCF0895BF92CF92DA
S11317B0DF92EF92FF920F931F93CF93DF93EC018D
S11317C07B01C42E88E48093B8004D871C861E8656
S11317D01882E0E00CEB10E00F2EF4EEBF2EF02D9B
S11317E0DD24D39403C0E881E83049F18E85853047
S11317F070F58E2F90E088309105F8F4FC01E556E1
S1131800FF4F3BC6F801B082D882ED2DEFCFCE0159
S1131810E5DEE9CF60E0CE01AADEE5CFCE01FEDE53
S1131820E2CFCE01B7DEDFCFCE019CDFDCCF84E98F
S11318308093BC0088E0888302C088E088834C2DB4
S1131840B701CE01029682DE81E090E002C080E022
S113185090E0DF91CF911F910F91FF90EF90DF9077
S1131860CF90BF900895CF93DF93CDB7DEB7CE5618
S1131870D1400FB6F894DEBF0FBECDBF2FEF83ED7E
S113188090E3215080409040E1F700C00000CE0179
S1131890049639DACE0183569F4F88DACE018053FD
S11318A09F4F5ED0CE0101960CDBCE0101961CDB6E
S11318B080E090E0C259DE4F0FB6F894DEBF0FBE51
S11318C0CDBFDF91CF910895E7E5F2E087E595E09C
S11318D01182108213821282158214823696E817BE
S11318E0F907B1F7089590E0FC01EE0FFF1FE80F30
S11318F0F91FEE0FFF1FE95AFD4F01C0FC0184815F
S113190095810097D9F7309739F07183608302800D
S1131910F381E02D3097C9F7089590E0FC01EE0FB4
S1131920FF1FE80FF91FEE0FFF1FE95AFD4F8081DB
S1131930918108958095881F8827881F0895CF93E3
S1131940DF93EC0187E595E0A4D16C837D838E83DE
S11319509F83688379838A839B83DF91CF910895E2
S1131960CF93DF93EC0141E050E060E070E087E565
S113197095E0A5D187E595E095D182E390E0A0E0DC
S1131980B0E088879987AA87BB87CE01D8DFDF912B
S1131990CF910895CF92DF92EF92FF92CF93DF938E
S11319A0EC016A017B0141E050E060E070E087E512
S11319B095E085D187E595E075D1C886D986EA8614
S11319C0FB86CE01BCDFDF91CF91FF90EF90DF90DB
S11319D0CF900895CF93DF93EC014C815D816E81AC
S11319E07F8188859985AA85BB85840F951FA61F4D
S11319F0B71F8C839D83AE83BF8387E595E049D170
S1131A00688379838A839B83DF91CF910895FC0156
S1131A1040875187628773870895CF93DF93EC01E2
S1131A2087E595E036D1688379838A839B83DF9148
S1131A30CF910895CF93DF93EC01EFDF28813981B3
S1131A408C819D81281B390BC901992324F4882793
S1131A509927821B930B092E000CAA0BBB0B4885FC
S1131A6059856A857B85481759076A077B0724F4DB
S1131A70CE0165DF81E001C080E0DF91CF91089560
S1131A80CF93DF93EC01C9DF288139818C819D815B
S1131A90281B390BC901992324F488279927821B11
S1131AA0930B092E000CAA0BBB0B488559856A853C
S1131AB07B85481759076A077B0724F4CE018ADF20
S1131AC081E001C080E0DF91CF9108950F931F93CF
S1131AD0CF93DF93EC01A1DF888199812C813D8133
S1131AE0821B930BAC0122F444275527481B590B46
S1131AF0052E000C660B770B81E0088519852A8575
S1131B003B8504171507260737070CF080E0DF91A3
S1131B10CF911F910F91089587E595E0CEC0089568
S1131B2010925C0510925D0510925E0510925F059F
S1131B3007D180E0D7C008951F920F920FB60F927D
S1131B4011240BB60F922F933F934F935F936F9390
S1131B507F938F939F93AF93BF93EF93FF93809162
S1131B605C0590915D05A0915E05B0915F050196BD
S1131B70A11DB11D80935C0590935D05A0935E0546
S1131B80B0935F0540915C0550915D0560915E05E1
S1131B9070915F058091580590915905A0915A055F
S1131BA0B0915B0584179507A607B70708F4B8DF5B
S1131BB0FF91EF91BF91AF919F918F917F916F9121
S1131BC05F914F913F912F910F900BBE0F900FBEDD
S1131BD00F901F9018951F920F920FB60F92112419
S1131BE04F935F936F937F938F939F93AF93BF9321
S1131BF08091680590916905A0916A05B0916B0583
S1131C000196A11DB11D8093680590936905A09369
S1131C106A05B0936B054091680550916905609120
S1131C206A0570916B058091600590916105A091A2
S1131C306205B091630584179507A607B707D8F422
S1131C408091640590916505A0916605B091670542
S1131C500496A11DB11D8093640590936505A0931E
S1131C606605B09367051092680510926905109295
S1131C706A0510926B0516BABF91AF919F918F912F
S1131C807F916F915F914F910F900FBE0F901F90B6
S1131C901895609164057091650580916605909131
S1131CA067050895EFE6F0E0808181608083E1E8D4
S1131CB0F0E08081816080830895F4CF0895A0E8E6
S1131CC0BEE39A01AB01F7D32FEF3FEF40E050E0C2
S1131CD096D3209360053093610540936205509339
S1131CE063050895E82F80936C0585B5887F85BDCD
S1131CF08E2F90E08830910510F5FC01ED55FF4FD3
S1131D00BCC385B585BD089585B5816085BD08953D
S1131D1085B5826085BD089585B5836085BD0895C8
S1131D2085B5846085BD089585B5856085BD0895B4
S1131D3085B5866085BD089585B5876085BD0895A0
S1131D40EEE6F0E080818E7F808308951F920F92EB
S1131D500FB60F9211240BB60F922F938F939F936C
S1131D60EF93FF938091C0002091C6008C71E091A5
S1131D706F05EF5FEF7190916E05E91739F0E0930D
S1131D806F05F0E0E059FA4F208301C082E09091A2
S1131D906D05892B80936D05FF91EF919F918F9134
S1131DA02F910F900BBE0F900FBE0F901F901895A0
S1131DB01F920F920FB60F9211240BB60F928F93AE
S1131DC09F93EF93FF9390919105809190059817BD
S1131DD069F0E0919005EF5FEF71E0939005F0E01A
S1131DE0EE56FA4F80818093C60005C0E1ECF0E026
S1131DF080818F7D8083FF91EF919F918F910F90D0
S1131E000BBE0F900FBE0F901F9018951F920F924C
S1131E100FB60F9211240BB60F922F938F939F93AB
S1131E20EF93FF938091C8002091CE008C71E091D4
S1131E30B405EF5F9091B305E91739F0E093B40569
S1131E40F0E0EB54FA4F208301C082E09091B20598
S1131E50892B8093B205FF91EF919F918F912F91E0
S1131E600F900BBE0F900FBE0F901F9018951F92EE
S1131E700F920FB60F9211240BB60F928F939F936C
S1131E80EF93FF939091B6068091B506981761F091
S1131E90E091B506EF5FE093B506F0E0E954F94F41
S1131EA080818093CE0005C0E9ECF0E080818F7DD5
S1131EB08083FF91EF919F918F910F900BBE0F90B4
S1131EC00FBE0F901F9018951092B6061092B5068B
S1131ED01092B4051092B30590789093CD0080933E
S1131EE0CC0088E98093C90086E08093CA000895F5
S1131EF09091B4058091B3059817A1F08091B30532
S1131F008F5FE82FF0E0EB54FA4F20818093B30504
S1131F108091B2051092B20590E0982F8827820F25
S1131F20911D089580E091E008952091B6062F5FF9
S1131F309091B5062917E1F3E22FF0E0E954F94F47
S1131F4080832093B606E9ECF0E080818062808390
S1131F5008951F920F920FB60F9211240BB60F9291
S1131F602F938F939F93EF93FF938091D0002091B1
S1131F70D6008C71E091B907EF5FEF719091B807CB
S1131F80E91739F0E093B907F0E0E654F84F2083FD
S1131F9001C082E09091B707892B8093B707FF9126
S1131FA0EF919F918F912F910F900BBE0F900FBEC9
S1131FB00F901F9018951F920F920FB60F92112435
S1131FC00BB60F928F939F93EF93FF939091DB0740
S1131FD08091DA07981769F0E091DA07EF5FEF7103
S1131FE0E093DA07F0E0E452F84F80818093D60062
S1131FF005C0E1EDF0E080818F7D8083FF91EF915A
S11320009F918F910F900BBE0F900FBE0F901F905A
S113201018951F920F920FB60F9211240BB60F92C0
S11320202F938F939F93EF93FF938091300120918F
S113203036018C71E091FE07EF5FEF719091FD071F
S1132040E91739F0E093FE07F0E0E150F84F208300
S113205001C082E09091FC07892B8093FC07FF91DB
S1132060EF919F918F912F910F900BBE0F900FBE08
S11320700F901F9018951F920F920FB60F92112474
S11320800BB60F928F939F93EF93FF939091200839
S113209080911F08981769F0E0911F08EF5FEF71B6
S11320A0E0931F08F0E0EF5DF74F808180933601E5
S11320B005C0E1E3F1E080818F7D8083FF91EF91A2
S11320C09F918F910F900BBE0F900FBE0F901F909A
S11320D018955058BB27AA270ED0E5C0D6D030F0AB
S11320E0DBD020F031F49F3F11F41EF4CBC00EF48A
S11320F0E095E7FBC1C0E92FE7D080F3BA17620788
S113210073078407950718F071F49EF5FFC00EF469
S1132110E0950B2EBA2FA02D0B01B90190010C01F3
S1132120CA01A0011124FF27591B99F0593F50F40B
S1132130503E68F11A16F040A22F232F342F442763
S1132140585FF3CF469537952795A795F04053955B
S1132150C9F77EF41F16BA0B620B730B840BBAF02B
S11321609150A1F0FF0FBB1F661F771F881FC2F796
S11321700EC0BA0F621F731F841F48F487957795AA
S11321806795B795F7959E3F08F0B3CF9395880F61
S113219008F09927EE0F97958795089504D06894D1
S11321A0B111B5C0089598D088F09F5790F0B92F19
S11321B09927B751A0F0D1F0660F771F881F991F98
S11321C01AF0BA95C9F712C0B13081F09FD0B1E0CE
S11321D008959CC0672F782F8827B85F39F0B93FDE
S11321E0CCF3869577956795B395D9F73EF490959A
S11321F08095709561957F4F8F4F9F4F0895E89418
S113220009C097FB3EF490958095709561957F4F3A
S11322108F4F9F4F9923A9F0F92F96E9BB279395E8
S1132220F695879577956795B795F111F8CFFAF4F8
S1132230BB0F11F460FF1BC06F5F7F4F8F4F9F4F29
S113224016C0882311F096E911C0772321F09EE887
S1132250872F762F05C0662371F096E8862F70E0ED
S113226060E02AF09A95660F771F881FDAF7880FC7
S11322709695879597F9089597F99F6780E870E098
S113228060E008959FEF80EC089500240A941616E8
S1132290170618060906089500240A941216130650
S11322A0140605060895092E0394000C11F48823DE
S11322B052F0BB0F40F4BF2B11F460FF04C06F5FFA
S11322C07F4F8F4F9F4F089557FD9058440F551FD0
S11322D059F05F3F71F04795880F97FB991F61F0A4
S11322E09F3F79F087950895121613061406551F1B
S11322F0F2CF4695F1DF08C0161617061806991F87
S1132300F1CF86957105610508940895E894BB277B
S113231066277727CB0197F908950BD0C4CFB5DF93
S113232028F0BADF18F0952309F0A6CFABCF11241B
S1132330EECFCADFA0F3959FD1F3950F50E0551F60
S1132340629FF001729FBB27F00DB11D639FAA2706
S1132350F00DB11DAA1F649F6627B00DA11D661F55
S1132360829F2227B00DA11D621F739FB00DA11D76
S1132370621F839FA00D611D221F749F3327A00D30
S1132380611D231F849F600D211D822F762F6A2FCC
S113239011249F5750408AF0E1F088234AF0EE0F51
S11323A0FF1FBB1F661F771F881F91505040A9F75E
S11323B09E3F510570F060CFAACF5F3FECF3983E8B
S11323C0DCF3869577956795B795F795E7959F5FC5
S11323D0C1F7FE2B880F911D9695879597F908955F
S11323E0DB018F939F9367D0BF91AF91A29F800D24
S11323F0911DA39F900DB29F900D11240895A1E209
S11324001A2EAA1BBB1BFD010DC0AA1FBB1FEE1F6A
S1132410FF1FA217B307E407F50720F0A21BB30BB5
S1132420E40BF50B661F771F881F991F1A9469F731
S113243060957095809590959B01AC01BD01CF018D
S11324400895052E97FB16F400940FD057FD05D080
S1132450D6DF07FC02D046F408C05095409530956D
S113246021953F4F4F4F5F4F0895909580957095FC
S113247061957F4F8F4F9F4F0895EE0FFF1F0024EC
S1132480001C0BBE0790F691E02D0994A29FB001A9
S1132490B39FC001A39F700D811D1124911DB29F94
S11324A0700D811D1124911D0895F0DFB7FF08956B
S11324B0821B930B0895EADFA59F900DB49F900DA6
S11124C0A49F800D911D11240895F894FFCF60
S9030000FC
